{
  "contractName": "FileShare",
  "abi": [
    {
      "inputs": [
        {
          "internalType": "address",
          "name": "_userA",
          "type": "address"
        },
        {
          "internalType": "address",
          "name": "_userB",
          "type": "address"
        }
      ],
      "name": "createChannel",
      "outputs": [],
      "stateMutability": "nonpayable",
      "type": "function"
    },
    {
      "inputs": [
        {
          "internalType": "address",
          "name": "_userA",
          "type": "address"
        },
        {
          "internalType": "address",
          "name": "_userB",
          "type": "address"
        }
      ],
      "name": "getChannel",
      "outputs": [
        {
          "internalType": "address",
          "name": "",
          "type": "address"
        }
      ],
      "stateMutability": "view",
      "type": "function",
      "constant": true
    }
  ],
  "bytecode": "0x608060405234801561001057600080fd5b50612662806100206000396000f3fe608060405234801561001057600080fd5b50600436106100365760003560e01c806335a1ba6f1461003b578063aee26d3f14610057575b600080fd5b610055600480360381019061005091906103e6565b610087565b005b610071600480360381019061006c91906103e6565b610182565b60405161007e9190610435565b60405180910390f35b8173ffffffffffffffffffffffffffffffffffffffff163373ffffffffffffffffffffffffffffffffffffffff1614806100ec57508073ffffffffffffffffffffffffffffffffffffffff163373ffffffffffffffffffffffffffffffffffffffff16145b801561016b5750600073ffffffffffffffffffffffffffffffffffffffff1660016101178484610242565b60405161012491906104ca565b908152602001604051809103902060009054906101000a900473ffffffffffffffffffffffffffffffffffffffff1673ffffffffffffffffffffffffffffffffffffffff16145b61017457600080fd5b61017e828261026e565b5050565b60008273ffffffffffffffffffffffffffffffffffffffff163373ffffffffffffffffffffffffffffffffffffffff1614806101e957508173ffffffffffffffffffffffffffffffffffffffff163373ffffffffffffffffffffffffffffffffffffffff16145b6101f257600080fd5b60016101fe8484610242565b60405161020b91906104ca565b908152602001604051809103902060009054906101000a900473ffffffffffffffffffffffffffffffffffffffff16905092915050565b60608282604051602001610257929190610580565b604051602081830303815290604052905092915050565b6000828260405161027e90610376565b6102899291906105b7565b604051809103906000f0801580156102a5573d6000803e3d6000fd5b5090506000819080600181540180825580915050600190039060005260206000200160009091909190916101000a81548173ffffffffffffffffffffffffffffffffffffffff021916908373ffffffffffffffffffffffffffffffffffffffff1602179055508060016103188585610242565b60405161032591906104ca565b908152602001604051809103902060006101000a81548173ffffffffffffffffffffffffffffffffffffffff021916908373ffffffffffffffffffffffffffffffffffffffff160217905550505050565b61204c806105e183390190565b600080fd5b600073ffffffffffffffffffffffffffffffffffffffff82169050919050565b60006103b382610388565b9050919050565b6103c3816103a8565b81146103ce57600080fd5b50565b6000813590506103e0816103ba565b92915050565b600080604083850312156103fd576103fc610383565b5b600061040b858286016103d1565b925050602061041c858286016103d1565b9150509250929050565b61042f816103a8565b82525050565b600060208201905061044a6000830184610426565b92915050565b600081519050919050565b600081905092915050565b60005b83811015610484578082015181840152602081019050610469565b83811115610493576000848401525b50505050565b60006104a482610450565b6104ae818561045b565b93506104be818560208601610466565b80840191505092915050565b60006104d68284610499565b915081905092915050565b60008160601b9050919050565b60006104f9826104e1565b9050919050565b600061050b826104ee565b9050919050565b61052361051e826103a8565b610500565b82525050565b600081905092915050565b7f5f00000000000000000000000000000000000000000000000000000000000000600082015250565b600061056a600183610529565b915061057582610534565b600182019050919050565b600061058c8285610512565b60148201915061059b8261055d565b91506105a78284610512565b6014820191508190509392505050565b60006040820190506105cc6000830185610426565b6105d96020830184610426565b939250505056fe60806040523480156200001157600080fd5b506040516200204c3803806200204c83398181016040528101906200003791906200012a565b816000806101000a81548173ffffffffffffffffffffffffffffffffffffffff021916908373ffffffffffffffffffffffffffffffffffffffff16021790555080600160006101000a81548173ffffffffffffffffffffffffffffffffffffffff021916908373ffffffffffffffffffffffffffffffffffffffff160217905550505062000171565b600080fd5b600073ffffffffffffffffffffffffffffffffffffffff82169050919050565b6000620000f282620000c5565b9050919050565b6200010481620000e5565b81146200011057600080fd5b50565b6000815190506200012481620000f9565b92915050565b60008060408385031215620001445762000143620000c0565b5b6000620001548582860162000113565b9250506020620001678582860162000113565b9150509250929050565b611ecb80620001816000396000f3fe608060405234801561001057600080fd5b506004361061007d5760003560e01c8063a6aeff571161005b578063a6aeff5714610109578063cb1a295f14610125578063deb22e9a14610143578063e9ad3239146101615761007d565b80631a936e9e1461008257806377e371e6146100b4578063914e3144146100e6575b600080fd5b61009c6004803603810190610097919061173e565b610180565b6040516100ab939291906118d9565b60405180910390f35b6100ce60048036038101906100c9919061173e565b610747565b6040516100dd939291906119e3565b60405180910390f35b6100ee610c92565b60405161010096959493929190611a2f565b60405180910390f35b610123600480360381019061011e9190611bef565b611335565b005b61012d6113fa565b60405161013a9190611ce9565b60405180910390f35b61014b611420565b6040516101589190611ce9565b60405180910390f35b610169611444565b604051610177929190611d04565b60405180910390f35b60608060606000805b6002805490508110156102ad578673ffffffffffffffffffffffffffffffffffffffff16600282815481106101c1576101c0611d2d565b5b906000526020600020906006020160040160009054906101000a900473ffffffffffffffffffffffffffffffffffffffff1673ffffffffffffffffffffffffffffffffffffffff1614801561028657508573ffffffffffffffffffffffffffffffffffffffff166002828154811061023c5761023b611d2d565b5b906000526020600020906006020160050160009054906101000a900473ffffffffffffffffffffffffffffffffffffffff1673ffffffffffffffffffffffffffffffffffffffff16145b1561029a57818061029690611d95565b9250505b80806102a590611d95565b915050610189565b5060008167ffffffffffffffff8111156102ca576102c9611ac4565b5b6040519080825280602002602001820160405280156102fd57816020015b60608152602001906001900390816102e85790505b50905060008267ffffffffffffffff81111561031c5761031b611ac4565b5b60405190808252806020026020018201604052801561034f57816020015b606081526020019060019003908161033a5790505b50905060008367ffffffffffffffff81111561036e5761036d611ac4565b5b6040519080825280602002602001820160405280156103a157816020015b606081526020019060019003908161038c5790505b5090506000805b600280549050811015610731578a73ffffffffffffffffffffffffffffffffffffffff16600282815481106103e0576103df611d2d565b5b906000526020600020906006020160040160009054906101000a900473ffffffffffffffffffffffffffffffffffffffff1673ffffffffffffffffffffffffffffffffffffffff161480156104a557508973ffffffffffffffffffffffffffffffffffffffff166002828154811061045b5761045a611d2d565b5b906000526020600020906006020160050160009054906101000a900473ffffffffffffffffffffffffffffffffffffffff1673ffffffffffffffffffffffffffffffffffffffff16145b1561071e57600281815481106104be576104bd611d2d565b5b906000526020600020906006020160000180546104da90611e0d565b80601f016020809104026020016040519081016040528092919081815260200182805461050690611e0d565b80156105535780601f1061052857610100808354040283529160200191610553565b820191906000526020600020905b81548152906001019060200180831161053657829003601f168201915b505050505085838151811061056b5761056a611d2d565b5b60200260200101819052506002818154811061058a57610589611d2d565b5b906000526020600020906006020160010180546105a690611e0d565b80601f01602080910402602001604051908101604052809291908181526020018280546105d290611e0d565b801561061f5780601f106105f45761010080835404028352916020019161061f565b820191906000526020600020905b81548152906001019060200180831161060257829003601f168201915b505050505084838151811061063757610636611d2d565b5b60200260200101819052506002818154811061065657610655611d2d565b5b9060005260206000209060060201600201805461067290611e0d565b80601f016020809104026020016040519081016040528092919081815260200182805461069e90611e0d565b80156106eb5780601f106106c0576101008083540402835291602001916106eb565b820191906000526020600020905b8154815290600101906020018083116106ce57829003601f168201915b505050505083838151811061070357610702611d2d565b5b602002602001018190525060018261071b9190611e3f565b91505b808061072990611d95565b9150506103a8565b5083838397509750975050505050509250925092565b60608060606000805b600280549050811015610874578673ffffffffffffffffffffffffffffffffffffffff166002828154811061078857610787611d2d565b5b906000526020600020906006020160040160009054906101000a900473ffffffffffffffffffffffffffffffffffffffff1673ffffffffffffffffffffffffffffffffffffffff1614801561084d57508573ffffffffffffffffffffffffffffffffffffffff166002828154811061080357610802611d2d565b5b906000526020600020906006020160050160009054906101000a900473ffffffffffffffffffffffffffffffffffffffff1673ffffffffffffffffffffffffffffffffffffffff16145b1561086157818061085d90611d95565b9250505b808061086c90611d95565b915050610750565b5060008167ffffffffffffffff81111561089157610890611ac4565b5b6040519080825280602002602001820160405280156108c457816020015b60608152602001906001900390816108af5790505b50905060008267ffffffffffffffff8111156108e3576108e2611ac4565b5b6040519080825280602002602001820160405280156109115781602001602082028036833780820191505090505b50905060008367ffffffffffffffff8111156109305761092f611ac4565b5b60405190808252806020026020018201604052801561095e5781602001602082028036833780820191505090505b5090506000805b600280549050811015610c7c578a73ffffffffffffffffffffffffffffffffffffffff166002828154811061099d5761099c611d2d565b5b906000526020600020906006020160040160009054906101000a900473ffffffffffffffffffffffffffffffffffffffff1673ffffffffffffffffffffffffffffffffffffffff16148015610a6257508973ffffffffffffffffffffffffffffffffffffffff1660028281548110610a1857610a17611d2d565b5b906000526020600020906006020160050160009054906101000a900473ffffffffffffffffffffffffffffffffffffffff1673ffffffffffffffffffffffffffffffffffffffff16145b15610c695760028181548110610a7b57610a7a611d2d565b5b90600052602060002090600602016003018054610a9790611e0d565b80601f0160208091040260200160405190810160405280929190818152602001828054610ac390611e0d565b8015610b105780601f10610ae557610100808354040283529160200191610b10565b820191906000526020600020905b815481529060010190602001808311610af357829003601f168201915b5050505050858381518110610b2857610b27611d2d565b5b602002602001018190525060028181548110610b4757610b46611d2d565b5b906000526020600020906006020160040160009054906101000a900473ffffffffffffffffffffffffffffffffffffffff16848381518110610b8c57610b8b611d2d565b5b602002602001019073ffffffffffffffffffffffffffffffffffffffff16908173ffffffffffffffffffffffffffffffffffffffff168152505060028181548110610bda57610bd9611d2d565b5b906000526020600020906006020160050160009054906101000a900473ffffffffffffffffffffffffffffffffffffffff16838381518110610c1f57610c1e611d2d565b5b602002602001019073ffffffffffffffffffffffffffffffffffffffff16908173ffffffffffffffffffffffffffffffffffffffff1681525050600182610c669190611e3f565b91505b8080610c7490611d95565b915050610965565b5083838397509750975050505050509250925092565b606080606080606080600060028054905067ffffffffffffffff811115610cbc57610cbb611ac4565b5b604051908082528060200260200182016040528015610cef57816020015b6060815260200190600190039081610cda5790505b509050600060028054905067ffffffffffffffff811115610d1357610d12611ac4565b5b604051908082528060200260200182016040528015610d4657816020015b6060815260200190600190039081610d315790505b509050600060028054905067ffffffffffffffff811115610d6a57610d69611ac4565b5b604051908082528060200260200182016040528015610d9d57816020015b6060815260200190600190039081610d885790505b509050600060028054905067ffffffffffffffff811115610dc157610dc0611ac4565b5b604051908082528060200260200182016040528015610df457816020015b6060815260200190600190039081610ddf5790505b509050600060028054905067ffffffffffffffff811115610e1857610e17611ac4565b5b604051908082528060200260200182016040528015610e465781602001602082028036833780820191505090505b509050600060028054905067ffffffffffffffff811115610e6a57610e69611ac4565b5b604051908082528060200260200182016040528015610e985781602001602082028036833780820191505090505b50905060005b6002805490508110156113145760028181548110610ebf57610ebe611d2d565b5b90600052602060002090600602016000018054610edb90611e0d565b80601f0160208091040260200160405190810160405280929190818152602001828054610f0790611e0d565b8015610f545780601f10610f2957610100808354040283529160200191610f54565b820191906000526020600020905b815481529060010190602001808311610f3757829003601f168201915b5050505050878281518110610f6c57610f6b611d2d565b5b602002602001018190525060028181548110610f8b57610f8a611d2d565b5b90600052602060002090600602016001018054610fa790611e0d565b80601f0160208091040260200160405190810160405280929190818152602001828054610fd390611e0d565b80156110205780601f10610ff557610100808354040283529160200191611020565b820191906000526020600020905b81548152906001019060200180831161100357829003601f168201915b505050505086828151811061103857611037611d2d565b5b60200260200101819052506002818154811061105757611056611d2d565b5b9060005260206000209060060201600201805461107390611e0d565b80601f016020809104026020016040519081016040528092919081815260200182805461109f90611e0d565b80156110ec5780601f106110c1576101008083540402835291602001916110ec565b820191906000526020600020905b8154815290600101906020018083116110cf57829003601f168201915b505050505085828151811061110457611103611d2d565b5b60200260200101819052506002818154811061112357611122611d2d565b5b9060005260206000209060060201600301805461113f90611e0d565b80601f016020809104026020016040519081016040528092919081815260200182805461116b90611e0d565b80156111b85780601f1061118d576101008083540402835291602001916111b8565b820191906000526020600020905b81548152906001019060200180831161119b57829003601f168201915b50505050508482815181106111d0576111cf611d2d565b5b6020026020010181905250600281815481106111ef576111ee611d2d565b5b906000526020600020906006020160040160009054906101000a900473ffffffffffffffffffffffffffffffffffffffff1683828151811061123457611233611d2d565b5b602002602001019073ffffffffffffffffffffffffffffffffffffffff16908173ffffffffffffffffffffffffffffffffffffffff16815250506002818154811061128257611281611d2d565b5b906000526020600020906006020160050160009054906101000a900473ffffffffffffffffffffffffffffffffffffffff168282815181106112c7576112c6611d2d565b5b602002602001019073ffffffffffffffffffffffffffffffffffffffff16908173ffffffffffffffffffffffffffffffffffffffff1681525050808061130c90611d95565b915050610e9e565b508585858585859b509b509b509b509b509b50505050505050909192939495565b60008054906101000a900473ffffffffffffffffffffffffffffffffffffffff1673ffffffffffffffffffffffffffffffffffffffff163373ffffffffffffffffffffffffffffffffffffffff1614806113dc5750600160009054906101000a900473ffffffffffffffffffffffffffffffffffffffff1673ffffffffffffffffffffffffffffffffffffffff163373ffffffffffffffffffffffffffffffffffffffff16145b6113e557600080fd5b6113f3858585853386611493565b5050505050565b600160009054906101000a900473ffffffffffffffffffffffffffffffffffffffff1681565b60008054906101000a900473ffffffffffffffffffffffffffffffffffffffff1681565b60008060008054906101000a900473ffffffffffffffffffffffffffffffffffffffff16600160009054906101000a900473ffffffffffffffffffffffffffffffffffffffff16915091509091565b60006040518060c001604052808881526020018781526020018681526020018581526020018473ffffffffffffffffffffffffffffffffffffffff1681526020018373ffffffffffffffffffffffffffffffffffffffff16815250905060028190806001815401808255809150506001900390600052602060002090600602016000909190919091506000820151816000019080519060200190611538929190611629565b506020820151816001019080519060200190611555929190611629565b506040820151816002019080519060200190611572929190611629565b50606082015181600301908051906020019061158f929190611629565b5060808201518160040160006101000a81548173ffffffffffffffffffffffffffffffffffffffff021916908373ffffffffffffffffffffffffffffffffffffffff16021790555060a08201518160050160006101000a81548173ffffffffffffffffffffffffffffffffffffffff021916908373ffffffffffffffffffffffffffffffffffffffff160217905550505050505050505050565b82805461163590611e0d565b90600052602060002090601f016020900481019282611657576000855561169e565b82601f1061167057805160ff191683800117855561169e565b8280016001018555821561169e579182015b8281111561169d578251825591602001919060010190611682565b5b5090506116ab91906116af565b5090565b5b808211156116c85760008160009055506001016116b0565b5090565b6000604051905090565b600080fd5b600080fd5b600073ffffffffffffffffffffffffffffffffffffffff82169050919050565b600061170b826116e0565b9050919050565b61171b81611700565b811461172657600080fd5b50565b60008135905061173881611712565b92915050565b60008060408385031215611755576117546116d6565b5b600061176385828601611729565b925050602061177485828601611729565b9150509250929050565b600081519050919050565b600082825260208201905092915050565b6000819050602082019050919050565b600081519050919050565b600082825260208201905092915050565b60005b838110156117e45780820151818401526020810190506117c9565b838111156117f3576000848401525b50505050565b6000601f19601f8301169050919050565b6000611815826117aa565b61181f81856117b5565b935061182f8185602086016117c6565b611838816117f9565b840191505092915050565b600061184f838361180a565b905092915050565b6000602082019050919050565b600061186f8261177e565b6118798185611789565b93508360208202850161188b8561179a565b8060005b858110156118c757848403895281516118a88582611843565b94506118b383611857565b925060208a0199505060018101905061188f565b50829750879550505050505092915050565b600060608201905081810360008301526118f38186611864565b905081810360208301526119078185611864565b9050818103604083015261191b8184611864565b9050949350505050565b600081519050919050565b600082825260208201905092915050565b6000819050602082019050919050565b61195a81611700565b82525050565b600061196c8383611951565b60208301905092915050565b6000602082019050919050565b600061199082611925565b61199a8185611930565b93506119a583611941565b8060005b838110156119d65781516119bd8882611960565b97506119c883611978565b9250506001810190506119a9565b5085935050505092915050565b600060608201905081810360008301526119fd8186611864565b90508181036020830152611a118185611985565b90508181036040830152611a258184611985565b9050949350505050565b600060c0820190508181036000830152611a498189611864565b90508181036020830152611a5d8188611864565b90508181036040830152611a718187611864565b90508181036060830152611a858186611864565b90508181036080830152611a998185611985565b905081810360a0830152611aad8184611985565b9050979650505050505050565b600080fd5b600080fd5b7f4e487b7100000000000000000000000000000000000000000000000000000000600052604160045260246000fd5b611afc826117f9565b810181811067ffffffffffffffff82111715611b1b57611b1a611ac4565b5b80604052505050565b6000611b2e6116cc565b9050611b3a8282611af3565b919050565b600067ffffffffffffffff821115611b5a57611b59611ac4565b5b611b63826117f9565b9050602081019050919050565b82818337600083830152505050565b6000611b92611b8d84611b3f565b611b24565b905082815260208101848484011115611bae57611bad611abf565b5b611bb9848285611b70565b509392505050565b600082601f830112611bd657611bd5611aba565b5b8135611be6848260208601611b7f565b91505092915050565b600080600080600060a08688031215611c0b57611c0a6116d6565b5b600086013567ffffffffffffffff811115611c2957611c286116db565b5b611c3588828901611bc1565b955050602086013567ffffffffffffffff811115611c5657611c556116db565b5b611c6288828901611bc1565b945050604086013567ffffffffffffffff811115611c8357611c826116db565b5b611c8f88828901611bc1565b935050606086013567ffffffffffffffff811115611cb057611caf6116db565b5b611cbc88828901611bc1565b9250506080611ccd88828901611729565b9150509295509295909350565b611ce381611700565b82525050565b6000602082019050611cfe6000830184611cda565b92915050565b6000604082019050611d196000830185611cda565b611d266020830184611cda565b9392505050565b7f4e487b7100000000000000000000000000000000000000000000000000000000600052603260045260246000fd5b7f4e487b7100000000000000000000000000000000000000000000000000000000600052601160045260246000fd5b6000819050919050565b6000611da082611d8b565b91507fffffffffffffffffffffffffffffffffffffffffffffffffffffffffffffffff821415611dd357611dd2611d5c565b5b600182019050919050565b7f4e487b7100000000000000000000000000000000000000000000000000000000600052602260045260246000fd5b60006002820490506001821680611e2557607f821691505b60208210811415611e3957611e38611dde565b5b50919050565b6000611e4a82611d8b565b9150611e5583611d8b565b9250827fffffffffffffffffffffffffffffffffffffffffffffffffffffffffffffffff03821115611e8a57611e89611d5c565b5b82820190509291505056fea2646970667358221220d187f4deed7c0f58580ee05df173d3ed7044b9a6ba54186f0a0502107683019264736f6c634300080a0033a26469706673582212204ac807be0770db67415f48f9bd2de036fc208c05a202bacc7f5e6ad6ace3a45964736f6c634300080a0033",
  "immutableReferences": {},
  "source": "// SPDX-License-Identifier: MIT\npragma solidity >=0.4.21 <=0.8.13;\nimport './ShareChannel.sol';\n\ncontract FileShare {\n\n  address[] shareChannels;\n  //mapping from joined address of both users to address of deployed ShareChannel contract\n  mapping (bytes => address) userPairToChannel;\n\n  function createChannel(address _userA, address _userB) public {\n    require(\n      (msg.sender == _userA || msg.sender == _userB) &&\n      (userPairToChannel[joinAddresses(_userA, _userB)] == address(0))\n    );\n    _makeChannel(_userA, _userB);\n  }\n\n  function getChannel(address _userA, address _userB) public view returns(address) {\n    require(msg.sender == _userA || msg.sender == _userB);\n    return userPairToChannel[joinAddresses(_userA, _userB)];\n  }\n\n  function _makeChannel(address _userA, address _userB) private {\n    ShareChannel newChannel = new ShareChannel(\n      _userA,\n      _userB\n    );\n    shareChannels.push(address(newChannel));\n    userPairToChannel[joinAddresses(_userA, _userB)] = address(newChannel);\n  }\n\n  //returns a combination of two addresses as a string(non-human readable as it is encoded)\n  //since this string is unique for every two unique addresses\n  //it can be used a key in mapping to find ShareChannel contract's address\n  function joinAddresses(address _a1, address _a2) private pure returns(bytes memory) {\n    return abi.encodePacked(_a1, '_', _a2);\n  }\n\n}\n",
  "sourcePath": "/home/ranasiddharth/ShareConnect/contracts/FileShare.sol",
  "compiler": {
    "name": "solc",
    "version": "0.8.10+commit.fc410830.Emscripten.clang"
  },
  "schemaVersion": "3.4.6",
  "updatedAt": "2022-04-17T11:10:38.567Z",
  "networkType": "ethereum",
  "devdoc": {
    "kind": "dev",
    "methods": {},
    "version": 1
  },
  "userdoc": {
    "kind": "user",
    "methods": {},
    "version": 1
  }
}