{
  "contractName": "GlobalShare",
  "abi": [
    {
      "inputs": [
        {
          "internalType": "string",
          "name": "_name",
          "type": "string"
        },
        {
          "internalType": "string",
          "name": "_publicKey",
          "type": "string"
        },
        {
          "internalType": "string",
          "name": "_privateKey",
          "type": "string"
        }
      ],
      "name": "createUser",
      "outputs": [],
      "stateMutability": "nonpayable",
      "type": "function"
    },
    {
      "inputs": [],
      "name": "getUser",
      "outputs": [
        {
          "internalType": "address",
          "name": "",
          "type": "address"
        }
      ],
      "stateMutability": "view",
      "type": "function"
    },
    {
      "inputs": [],
      "name": "getUsers",
      "outputs": [
        {
          "internalType": "address[]",
          "name": "",
          "type": "address[]"
        }
      ],
      "stateMutability": "view",
      "type": "function"
    },
    {
      "inputs": [
        {
          "internalType": "address",
          "name": "",
          "type": "address"
        }
      ],
      "name": "userData",
      "outputs": [
        {
          "internalType": "address",
          "name": "",
          "type": "address"
        }
      ],
      "stateMutability": "view",
      "type": "function"
    },
    {
      "inputs": [
        {
          "internalType": "string",
          "name": "_fileName",
          "type": "string"
        },
        {
          "internalType": "string",
          "name": "_ipfsHash",
          "type": "string"
        }
      ],
      "name": "uploadFile",
      "outputs": [],
      "stateMutability": "nonpayable",
      "type": "function"
    },
    {
      "inputs": [],
      "name": "getAllFiles",
      "outputs": [
        {
          "components": [
            {
              "internalType": "string",
              "name": "fileName",
              "type": "string"
            },
            {
              "internalType": "string",
              "name": "ipfsHash",
              "type": "string"
            },
            {
              "internalType": "address",
              "name": "sender",
              "type": "address"
            }
          ],
          "internalType": "struct GlobalShare.file[]",
          "name": "",
          "type": "tuple[]"
        }
      ],
      "stateMutability": "view",
      "type": "function"
    }
  ],
  "bytecode": "0x6080604052600060035534801561001557600080fd5b50611c48806100256000396000f3fe60806040523480156200001157600080fd5b5060043610620000695760003560e01c8062ce8e3e146200006e57806359ae069b1462000090578063832880e714620000b0578063996d50bf14620000d2578063c891091314620000f2578063ff24b5d51462000128575b600080fd5b620000786200014a565b60405162000087919062000b93565b60405180910390f35b620000ae6004803603810190620000a8919062000d2d565b62000274565b005b620000ba62000320565b604051620000c9919062000df7565b60405180910390f35b620000f06004803603810190620000ea919062000e14565b62000387565b005b6200011060048036038101906200010a919062000eca565b62000432565b6040516200011f919062000df7565b60405180910390f35b6200013262000465565b604051620001419190620010bc565b60405180910390f35b6060600073ffffffffffffffffffffffffffffffffffffffff16600160003373ffffffffffffffffffffffffffffffffffffffff1673ffffffffffffffffffffffffffffffffffffffff16815260200190815260200160002060009054906101000a900473ffffffffffffffffffffffffffffffffffffffff1673ffffffffffffffffffffffffffffffffffffffff161415620001e657600080fd5b60008054806020026020016040519081016040528092919081815260200182805480156200026a57602002820191906000526020600020905b8160009054906101000a900473ffffffffffffffffffffffffffffffffffffffff1673ffffffffffffffffffffffffffffffffffffffff16815260200190600101908083116200021f575b5050505050905090565b600073ffffffffffffffffffffffffffffffffffffffff16600160003373ffffffffffffffffffffffffffffffffffffffff1673ffffffffffffffffffffffffffffffffffffffff16815260200190815260200160002060009054906101000a900473ffffffffffffffffffffffffffffffffffffffff1673ffffffffffffffffffffffffffffffffffffffff16146200030d57600080fd5b6200031b3384848462000769565b505050565b6000600160003373ffffffffffffffffffffffffffffffffffffffff1673ffffffffffffffffffffffffffffffffffffffff16815260200190815260200160002060009054906101000a900473ffffffffffffffffffffffffffffffffffffffff16905090565b600073ffffffffffffffffffffffffffffffffffffffff16600160003373ffffffffffffffffffffffffffffffffffffffff1673ffffffffffffffffffffffffffffffffffffffff16815260200190815260200160002060009054906101000a900473ffffffffffffffffffffffffffffffffffffffff1673ffffffffffffffffffffffffffffffffffffffff1614156200042157600080fd5b6200042e82823362000894565b5050565b60016020528060005260406000206000915054906101000a900473ffffffffffffffffffffffffffffffffffffffff1681565b6060600073ffffffffffffffffffffffffffffffffffffffff16600160003373ffffffffffffffffffffffffffffffffffffffff1673ffffffffffffffffffffffffffffffffffffffff16815260200190815260200160002060009054906101000a900473ffffffffffffffffffffffffffffffffffffffff1673ffffffffffffffffffffffffffffffffffffffff1614156200050157600080fd5b600060035467ffffffffffffffff81111562000522576200052162000be6565b5b6040519080825280602002602001820160405280156200055f57816020015b6200054b6200099c565b815260200190600190039081620005415790505b50905060005b600354811015620007615760028181548110620005875762000586620010e0565b5b9060005260206000209060030201604051806060016040529081600082018054620005b2906200113e565b80601f0160208091040260200160405190810160405280929190818152602001828054620005e0906200113e565b8015620006315780601f10620006055761010080835404028352916020019162000631565b820191906000526020600020905b8154815290600101906020018083116200061357829003601f168201915b505050505081526020016001820180546200064c906200113e565b80601f01602080910402602001604051908101604052809291908181526020018280546200067a906200113e565b8015620006cb5780601f106200069f57610100808354040283529160200191620006cb565b820191906000526020600020905b815481529060010190602001808311620006ad57829003601f168201915b505050505081526020016002820160009054906101000a900473ffffffffffffffffffffffffffffffffffffffff1673ffffffffffffffffffffffffffffffffffffffff1673ffffffffffffffffffffffffffffffffffffffff168152505082828151811062000740576200073f620010e0565b5b602002602001018190525080806200075890620011ad565b91505062000565565b508091505090565b6000848484846040516200077d90620009d3565b6200078c94939291906200124d565b604051809103906000f080158015620007a9573d6000803e3d6000fd5b5090506000339080600181540180825580915050600190039060005260206000200160009091909190916101000a81548173ffffffffffffffffffffffffffffffffffffffff021916908373ffffffffffffffffffffffffffffffffffffffff16021790555080600160003373ffffffffffffffffffffffffffffffffffffffff1673ffffffffffffffffffffffffffffffffffffffff16815260200190815260200160002060006101000a81548173ffffffffffffffffffffffffffffffffffffffff021916908373ffffffffffffffffffffffffffffffffffffffff1602179055505050505050565b600060405180606001604052808581526020018481526020018373ffffffffffffffffffffffffffffffffffffffff1681525090506002819080600181540180825580915050600190039060005260206000209060030201600090919091909150600082015181600001908051906020019062000913929190620009e1565b50602082015181600101908051906020019062000932929190620009e1565b5060408201518160020160006101000a81548173ffffffffffffffffffffffffffffffffffffffff021916908373ffffffffffffffffffffffffffffffffffffffff1602179055505050600360008154809291906200099190620011ad565b919050555050505050565b60405180606001604052806060815260200160608152602001600073ffffffffffffffffffffffffffffffffffffffff1681525090565b61096380620012b083390190565b828054620009ef906200113e565b90600052602060002090601f01602090048101928262000a13576000855562000a5f565b82601f1062000a2e57805160ff191683800117855562000a5f565b8280016001018555821562000a5f579182015b8281111562000a5e57825182559160200191906001019062000a41565b5b50905062000a6e919062000a72565b5090565b5b8082111562000a8d57600081600090555060010162000a73565b5090565b600081519050919050565b600082825260208201905092915050565b6000819050602082019050919050565b600073ffffffffffffffffffffffffffffffffffffffff82169050919050565b600062000aea8262000abd565b9050919050565b62000afc8162000add565b82525050565b600062000b10838362000af1565b60208301905092915050565b6000602082019050919050565b600062000b368262000a91565b62000b42818562000a9c565b935062000b4f8362000aad565b8060005b8381101562000b8657815162000b6a888262000b02565b975062000b778362000b1c565b92505060018101905062000b53565b5085935050505092915050565b6000602082019050818103600083015262000baf818462000b29565b905092915050565b6000604051905090565b600080fd5b600080fd5b600080fd5b600080fd5b6000601f19601f8301169050919050565b7f4e487b7100000000000000000000000000000000000000000000000000000000600052604160045260246000fd5b62000c208262000bd5565b810181811067ffffffffffffffff8211171562000c425762000c4162000be6565b5b80604052505050565b600062000c5762000bb7565b905062000c65828262000c15565b919050565b600067ffffffffffffffff82111562000c885762000c8762000be6565b5b62000c938262000bd5565b9050602081019050919050565b82818337600083830152505050565b600062000cc662000cc08462000c6a565b62000c4b565b90508281526020810184848401111562000ce55762000ce462000bd0565b5b62000cf284828562000ca0565b509392505050565b600082601f83011262000d125762000d1162000bcb565b5b813562000d2484826020860162000caf565b91505092915050565b60008060006060848603121562000d495762000d4862000bc1565b5b600084013567ffffffffffffffff81111562000d6a5762000d6962000bc6565b5b62000d788682870162000cfa565b935050602084013567ffffffffffffffff81111562000d9c5762000d9b62000bc6565b5b62000daa8682870162000cfa565b925050604084013567ffffffffffffffff81111562000dce5762000dcd62000bc6565b5b62000ddc8682870162000cfa565b9150509250925092565b62000df18162000add565b82525050565b600060208201905062000e0e600083018462000de6565b92915050565b6000806040838503121562000e2e5762000e2d62000bc1565b5b600083013567ffffffffffffffff81111562000e4f5762000e4e62000bc6565b5b62000e5d8582860162000cfa565b925050602083013567ffffffffffffffff81111562000e815762000e8062000bc6565b5b62000e8f8582860162000cfa565b9150509250929050565b62000ea48162000add565b811462000eb057600080fd5b50565b60008135905062000ec48162000e99565b92915050565b60006020828403121562000ee35762000ee262000bc1565b5b600062000ef38482850162000eb3565b91505092915050565b600081519050919050565b600082825260208201905092915050565b6000819050602082019050919050565b600081519050919050565b600082825260208201905092915050565b60005b8381101562000f6457808201518184015260208101905062000f47565b8381111562000f74576000848401525b50505050565b600062000f878262000f28565b62000f93818562000f33565b935062000fa581856020860162000f44565b62000fb08162000bd5565b840191505092915050565b6000606083016000830151848203600086015262000fda828262000f7a565b9150506020830151848203602086015262000ff6828262000f7a565b91505060408301516200100d604086018262000af1565b508091505092915050565b600062001026838362000fbb565b905092915050565b6000602082019050919050565b6000620010488262000efc565b62001054818562000f07565b935083602082028501620010688562000f18565b8060005b85811015620010aa578484038952815162001088858262001018565b945062001095836200102e565b925060208a019950506001810190506200106c565b50829750879550505050505092915050565b60006020820190508181036000830152620010d881846200103b565b905092915050565b7f4e487b7100000000000000000000000000000000000000000000000000000000600052603260045260246000fd5b7f4e487b7100000000000000000000000000000000000000000000000000000000600052602260045260246000fd5b600060028204905060018216806200115757607f821691505b602082108114156200116e576200116d6200110f565b5b50919050565b7f4e487b7100000000000000000000000000000000000000000000000000000000600052601160045260246000fd5b6000819050919050565b6000620011ba82620011a3565b91507fffffffffffffffffffffffffffffffffffffffffffffffffffffffffffffffff821415620011f057620011ef62001174565b5b600182019050919050565b600082825260208201905092915050565b6000620012198262000f28565b620012258185620011fb565b93506200123781856020860162000f44565b620012428162000bd5565b840191505092915050565b600060808201905062001264600083018762000de6565b81810360208301526200127881866200120c565b905081810360408301526200128e81856200120c565b90508181036060830152620012a481846200120c565b90509594505050505056fe60806040523480156200001157600080fd5b50604051620009633803806200096383398181016040528101906200003791906200037e565b836000806101000a81548173ffffffffffffffffffffffffffffffffffffffff021916908373ffffffffffffffffffffffffffffffffffffffff16021790555082600190805190602001906200008f929190620000cc565b508160039080519060200190620000a8929190620000cc565b508060029080519060200190620000c1929190620000cc565b5050505050620004b2565b828054620000da906200047c565b90600052602060002090601f016020900481019282620000fe57600085556200014a565b82601f106200011957805160ff19168380011785556200014a565b828001600101855582156200014a579182015b82811115620001495782518255916020019190600101906200012c565b5b5090506200015991906200015d565b5090565b5b80821115620001785760008160009055506001016200015e565b5090565b6000604051905090565b600080fd5b600080fd5b600073ffffffffffffffffffffffffffffffffffffffff82169050919050565b6000620001bd8262000190565b9050919050565b620001cf81620001b0565b8114620001db57600080fd5b50565b600081519050620001ef81620001c4565b92915050565b600080fd5b600080fd5b6000601f19601f8301169050919050565b7f4e487b7100000000000000000000000000000000000000000000000000000000600052604160045260246000fd5b6200024a82620001ff565b810181811067ffffffffffffffff821117156200026c576200026b62000210565b5b80604052505050565b6000620002816200017c565b90506200028f82826200023f565b919050565b600067ffffffffffffffff821115620002b257620002b162000210565b5b620002bd82620001ff565b9050602081019050919050565b60005b83811015620002ea578082015181840152602081019050620002cd565b83811115620002fa576000848401525b50505050565b600062000317620003118462000294565b62000275565b905082815260208101848484011115620003365762000335620001fa565b5b62000343848285620002ca565b509392505050565b600082601f830112620003635762000362620001f5565b5b81516200037584826020860162000300565b91505092915050565b600080600080608085870312156200039b576200039a62000186565b5b6000620003ab87828801620001de565b945050602085015167ffffffffffffffff811115620003cf57620003ce6200018b565b5b620003dd878288016200034b565b935050604085015167ffffffffffffffff8111156200040157620004006200018b565b5b6200040f878288016200034b565b925050606085015167ffffffffffffffff8111156200043357620004326200018b565b5b62000441878288016200034b565b91505092959194509250565b7f4e487b7100000000000000000000000000000000000000000000000000000000600052602260045260246000fd5b600060028204905060018216806200049557607f821691505b60208210811415620004ac57620004ab6200044d565b5b50919050565b6104a180620004c26000396000f3fe608060405234801561001057600080fd5b506004361061004c5760003560e01c806306fdde031461005157806361f0b25f1461006f57806363ffab311461008d578063e4128fb3146100ab575b600080fd5b6100596100c9565b604051610066919061038c565b60405180910390f35b610077610157565b604051610084919061038c565b60405180910390f35b610095610241565b6040516100a2919061038c565b60405180910390f35b6100b36102cf565b6040516100c091906103ef565b60405180910390f35b600180546100d690610439565b80601f016020809104026020016040519081016040528092919081815260200182805461010290610439565b801561014f5780601f106101245761010080835404028352916020019161014f565b820191906000526020600020905b81548152906001019060200180831161013257829003601f168201915b505050505081565b60603373ffffffffffffffffffffffffffffffffffffffff1660008054906101000a900473ffffffffffffffffffffffffffffffffffffffff1673ffffffffffffffffffffffffffffffffffffffff16146101b157600080fd5b600280546101be90610439565b80601f01602080910402602001604051908101604052809291908181526020018280546101ea90610439565b80156102375780601f1061020c57610100808354040283529160200191610237565b820191906000526020600020905b81548152906001019060200180831161021a57829003601f168201915b5050505050905090565b6003805461024e90610439565b80601f016020809104026020016040519081016040528092919081815260200182805461027a90610439565b80156102c75780601f1061029c576101008083540402835291602001916102c7565b820191906000526020600020905b8154815290600101906020018083116102aa57829003601f168201915b505050505081565b60008054906101000a900473ffffffffffffffffffffffffffffffffffffffff1681565b600081519050919050565b600082825260208201905092915050565b60005b8381101561032d578082015181840152602081019050610312565b8381111561033c576000848401525b50505050565b6000601f19601f8301169050919050565b600061035e826102f3565b61036881856102fe565b935061037881856020860161030f565b61038181610342565b840191505092915050565b600060208201905081810360008301526103a68184610353565b905092915050565b600073ffffffffffffffffffffffffffffffffffffffff82169050919050565b60006103d9826103ae565b9050919050565b6103e9816103ce565b82525050565b600060208201905061040460008301846103e0565b92915050565b7f4e487b7100000000000000000000000000000000000000000000000000000000600052602260045260246000fd5b6000600282049050600182168061045157607f821691505b602082108114156104655761046461040a565b5b5091905056fea26469706673582212202e0e6f2c4f3556f14d73126f4dd10056d0362ace291157cbb3641ca663eac05b64736f6c634300080a0033a2646970667358221220c0308b671bf719a3699cc6f5d7e78a27d628adb8711f89e8d907948de81cab2264736f6c634300080a0033",
  "immutableReferences": {},
  "source": "// SPDX-License-Identifier: MIT\npragma solidity >=0.4.21 <=0.8.13;\n\nimport './UserStorage.sol';\n\ncontract GlobalShare is UserStorage {\n\n  struct file {\n    string fileName;\n    string ipfsHash;\n    address sender;\n  }\n  file[] sharedFiles;\n  uint sharedFileSize = 0;\n\n  function uploadFile(\n    string memory _fileName,\n    string memory _ipfsHash\n  ) public isRegistered {\n    _addFile(_fileName, _ipfsHash, msg.sender);\n  }\n  \n  function getAllFiles() public view isRegistered returns(file[] memory){\n    file[] memory files = new file[](sharedFileSize);\n    for (uint i = 0; i< sharedFileSize; i++) {\n      files[i] = sharedFiles[i];\n    }\n    return files;\n  }\n\n  function _addFile(string memory _fileName, string memory _ipfsHash, address _sender) private  {\n    file memory newFile = file({\n      fileName: _fileName,\n      ipfsHash: _ipfsHash,\n      sender: _sender\n    });\n    sharedFiles.push(newFile);\n    sharedFileSize++;\n  }\n}\n",
  "sourcePath": "/home/ranasiddharth/ShareConnect/contracts/GlobalShare.sol",
  "compiler": {
    "name": "solc",
    "version": "0.8.10+commit.fc410830.Emscripten.clang"
  },
  "schemaVersion": "3.4.6",
  "updatedAt": "2022-04-10T10:27:01.139Z",
  "devdoc": {
    "kind": "dev",
    "methods": {},
    "version": 1
  },
  "userdoc": {
    "kind": "user",
    "methods": {},
    "version": 1
  }
}