{
  "contractName": "GlobalShare",
  "abi": [
    {
      "inputs": [
        {
          "internalType": "string",
          "name": "_fileName",
          "type": "string"
        },
        {
          "internalType": "string",
          "name": "_ipfsHash",
          "type": "string"
        }
      ],
      "name": "uploadFile",
      "outputs": [],
      "stateMutability": "nonpayable",
      "type": "function"
    },
    {
      "inputs": [],
      "name": "getAllFiles",
      "outputs": [
        {
          "internalType": "string[]",
          "name": "",
          "type": "string[]"
        },
        {
          "internalType": "string[]",
          "name": "",
          "type": "string[]"
        },
        {
          "internalType": "address[]",
          "name": "",
          "type": "address[]"
        }
      ],
      "stateMutability": "view",
      "type": "function",
      "constant": true
    }
  ],
  "bytecode": "0x608060405234801561001057600080fd5b50610b15806100206000396000f3fe608060405234801561001057600080fd5b50600436106100365760003560e01c8063996d50bf1461003b578063ff24b5d514610057575b600080fd5b610055600480360381019061005091906106cf565b610077565b005b61005f610086565b60405161006e93929190610981565b60405180910390f35b6100828282336103e8565b5050565b60608060606000808054905067ffffffffffffffff8111156100ab576100aa6105a4565b5b6040519080825280602002602001820160405280156100de57816020015b60608152602001906001900390816100c95790505b5090506000808054905067ffffffffffffffff811115610101576101006105a4565b5b60405190808252806020026020018201604052801561013457816020015b606081526020019060019003908161011f5790505b5090506000808054905067ffffffffffffffff811115610157576101566105a4565b5b6040519080825280602002602001820160405280156101855781602001602082028036833780820191505090505b50905060005b6000805490508110156103d657600081815481106101ac576101ab6109cd565b5b906000526020600020906003020160000180546101c890610a2b565b80601f01602080910402602001604051908101604052809291908181526020018280546101f490610a2b565b80156102415780601f1061021657610100808354040283529160200191610241565b820191906000526020600020905b81548152906001019060200180831161022457829003601f168201915b5050505050848281518110610259576102586109cd565b5b602002602001018190525060008181548110610278576102776109cd565b5b9060005260206000209060030201600101805461029490610a2b565b80601f01602080910402602001604051908101604052809291908181526020018280546102c090610a2b565b801561030d5780601f106102e25761010080835404028352916020019161030d565b820191906000526020600020905b8154815290600101906020018083116102f057829003601f168201915b5050505050838281518110610325576103246109cd565b5b602002602001018190525060008181548110610344576103436109cd565b5b906000526020600020906003020160020160009054906101000a900473ffffffffffffffffffffffffffffffffffffffff16828281518110610389576103886109cd565b5b602002602001019073ffffffffffffffffffffffffffffffffffffffff16908173ffffffffffffffffffffffffffffffffffffffff168152505080806103ce90610a96565b91505061018b565b50828282955095509550505050909192565b600060405180606001604052808581526020018481526020018373ffffffffffffffffffffffffffffffffffffffff168152509050600081908060018154018082558091505060019003906000526020600020906003020160009091909190915060008201518160000190805190602001906104659291906104d2565b5060208201518160010190805190602001906104829291906104d2565b5060408201518160020160006101000a81548173ffffffffffffffffffffffffffffffffffffffff021916908373ffffffffffffffffffffffffffffffffffffffff160217905550505050505050565b8280546104de90610a2b565b90600052602060002090601f0160209004810192826105005760008555610547565b82601f1061051957805160ff1916838001178555610547565b82800160010185558215610547579182015b8281111561054657825182559160200191906001019061052b565b5b5090506105549190610558565b5090565b5b80821115610571576000816000905550600101610559565b5090565b6000604051905090565b600080fd5b600080fd5b600080fd5b600080fd5b6000601f19601f8301169050919050565b7f4e487b7100000000000000000000000000000000000000000000000000000000600052604160045260246000fd5b6105dc82610593565b810181811067ffffffffffffffff821117156105fb576105fa6105a4565b5b80604052505050565b600061060e610575565b905061061a82826105d3565b919050565b600067ffffffffffffffff82111561063a576106396105a4565b5b61064382610593565b9050602081019050919050565b82818337600083830152505050565b600061067261066d8461061f565b610604565b90508281526020810184848401111561068e5761068d61058e565b5b610699848285610650565b509392505050565b600082601f8301126106b6576106b5610589565b5b81356106c684826020860161065f565b91505092915050565b600080604083850312156106e6576106e561057f565b5b600083013567ffffffffffffffff81111561070457610703610584565b5b610710858286016106a1565b925050602083013567ffffffffffffffff81111561073157610730610584565b5b61073d858286016106a1565b9150509250929050565b600081519050919050565b600082825260208201905092915050565b6000819050602082019050919050565b600081519050919050565b600082825260208201905092915050565b60005b838110156107ad578082015181840152602081019050610792565b838111156107bc576000848401525b50505050565b60006107cd82610773565b6107d7818561077e565b93506107e781856020860161078f565b6107f081610593565b840191505092915050565b600061080783836107c2565b905092915050565b6000602082019050919050565b600061082782610747565b6108318185610752565b93508360208202850161084385610763565b8060005b8581101561087f578484038952815161086085826107fb565b945061086b8361080f565b925060208a01995050600181019050610847565b50829750879550505050505092915050565b600081519050919050565b600082825260208201905092915050565b6000819050602082019050919050565b600073ffffffffffffffffffffffffffffffffffffffff82169050919050565b60006108e8826108bd565b9050919050565b6108f8816108dd565b82525050565b600061090a83836108ef565b60208301905092915050565b6000602082019050919050565b600061092e82610891565b610938818561089c565b9350610943836108ad565b8060005b8381101561097457815161095b88826108fe565b975061096683610916565b925050600181019050610947565b5085935050505092915050565b6000606082019050818103600083015261099b818661081c565b905081810360208301526109af818561081c565b905081810360408301526109c38184610923565b9050949350505050565b7f4e487b7100000000000000000000000000000000000000000000000000000000600052603260045260246000fd5b7f4e487b7100000000000000000000000000000000000000000000000000000000600052602260045260246000fd5b60006002820490506001821680610a4357607f821691505b60208210811415610a5757610a566109fc565b5b50919050565b7f4e487b7100000000000000000000000000000000000000000000000000000000600052601160045260246000fd5b6000819050919050565b6000610aa182610a8c565b91507fffffffffffffffffffffffffffffffffffffffffffffffffffffffffffffffff821415610ad457610ad3610a5d565b5b60018201905091905056fea2646970667358221220a10c41d7e80ee4d7610060bea133e33d35b1c6c219ae15b5dbacd3bd17a2c7f664736f6c634300080a0033",
  "immutableReferences": {},
  "source": "// SPDX-License-Identifier: MIT\npragma solidity >=0.4.21 <=0.8.13;\n\nimport './UserStorage.sol';\n\ncontract GlobalShare {\n\n  struct file {\n    string fileName;\n    string ipfsHash;\n    address sender;\n  }\n  file[] sharedFiles;\n\n  function uploadFile(\n    string memory _fileName,\n    string memory _ipfsHash\n  ) public {\n    _addFile(_fileName, _ipfsHash, msg.sender);\n  }\n  \n  function getAllFiles() public view returns(string[] memory, string[] memory, address[] memory){\n    // file[] memory files = new file[](sharedFileSize);\n    // for (uint i = 0; i< sharedFileSize; i++) {\n    //   files[i] = sharedFiles[i];\n    // }\n    // return files;\n    string[] memory fileName = new string[](sharedFiles.length);\n    string[] memory ipfsHash = new string[](sharedFiles.length);\n    address[] memory sender = new address[](sharedFiles.length);\n    for (uint i = 0; i < sharedFiles.length; i++) {\n        fileName[i] = sharedFiles[i].fileName;\n        ipfsHash[i] = sharedFiles[i].ipfsHash;\n        sender[i] = sharedFiles[i].sender;\n    }\n    return (fileName,ipfsHash,sender);\n    // return \"makk\";\n  }\n\n  function _addFile(string memory _fileName, string memory _ipfsHash, address _sender) private  {\n    file memory newFile = file({\n      fileName: _fileName,\n      ipfsHash: _ipfsHash,\n      sender: _sender\n    });\n    sharedFiles.push(newFile);\n  }\n}\n",
  "sourcePath": "/home/ranasiddharth/ShareConnect/contracts/GlobalShare.sol",
  "compiler": {
    "name": "solc",
    "version": "0.8.10+commit.fc410830.Emscripten.clang"
  },
  "schemaVersion": "3.4.6",
  "updatedAt": "2022-04-12T06:15:31.317Z",
  "networkType": "ethereum",
  "devdoc": {
    "kind": "dev",
    "methods": {},
    "version": 1
  },
  "userdoc": {
    "kind": "user",
    "methods": {},
    "version": 1
  }
}