{
  "contractName": "GlobalShare",
  "abi": [
    {
      "inputs": [
        {
          "internalType": "string",
          "name": "_name",
          "type": "string"
        },
        {
          "internalType": "string",
          "name": "_publicKey",
          "type": "string"
        },
        {
          "internalType": "string",
          "name": "_privateKey",
          "type": "string"
        }
      ],
      "name": "createUser",
      "outputs": [],
      "stateMutability": "nonpayable",
      "type": "function"
    },
    {
      "inputs": [],
      "name": "getUser",
      "outputs": [
        {
          "internalType": "address",
          "name": "",
          "type": "address"
        }
      ],
      "stateMutability": "view",
      "type": "function"
    },
    {
      "inputs": [],
      "name": "getUsers",
      "outputs": [
        {
          "internalType": "address[]",
          "name": "",
          "type": "address[]"
        }
      ],
      "stateMutability": "view",
      "type": "function"
    },
    {
      "inputs": [
        {
          "internalType": "address",
          "name": "",
          "type": "address"
        }
      ],
      "name": "userData",
      "outputs": [
        {
          "internalType": "address",
          "name": "",
          "type": "address"
        }
      ],
      "stateMutability": "view",
      "type": "function"
    },
    {
      "inputs": [
        {
          "internalType": "string",
          "name": "_fileName",
          "type": "string"
        },
        {
          "internalType": "string",
          "name": "_ipfsHash",
          "type": "string"
        }
      ],
      "name": "uploadFile",
      "outputs": [],
      "stateMutability": "nonpayable",
      "type": "function"
    },
    {
      "inputs": [],
      "name": "getAllFiles",
      "outputs": [
        {
          "components": [
            {
              "internalType": "string",
              "name": "fileName",
              "type": "string"
            },
            {
              "internalType": "string",
              "name": "ipfsHash",
              "type": "string"
            },
            {
              "internalType": "address",
              "name": "sender",
              "type": "address"
            }
          ],
          "internalType": "struct GlobalShare.file[]",
          "name": "",
          "type": "tuple[]"
        }
      ],
      "stateMutability": "view",
      "type": "function"
    }
  ],
  "bytecode": "0x608060405234801561001057600080fd5b50611ab0806100206000396000f3fe60806040523480156200001157600080fd5b5060043610620000695760003560e01c8062ce8e3e146200006e57806359ae069b1462000090578063832880e714620000b0578063996d50bf14620000d2578063c891091314620000f2578063ff24b5d51462000128575b600080fd5b620000786200014a565b60405162000087919062000ab1565b60405180910390f35b620000ae6004803603810190620000a8919062000c4b565b62000274565b005b620000ba62000320565b604051620000c9919062000d15565b60405180910390f35b620000f06004803603810190620000ea919062000d32565b62000387565b005b6200011060048036038101906200010a919062000de8565b6200050e565b6040516200011f919062000d15565b60405180910390f35b6200013262000541565b60405162000141919062000fda565b60405180910390f35b6060600073ffffffffffffffffffffffffffffffffffffffff16600160003373ffffffffffffffffffffffffffffffffffffffff1673ffffffffffffffffffffffffffffffffffffffff16815260200190815260200160002060009054906101000a900473ffffffffffffffffffffffffffffffffffffffff1673ffffffffffffffffffffffffffffffffffffffff161415620001e657600080fd5b60008054806020026020016040519081016040528092919081815260200182805480156200026a57602002820191906000526020600020905b8160009054906101000a900473ffffffffffffffffffffffffffffffffffffffff1673ffffffffffffffffffffffffffffffffffffffff16815260200190600101908083116200021f575b5050505050905090565b600073ffffffffffffffffffffffffffffffffffffffff16600160003373ffffffffffffffffffffffffffffffffffffffff1673ffffffffffffffffffffffffffffffffffffffff16815260200190815260200160002060009054906101000a900473ffffffffffffffffffffffffffffffffffffffff1673ffffffffffffffffffffffffffffffffffffffff16146200030d57600080fd5b6200031b33848484620007c6565b505050565b6000600160003373ffffffffffffffffffffffffffffffffffffffff1673ffffffffffffffffffffffffffffffffffffffff16815260200190815260200160002060009054906101000a900473ffffffffffffffffffffffffffffffffffffffff16905090565b600073ffffffffffffffffffffffffffffffffffffffff16600160003373ffffffffffffffffffffffffffffffffffffffff1673ffffffffffffffffffffffffffffffffffffffff16815260200190815260200160002060009054906101000a900473ffffffffffffffffffffffffffffffffffffffff1673ffffffffffffffffffffffffffffffffffffffff1614156200042157600080fd5b600060405180606001604052808481526020018381526020013373ffffffffffffffffffffffffffffffffffffffff16815250905060028190806001815401808255809150506001900390600052602060002090600302016000909190919091506000820151816000019080519060200190620004a0929190620008f1565b506020820151816001019080519060200190620004bf929190620008f1565b5060408201518160020160006101000a81548173ffffffffffffffffffffffffffffffffffffffff021916908373ffffffffffffffffffffffffffffffffffffffff1602179055505050505050565b60016020528060005260406000206000915054906101000a900473ffffffffffffffffffffffffffffffffffffffff1681565b6060600073ffffffffffffffffffffffffffffffffffffffff16600160003373ffffffffffffffffffffffffffffffffffffffff1673ffffffffffffffffffffffffffffffffffffffff16815260200190815260200160002060009054906101000a900473ffffffffffffffffffffffffffffffffffffffff1673ffffffffffffffffffffffffffffffffffffffff161415620005dd57600080fd5b6002805480602002602001604051908101604052809291908181526020016000905b82821015620007bd578382906000526020600020906003020160405180606001604052908160008201805462000635906200102d565b80601f016020809104026020016040519081016040528092919081815260200182805462000663906200102d565b8015620006b45780601f106200068857610100808354040283529160200191620006b4565b820191906000526020600020905b8154815290600101906020018083116200069657829003601f168201915b50505050508152602001600182018054620006cf906200102d565b80601f0160208091040260200160405190810160405280929190818152602001828054620006fd906200102d565b80156200074e5780601f1062000722576101008083540402835291602001916200074e565b820191906000526020600020905b8154815290600101906020018083116200073057829003601f168201915b505050505081526020016002820160009054906101000a900473ffffffffffffffffffffffffffffffffffffffff1673ffffffffffffffffffffffffffffffffffffffff1673ffffffffffffffffffffffffffffffffffffffff168152505081526020019060010190620005ff565b50505050905090565b600084848484604051620007da9062000982565b620007e99493929190620010b5565b604051809103906000f08015801562000806573d6000803e3d6000fd5b5090506000339080600181540180825580915050600190039060005260206000200160009091909190916101000a81548173ffffffffffffffffffffffffffffffffffffffff021916908373ffffffffffffffffffffffffffffffffffffffff16021790555080600160003373ffffffffffffffffffffffffffffffffffffffff1673ffffffffffffffffffffffffffffffffffffffff16815260200190815260200160002060006101000a81548173ffffffffffffffffffffffffffffffffffffffff021916908373ffffffffffffffffffffffffffffffffffffffff1602179055505050505050565b828054620008ff906200102d565b90600052602060002090601f0160209004810192826200092357600085556200096f565b82601f106200093e57805160ff19168380011785556200096f565b828001600101855582156200096f579182015b828111156200096e57825182559160200191906001019062000951565b5b5090506200097e919062000990565b5090565b610963806200111883390190565b5b80821115620009ab57600081600090555060010162000991565b5090565b600081519050919050565b600082825260208201905092915050565b6000819050602082019050919050565b600073ffffffffffffffffffffffffffffffffffffffff82169050919050565b600062000a0882620009db565b9050919050565b62000a1a81620009fb565b82525050565b600062000a2e838362000a0f565b60208301905092915050565b6000602082019050919050565b600062000a5482620009af565b62000a608185620009ba565b935062000a6d83620009cb565b8060005b8381101562000aa457815162000a88888262000a20565b975062000a958362000a3a565b92505060018101905062000a71565b5085935050505092915050565b6000602082019050818103600083015262000acd818462000a47565b905092915050565b6000604051905090565b600080fd5b600080fd5b600080fd5b600080fd5b6000601f19601f8301169050919050565b7f4e487b7100000000000000000000000000000000000000000000000000000000600052604160045260246000fd5b62000b3e8262000af3565b810181811067ffffffffffffffff8211171562000b605762000b5f62000b04565b5b80604052505050565b600062000b7562000ad5565b905062000b83828262000b33565b919050565b600067ffffffffffffffff82111562000ba65762000ba562000b04565b5b62000bb18262000af3565b9050602081019050919050565b82818337600083830152505050565b600062000be462000bde8462000b88565b62000b69565b90508281526020810184848401111562000c035762000c0262000aee565b5b62000c1084828562000bbe565b509392505050565b600082601f83011262000c305762000c2f62000ae9565b5b813562000c4284826020860162000bcd565b91505092915050565b60008060006060848603121562000c675762000c6662000adf565b5b600084013567ffffffffffffffff81111562000c885762000c8762000ae4565b5b62000c968682870162000c18565b935050602084013567ffffffffffffffff81111562000cba5762000cb962000ae4565b5b62000cc88682870162000c18565b925050604084013567ffffffffffffffff81111562000cec5762000ceb62000ae4565b5b62000cfa8682870162000c18565b9150509250925092565b62000d0f81620009fb565b82525050565b600060208201905062000d2c600083018462000d04565b92915050565b6000806040838503121562000d4c5762000d4b62000adf565b5b600083013567ffffffffffffffff81111562000d6d5762000d6c62000ae4565b5b62000d7b8582860162000c18565b925050602083013567ffffffffffffffff81111562000d9f5762000d9e62000ae4565b5b62000dad8582860162000c18565b9150509250929050565b62000dc281620009fb565b811462000dce57600080fd5b50565b60008135905062000de28162000db7565b92915050565b60006020828403121562000e015762000e0062000adf565b5b600062000e118482850162000dd1565b91505092915050565b600081519050919050565b600082825260208201905092915050565b6000819050602082019050919050565b600081519050919050565b600082825260208201905092915050565b60005b8381101562000e8257808201518184015260208101905062000e65565b8381111562000e92576000848401525b50505050565b600062000ea58262000e46565b62000eb1818562000e51565b935062000ec381856020860162000e62565b62000ece8162000af3565b840191505092915050565b6000606083016000830151848203600086015262000ef8828262000e98565b9150506020830151848203602086015262000f14828262000e98565b915050604083015162000f2b604086018262000a0f565b508091505092915050565b600062000f44838362000ed9565b905092915050565b6000602082019050919050565b600062000f668262000e1a565b62000f72818562000e25565b93508360208202850162000f868562000e36565b8060005b8581101562000fc8578484038952815162000fa6858262000f36565b945062000fb38362000f4c565b925060208a0199505060018101905062000f8a565b50829750879550505050505092915050565b6000602082019050818103600083015262000ff6818462000f59565b905092915050565b7f4e487b7100000000000000000000000000000000000000000000000000000000600052602260045260246000fd5b600060028204905060018216806200104657607f821691505b602082108114156200105d576200105c62000ffe565b5b50919050565b600082825260208201905092915050565b6000620010818262000e46565b6200108d818562001063565b93506200109f81856020860162000e62565b620010aa8162000af3565b840191505092915050565b6000608082019050620010cc600083018762000d04565b8181036020830152620010e0818662001074565b90508181036040830152620010f6818562001074565b905081810360608301526200110c818462001074565b90509594505050505056fe60806040523480156200001157600080fd5b50604051620009633803806200096383398181016040528101906200003791906200037e565b836000806101000a81548173ffffffffffffffffffffffffffffffffffffffff021916908373ffffffffffffffffffffffffffffffffffffffff16021790555082600190805190602001906200008f929190620000cc565b508160039080519060200190620000a8929190620000cc565b508060029080519060200190620000c1929190620000cc565b5050505050620004b2565b828054620000da906200047c565b90600052602060002090601f016020900481019282620000fe57600085556200014a565b82601f106200011957805160ff19168380011785556200014a565b828001600101855582156200014a579182015b82811115620001495782518255916020019190600101906200012c565b5b5090506200015991906200015d565b5090565b5b80821115620001785760008160009055506001016200015e565b5090565b6000604051905090565b600080fd5b600080fd5b600073ffffffffffffffffffffffffffffffffffffffff82169050919050565b6000620001bd8262000190565b9050919050565b620001cf81620001b0565b8114620001db57600080fd5b50565b600081519050620001ef81620001c4565b92915050565b600080fd5b600080fd5b6000601f19601f8301169050919050565b7f4e487b7100000000000000000000000000000000000000000000000000000000600052604160045260246000fd5b6200024a82620001ff565b810181811067ffffffffffffffff821117156200026c576200026b62000210565b5b80604052505050565b6000620002816200017c565b90506200028f82826200023f565b919050565b600067ffffffffffffffff821115620002b257620002b162000210565b5b620002bd82620001ff565b9050602081019050919050565b60005b83811015620002ea578082015181840152602081019050620002cd565b83811115620002fa576000848401525b50505050565b600062000317620003118462000294565b62000275565b905082815260208101848484011115620003365762000335620001fa565b5b62000343848285620002ca565b509392505050565b600082601f830112620003635762000362620001f5565b5b81516200037584826020860162000300565b91505092915050565b600080600080608085870312156200039b576200039a62000186565b5b6000620003ab87828801620001de565b945050602085015167ffffffffffffffff811115620003cf57620003ce6200018b565b5b620003dd878288016200034b565b935050604085015167ffffffffffffffff8111156200040157620004006200018b565b5b6200040f878288016200034b565b925050606085015167ffffffffffffffff8111156200043357620004326200018b565b5b62000441878288016200034b565b91505092959194509250565b7f4e487b7100000000000000000000000000000000000000000000000000000000600052602260045260246000fd5b600060028204905060018216806200049557607f821691505b60208210811415620004ac57620004ab6200044d565b5b50919050565b6104a180620004c26000396000f3fe608060405234801561001057600080fd5b506004361061004c5760003560e01c806306fdde031461005157806361f0b25f1461006f57806363ffab311461008d578063e4128fb3146100ab575b600080fd5b6100596100c9565b604051610066919061038c565b60405180910390f35b610077610157565b604051610084919061038c565b60405180910390f35b610095610241565b6040516100a2919061038c565b60405180910390f35b6100b36102cf565b6040516100c091906103ef565b60405180910390f35b600180546100d690610439565b80601f016020809104026020016040519081016040528092919081815260200182805461010290610439565b801561014f5780601f106101245761010080835404028352916020019161014f565b820191906000526020600020905b81548152906001019060200180831161013257829003601f168201915b505050505081565b60603373ffffffffffffffffffffffffffffffffffffffff1660008054906101000a900473ffffffffffffffffffffffffffffffffffffffff1673ffffffffffffffffffffffffffffffffffffffff16146101b157600080fd5b600280546101be90610439565b80601f01602080910402602001604051908101604052809291908181526020018280546101ea90610439565b80156102375780601f1061020c57610100808354040283529160200191610237565b820191906000526020600020905b81548152906001019060200180831161021a57829003601f168201915b5050505050905090565b6003805461024e90610439565b80601f016020809104026020016040519081016040528092919081815260200182805461027a90610439565b80156102c75780601f1061029c576101008083540402835291602001916102c7565b820191906000526020600020905b8154815290600101906020018083116102aa57829003601f168201915b505050505081565b60008054906101000a900473ffffffffffffffffffffffffffffffffffffffff1681565b600081519050919050565b600082825260208201905092915050565b60005b8381101561032d578082015181840152602081019050610312565b8381111561033c576000848401525b50505050565b6000601f19601f8301169050919050565b600061035e826102f3565b61036881856102fe565b935061037881856020860161030f565b61038181610342565b840191505092915050565b600060208201905081810360008301526103a68184610353565b905092915050565b600073ffffffffffffffffffffffffffffffffffffffff82169050919050565b60006103d9826103ae565b9050919050565b6103e9816103ce565b82525050565b600060208201905061040460008301846103e0565b92915050565b7f4e487b7100000000000000000000000000000000000000000000000000000000600052602260045260246000fd5b6000600282049050600182168061045157607f821691505b602082108114156104655761046461040a565b5b5091905056fea26469706673582212202e0e6f2c4f3556f14d73126f4dd10056d0362ace291157cbb3641ca663eac05b64736f6c634300080a0033a26469706673582212209461b306f801955212dbc9928246d30db207fa989159d0a7ff1b337cfda7a82b64736f6c634300080a0033",
  "immutableReferences": {},
  "source": "// SPDX-License-Identifier: MIT\npragma solidity >=0.4.21 <=0.8.13;\n\nimport './UserStorage.sol';\n\ncontract GlobalShare is UserStorage {\n\n  struct file {\n    string fileName;\n    string ipfsHash;\n    address sender;\n  }\n  file[] sharedFiles;\n\n  function uploadFile(\n    string memory _fileName,\n    string memory _ipfsHash\n  ) public isRegistered {\n    file memory newFile = file({\n      fileName: _fileName,\n      ipfsHash: _ipfsHash,\n      sender: msg.sender\n    });\n    sharedFiles.push(newFile);\n  }\n  \n  function getAllFiles() public view isRegistered returns(file[] memory){\n    return sharedFiles;\n  }\n  \n}\n",
  "sourcePath": "/home/vishwa/Desktop/ShareConnect/contracts/GlobalShare.sol",
  "compiler": {
    "name": "solc",
    "version": "0.8.10+commit.fc410830.Emscripten.clang"
  },
  "schemaVersion": "3.4.6",
  "updatedAt": "2022-04-06T14:56:18.578Z",
  "networkType": "ethereum",
  "devdoc": {
    "kind": "dev",
    "methods": {},
    "version": 1
  },
  "userdoc": {
    "kind": "user",
    "methods": {},
    "version": 1
  }
}