{
  "contractName": "ShareChannel",
  "abi": [
    {
      "inputs": [
        {
          "internalType": "address",
          "name": "_userA",
          "type": "address"
        },
        {
          "internalType": "address",
          "name": "_userB",
          "type": "address"
        }
      ],
      "stateMutability": "nonpayable",
      "type": "constructor"
    },
    {
      "inputs": [
        {
          "internalType": "string",
          "name": "_fileName",
          "type": "string"
        },
        {
          "internalType": "string",
          "name": "_ipfsHash",
          "type": "string"
        },
        {
          "internalType": "string",
          "name": "_senderEncryptedAESKey",
          "type": "string"
        },
        {
          "internalType": "string",
          "name": "_receiverEncryptedAESKey",
          "type": "string"
        },
        {
          "internalType": "address",
          "name": "_receiver",
          "type": "address"
        }
      ],
      "name": "sendFile",
      "outputs": [],
      "stateMutability": "nonpayable",
      "type": "function"
    },
    {
      "inputs": [
        {
          "internalType": "string",
          "name": "_fileName",
          "type": "string"
        },
        {
          "internalType": "string",
          "name": "_ipfsHash",
          "type": "string"
        },
        {
          "internalType": "string",
          "name": "_senderEncryptedAESKey",
          "type": "string"
        },
        {
          "internalType": "string",
          "name": "_receiverEncryptedAESKey",
          "type": "string"
        },
        {
          "internalType": "address",
          "name": "_sender",
          "type": "address"
        }
      ],
      "name": "receiveFile",
      "outputs": [],
      "stateMutability": "nonpayable",
      "type": "function"
    },
    {
      "inputs": [
        {
          "internalType": "address",
          "name": "_user",
          "type": "address"
        }
      ],
      "name": "getSentFiles",
      "outputs": [],
      "stateMutability": "view",
      "type": "function"
    },
    {
      "inputs": [
        {
          "internalType": "address",
          "name": "_user",
          "type": "address"
        }
      ],
      "name": "getReceivedFiles",
      "outputs": [],
      "stateMutability": "view",
      "type": "function"
    }
  ],
  "bytecode": "0x60806040523480156200001157600080fd5b5060405162001aab38038062001aab83398181016040528101906200003791906200012a565b816000806101000a81548173ffffffffffffffffffffffffffffffffffffffff021916908373ffffffffffffffffffffffffffffffffffffffff16021790555080600160006101000a81548173ffffffffffffffffffffffffffffffffffffffff021916908373ffffffffffffffffffffffffffffffffffffffff160217905550505062000171565b600080fd5b600073ffffffffffffffffffffffffffffffffffffffff82169050919050565b6000620000f282620000c5565b9050919050565b6200010481620000e5565b81146200011057600080fd5b50565b6000815190506200012481620000f9565b92915050565b60008060408385031215620001445762000143620000c0565b5b6000620001548582860162000113565b9250506020620001678582860162000113565b9150509250929050565b61192a80620001816000396000f3fe608060405234801561001057600080fd5b506004361061004c5760003560e01c80634266f8c51461005157806393b0394c1461006d578063a6aeff5714610089578063a73e7571146100a5575b600080fd5b61006b60048036038101906100669190611584565b6100c1565b005b61008760048036038101906100829190611584565b610185565b005b6100a3600480360381019061009e91906116f7565b610249565b005b6100bf60048036038101906100ba91906116f7565b61030e565b005b60008054906101000a900473ffffffffffffffffffffffffffffffffffffffff1673ffffffffffffffffffffffffffffffffffffffff163373ffffffffffffffffffffffffffffffffffffffff1614806101685750600160009054906101000a900473ffffffffffffffffffffffffffffffffffffffff1673ffffffffffffffffffffffffffffffffffffffff163373ffffffffffffffffffffffffffffffffffffffff16145b61017157600080fd5b61017c8160016103d3565b50505050505050565b60008054906101000a900473ffffffffffffffffffffffffffffffffffffffff1673ffffffffffffffffffffffffffffffffffffffff163373ffffffffffffffffffffffffffffffffffffffff16148061022c5750600160009054906101000a900473ffffffffffffffffffffffffffffffffffffffff1673ffffffffffffffffffffffffffffffffffffffff163373ffffffffffffffffffffffffffffffffffffffff16145b61023557600080fd5b6102408160006103d3565b50505050505050565b60008054906101000a900473ffffffffffffffffffffffffffffffffffffffff1673ffffffffffffffffffffffffffffffffffffffff163373ffffffffffffffffffffffffffffffffffffffff1614806102f05750600160009054906101000a900473ffffffffffffffffffffffffffffffffffffffff1673ffffffffffffffffffffffffffffffffffffffff163373ffffffffffffffffffffffffffffffffffffffff16145b6102f957600080fd5b610307858585853386610428565b5050505050565b60008054906101000a900473ffffffffffffffffffffffffffffffffffffffff1673ffffffffffffffffffffffffffffffffffffffff163373ffffffffffffffffffffffffffffffffffffffff1614806103b55750600160009054906101000a900473ffffffffffffffffffffffffffffffffffffffff1673ffffffffffffffffffffffffffffffffffffffff163373ffffffffffffffffffffffffffffffffffffffff16145b6103be57600080fd5b6103cc858585858533610428565b5050505050565b60608060608060608060008060006103eb8b8b6105be565b92509250925060008060006104008e8e610ce5565b9250925092508585858585859b509b509b509b509b509b505050505050509295509295509295565b60006040518060c001604052808881526020018781526020018681526020018581526020018473ffffffffffffffffffffffffffffffffffffffff1681526020018373ffffffffffffffffffffffffffffffffffffffff168152509050600281908060018154018082558091505060019003906000526020600020906006020160009091909190915060008201518160000190805190602001906104cd92919061146f565b5060208201518160010190805190602001906104ea92919061146f565b50604082015181600201908051906020019061050792919061146f565b50606082015181600301908051906020019061052492919061146f565b5060808201518160040160006101000a81548173ffffffffffffffffffffffffffffffffffffffff021916908373ffffffffffffffffffffffffffffffffffffffff16021790555060a08201518160050160006101000a81548173ffffffffffffffffffffffffffffffffffffffff021916908373ffffffffffffffffffffffffffffffffffffffff160217905550505050505050505050565b606080606060006105cf868661131e565b905060008167ffffffffffffffff8111156105ed576105ec6115cc565b5b60405190808252806020026020018201604052801561062057816020015b606081526020019060019003908161060b5790505b50905060008267ffffffffffffffff81111561063f5761063e6115cc565b5b60405190808252806020026020018201604052801561067257816020015b606081526020019060019003908161065d5790505b50905060008367ffffffffffffffff811115610691576106906115cc565b5b6040519080825280602002602001820160405280156106c457816020015b60608152602001906001900390816106af5790505b5090506000805b600280549050811015610ccf5789156109cf578a73ffffffffffffffffffffffffffffffffffffffff1660028281548110610709576107086117e2565b5b906000526020600020906006020160040160009054906101000a900473ffffffffffffffffffffffffffffffffffffffff1673ffffffffffffffffffffffffffffffffffffffff1614156109ca576002818154811061076b5761076a6117e2565b5b9060005260206000209060060201600001805461078790611840565b80601f01602080910402602001604051908101604052809291908181526020018280546107b390611840565b80156108005780601f106107d557610100808354040283529160200191610800565b820191906000526020600020905b8154815290600101906020018083116107e357829003601f168201915b5050505050858381518110610818576108176117e2565b5b602002602001018190525060028181548110610837576108366117e2565b5b9060005260206000209060060201600101805461085390611840565b80601f016020809104026020016040519081016040528092919081815260200182805461087f90611840565b80156108cc5780601f106108a1576101008083540402835291602001916108cc565b820191906000526020600020905b8154815290600101906020018083116108af57829003601f168201915b50505050508483815181106108e4576108e36117e2565b5b602002602001018190525060028181548110610903576109026117e2565b5b9060005260206000209060060201600201805461091f90611840565b80601f016020809104026020016040519081016040528092919081815260200182805461094b90611840565b80156109985780601f1061096d57610100808354040283529160200191610998565b820191906000526020600020905b81548152906001019060200180831161097b57829003601f168201915b50505050508383815181106109b0576109af6117e2565b5b602002602001018190525081806109c6906118ab565b9250505b610cbc565b8a73ffffffffffffffffffffffffffffffffffffffff16600282815481106109fa576109f96117e2565b5b906000526020600020906006020160050160009054906101000a900473ffffffffffffffffffffffffffffffffffffffff1673ffffffffffffffffffffffffffffffffffffffff161415610cbb5760028181548110610a5c57610a5b6117e2565b5b90600052602060002090600602016000018054610a7890611840565b80601f0160208091040260200160405190810160405280929190818152602001828054610aa490611840565b8015610af15780601f10610ac657610100808354040283529160200191610af1565b820191906000526020600020905b815481529060010190602001808311610ad457829003601f168201915b5050505050858381518110610b0957610b086117e2565b5b602002602001018190525060028181548110610b2857610b276117e2565b5b90600052602060002090600602016001018054610b4490611840565b80601f0160208091040260200160405190810160405280929190818152602001828054610b7090611840565b8015610bbd5780601f10610b9257610100808354040283529160200191610bbd565b820191906000526020600020905b815481529060010190602001808311610ba057829003601f168201915b5050505050848381518110610bd557610bd46117e2565b5b602002602001018190525060028181548110610bf457610bf36117e2565b5b90600052602060002090600602016002018054610c1090611840565b80601f0160208091040260200160405190810160405280929190818152602001828054610c3c90611840565b8015610c895780601f10610c5e57610100808354040283529160200191610c89565b820191906000526020600020905b815481529060010190602001808311610c6c57829003601f168201915b5050505050838381518110610ca157610ca06117e2565b5b60200260200101819052508180610cb7906118ab565b9250505b5b8080610cc7906118ab565b9150506106cb565b5083838397509750975050505050509250925092565b60608060606000610cf6868661131e565b905060008167ffffffffffffffff811115610d1457610d136115cc565b5b604051908082528060200260200182016040528015610d4757816020015b6060815260200190600190039081610d325790505b50905060008267ffffffffffffffff811115610d6657610d656115cc565b5b604051908082528060200260200182016040528015610d945781602001602082028036833780820191505090505b50905060008367ffffffffffffffff811115610db357610db26115cc565b5b604051908082528060200260200182016040528015610de15781602001602082028036833780820191505090505b5090506000805b60028054905081101561130857891561107a578a73ffffffffffffffffffffffffffffffffffffffff1660028281548110610e2657610e256117e2565b5b906000526020600020906006020160040160009054906101000a900473ffffffffffffffffffffffffffffffffffffffff1673ffffffffffffffffffffffffffffffffffffffff1614156110755760028181548110610e8857610e876117e2565b5b90600052602060002090600602016003018054610ea490611840565b80601f0160208091040260200160405190810160405280929190818152602001828054610ed090611840565b8015610f1d5780601f10610ef257610100808354040283529160200191610f1d565b820191906000526020600020905b815481529060010190602001808311610f0057829003601f168201915b5050505050858381518110610f3557610f346117e2565b5b602002602001018190525060028181548110610f5457610f536117e2565b5b906000526020600020906006020160040160009054906101000a900473ffffffffffffffffffffffffffffffffffffffff16848381518110610f9957610f986117e2565b5b602002602001019073ffffffffffffffffffffffffffffffffffffffff16908173ffffffffffffffffffffffffffffffffffffffff168152505060028181548110610fe757610fe66117e2565b5b906000526020600020906006020160050160009054906101000a900473ffffffffffffffffffffffffffffffffffffffff1683838151811061102c5761102b6117e2565b5b602002602001019073ffffffffffffffffffffffffffffffffffffffff16908173ffffffffffffffffffffffffffffffffffffffff16815250508180611071906118ab565b9250505b6112f5565b8a73ffffffffffffffffffffffffffffffffffffffff16600282815481106110a5576110a46117e2565b5b906000526020600020906006020160050160009054906101000a900473ffffffffffffffffffffffffffffffffffffffff1673ffffffffffffffffffffffffffffffffffffffff1614156112f45760028181548110611107576111066117e2565b5b9060005260206000209060060201600301805461112390611840565b80601f016020809104026020016040519081016040528092919081815260200182805461114f90611840565b801561119c5780601f106111715761010080835404028352916020019161119c565b820191906000526020600020905b81548152906001019060200180831161117f57829003601f168201915b50505050508583815181106111b4576111b36117e2565b5b6020026020010181905250600281815481106111d3576111d26117e2565b5b906000526020600020906006020160040160009054906101000a900473ffffffffffffffffffffffffffffffffffffffff16848381518110611218576112176117e2565b5b602002602001019073ffffffffffffffffffffffffffffffffffffffff16908173ffffffffffffffffffffffffffffffffffffffff168152505060028181548110611266576112656117e2565b5b906000526020600020906006020160050160009054906101000a900473ffffffffffffffffffffffffffffffffffffffff168383815181106112ab576112aa6117e2565b5b602002602001019073ffffffffffffffffffffffffffffffffffffffff16908173ffffffffffffffffffffffffffffffffffffffff168152505081806112f0906118ab565b9250505b5b8080611300906118ab565b915050610de8565b5083838397509750975050505050509250925092565b6000806000905060005b6002805490508110156114645783156113c8578473ffffffffffffffffffffffffffffffffffffffff1660028281548110611366576113656117e2565b5b906000526020600020906006020160040160009054906101000a900473ffffffffffffffffffffffffffffffffffffffff1673ffffffffffffffffffffffffffffffffffffffff1614156113c35781806113bf906118ab565b9250505b611451565b8473ffffffffffffffffffffffffffffffffffffffff16600282815481106113f3576113f26117e2565b5b906000526020600020906006020160050160009054906101000a900473ffffffffffffffffffffffffffffffffffffffff1673ffffffffffffffffffffffffffffffffffffffff16141561145057818061144c906118ab565b9250505b5b808061145c906118ab565b915050611328565b508091505092915050565b82805461147b90611840565b90600052602060002090601f01602090048101928261149d57600085556114e4565b82601f106114b657805160ff19168380011785556114e4565b828001600101855582156114e4579182015b828111156114e35782518255916020019190600101906114c8565b5b5090506114f191906114f5565b5090565b5b8082111561150e5760008160009055506001016114f6565b5090565b6000604051905090565b600080fd5b600080fd5b600073ffffffffffffffffffffffffffffffffffffffff82169050919050565b600061155182611526565b9050919050565b61156181611546565b811461156c57600080fd5b50565b60008135905061157e81611558565b92915050565b60006020828403121561159a5761159961151c565b5b60006115a88482850161156f565b91505092915050565b600080fd5b600080fd5b6000601f19601f8301169050919050565b7f4e487b7100000000000000000000000000000000000000000000000000000000600052604160045260246000fd5b611604826115bb565b810181811067ffffffffffffffff82111715611623576116226115cc565b5b80604052505050565b6000611636611512565b905061164282826115fb565b919050565b600067ffffffffffffffff821115611662576116616115cc565b5b61166b826115bb565b9050602081019050919050565b82818337600083830152505050565b600061169a61169584611647565b61162c565b9050828152602081018484840111156116b6576116b56115b6565b5b6116c1848285611678565b509392505050565b600082601f8301126116de576116dd6115b1565b5b81356116ee848260208601611687565b91505092915050565b600080600080600060a086880312156117135761171261151c565b5b600086013567ffffffffffffffff81111561173157611730611521565b5b61173d888289016116c9565b955050602086013567ffffffffffffffff81111561175e5761175d611521565b5b61176a888289016116c9565b945050604086013567ffffffffffffffff81111561178b5761178a611521565b5b611797888289016116c9565b935050606086013567ffffffffffffffff8111156117b8576117b7611521565b5b6117c4888289016116c9565b92505060806117d58882890161156f565b9150509295509295909350565b7f4e487b7100000000000000000000000000000000000000000000000000000000600052603260045260246000fd5b7f4e487b7100000000000000000000000000000000000000000000000000000000600052602260045260246000fd5b6000600282049050600182168061185857607f821691505b6020821081141561186c5761186b611811565b5b50919050565b7f4e487b7100000000000000000000000000000000000000000000000000000000600052601160045260246000fd5b6000819050919050565b60006118b6826118a1565b91507fffffffffffffffffffffffffffffffffffffffffffffffffffffffffffffffff8214156118e9576118e8611872565b5b60018201905091905056fea26469706673582212206e816c29afa63f25e9a5e67d1ddb22728ae54dcebceee9d5567cf15c7dbc948864736f6c634300080a0033",
  "immutableReferences": {},
  "source": "// SPDX-License-Identifier: MIT\npragma solidity >=0.4.21 <=0.8.13;\n\ncontract ShareChannel {\n\n  address userA;\n  address userB;\n  file[] sharedFiles;\n\n  struct file {\n    string fileName;\n    string ipfsHash;\n    string senderEncryptedAESKey;\n    string receiverEncryptedAESKey;\n    address sender;\n    address receiver;\n  }\n\n  constructor(address _userA, address _userB) {\n    userA = _userA;\n    userB = _userB;\n  }\n\n  modifier isPartOfChannel() {\n    require((msg.sender == userA) || (msg.sender == userB));\n    _;\n  }\n\n  function sendFile(\n    string memory _fileName,\n    string memory _ipfsHash,\n    string memory _senderEncryptedAESKey,\n    string memory _receiverEncryptedAESKey,\n    address _receiver\n  ) public isPartOfChannel {\n    _addFile(_fileName, _ipfsHash, _senderEncryptedAESKey, _receiverEncryptedAESKey, msg.sender, _receiver);\n  }\n  function receiveFile(\n    string memory _fileName,\n    string memory _ipfsHash,\n    string memory _senderEncryptedAESKey,\n    string memory _receiverEncryptedAESKey,\n    address _sender\n  ) public isPartOfChannel {\n    _addFile(_fileName, _ipfsHash, _senderEncryptedAESKey, _receiverEncryptedAESKey, _sender, msg.sender);\n  }\n\n  function getSentFiles(address _user) public view isPartOfChannel {\n    _findFiles(_user, true);\n  }\n\n  function getReceivedFiles(address _user) public view isPartOfChannel {\n    _findFiles(_user, false);\n  }\n\n  function _addFile(\n    string memory _fileName,\n    string memory _ipfsHash,\n    string memory _senderEncryptedAESKey,\n    string memory _receiverEncryptedAESKey,\n    address _sender,\n    address _receiver\n  ) private {\n    file memory newFile = file({\n      fileName: _fileName,\n      ipfsHash: _ipfsHash,\n      senderEncryptedAESKey: _senderEncryptedAESKey,\n      receiverEncryptedAESKey: _receiverEncryptedAESKey,\n      sender: _sender,\n      receiver: _receiver\n    });\n    sharedFiles.push(newFile);\n  }\n\n  function _findFiles(\n    address _user, \n    bool _getSent\n  ) private view returns (\n    string[] memory,\n    string[] memory,\n    string[] memory,\n    string[] memory,\n    address[] memory,\n    address[] memory\n  ){\n    //Destructure the return values.\n    (\n      string[] memory fileName,\n      string[] memory ipfsHash,\n      string[] memory senderEncryptedAESKey\n    ) = _findFiles1(_user, _getSent);\n\n    (\n      string[] memory receiverEncryptedAESKey,\n      address[] memory sender,\n      address[] memory receiver\n    ) = _findFiles2(_user, _getSent);\n\n    return (\n      fileName,\n      ipfsHash,\n      senderEncryptedAESKey,\n      receiverEncryptedAESKey,\n      sender,\n      receiver\n    );\n  }\n\n  //Divide the function into two to avoid 'stack too deep' errors.\n\n  function _findFiles1(\n    address _user, \n    bool _getSent\n  ) private view returns (\n    string[] memory,\n    string[] memory,\n    string[] memory\n  ) {\n\n    uint arraySize = _calcArraySize(_user, _getSent);\n\n    string[] memory fileName = new string[](arraySize);\n    string[] memory ipfsHash = new string[](arraySize);\n    string[] memory senderEncryptedAESKey = new string[](arraySize);\n\n    uint j = 0;\n    for(uint i = 0; i < sharedFiles.length; i++){\n      if(_getSent){\n        if(sharedFiles[i].sender == _user){\n          fileName[j] = sharedFiles[i].fileName;\n          ipfsHash[j] = sharedFiles[i].ipfsHash;\n          senderEncryptedAESKey[j] = sharedFiles[i].senderEncryptedAESKey;\n          j++;\n        }\n      }\n      else {\n        if(sharedFiles[i].receiver == _user){\n          fileName[j] = sharedFiles[i].fileName;\n          ipfsHash[j] = sharedFiles[i].ipfsHash;\n          senderEncryptedAESKey[j] = sharedFiles[i].senderEncryptedAESKey;\n          j++;\n        }\n      }\n    }\n  \n    return (\n      fileName, \n      ipfsHash, \n      senderEncryptedAESKey\n    );\n  }\n\n  function _findFiles2(\n    address _user, \n    bool _getSent\n  ) private view returns (\n    string[] memory,\n    address[] memory,\n    address[] memory\n  ) {\n    uint arraySize = _calcArraySize(_user, _getSent);\n\n    string[] memory receiverEncryptedAESKey = new string[](arraySize);\n    address[] memory sender = new address[](arraySize);\n    address[] memory receiver = new address[](arraySize);\n\n    uint j = 0;\n    for(uint i = 0; i < sharedFiles.length; i++){\n      if(_getSent){\n        if(sharedFiles[i].sender == _user){\n          receiverEncryptedAESKey[j] = sharedFiles[i].receiverEncryptedAESKey;\n          sender[j] = sharedFiles[i].sender;\n          receiver[j] = sharedFiles[i].receiver;\n          j++;\n        }\n      }\n      else {\n        if(sharedFiles[i].receiver == _user){\n          receiverEncryptedAESKey[j] = sharedFiles[i].receiverEncryptedAESKey;\n          sender[j] = sharedFiles[i].sender;\n          receiver[j] = sharedFiles[i].receiver;\n          j++;\n        }\n      }\n    }\n\n    return (\n      receiverEncryptedAESKey,\n      sender,\n      receiver\n    );\n  }\n\n  function _calcArraySize(address _user, bool _getSent) private view returns(uint){\n    uint size = 0;\n    for(uint i = 0; i < sharedFiles.length; i++){\n      if(_getSent){\n        if(sharedFiles[i].sender == _user){\n          size++;\n        }\n      }\n      else {\n        if(sharedFiles[i].receiver == _user){\n          size++;\n        }\n      }\n    }\n    return size;\n  }\n\n}",
  "sourcePath": "/home/vishwa/Desktop/ShareConnect/contracts/ShareChannel.sol",
  "compiler": {
    "name": "solc",
    "version": "0.8.10+commit.fc410830.Emscripten.clang"
  },
  "schemaVersion": "3.4.6",
  "updatedAt": "2022-04-12T07:27:50.599Z",
  "devdoc": {
    "kind": "dev",
    "methods": {},
    "version": 1
  },
  "userdoc": {
    "kind": "user",
    "methods": {},
    "version": 1
  }
}