{
  "contractName": "ShareChannel",
  "abi": [
    {
      "inputs": [
        {
          "internalType": "address",
          "name": "_userA",
          "type": "address"
        },
        {
          "internalType": "address",
          "name": "_userB",
          "type": "address"
        }
      ],
      "stateMutability": "nonpayable",
      "type": "constructor"
    },
    {
      "inputs": [],
      "name": "userA",
      "outputs": [
        {
          "internalType": "address",
          "name": "",
          "type": "address"
        }
      ],
      "stateMutability": "view",
      "type": "function"
    },
    {
      "inputs": [],
      "name": "userB",
      "outputs": [
        {
          "internalType": "address",
          "name": "",
          "type": "address"
        }
      ],
      "stateMutability": "view",
      "type": "function"
    },
    {
      "inputs": [
        {
          "internalType": "string",
          "name": "_fileName",
          "type": "string"
        },
        {
          "internalType": "string",
          "name": "_ipfsHash",
          "type": "string"
        },
        {
          "internalType": "string",
          "name": "_senderEncryptedAESKey",
          "type": "string"
        },
        {
          "internalType": "string",
          "name": "_receiverEncryptedAESKey",
          "type": "string"
        },
        {
          "internalType": "address",
          "name": "_receiver",
          "type": "address"
        }
      ],
      "name": "sendFile",
      "outputs": [],
      "stateMutability": "nonpayable",
      "type": "function"
    },
    {
      "inputs": [
        {
          "internalType": "string",
          "name": "_fileName",
          "type": "string"
        },
        {
          "internalType": "string",
          "name": "_ipfsHash",
          "type": "string"
        },
        {
          "internalType": "string",
          "name": "_senderEncryptedAESKey",
          "type": "string"
        },
        {
          "internalType": "string",
          "name": "_receiverEncryptedAESKey",
          "type": "string"
        },
        {
          "internalType": "address",
          "name": "_sender",
          "type": "address"
        }
      ],
      "name": "receiveFile",
      "outputs": [],
      "stateMutability": "nonpayable",
      "type": "function"
    },
    {
      "inputs": [
        {
          "internalType": "address",
          "name": "_user",
          "type": "address"
        }
      ],
      "name": "getSentFiles",
      "outputs": [],
      "stateMutability": "view",
      "type": "function"
    },
    {
      "inputs": [
        {
          "internalType": "address",
          "name": "_user",
          "type": "address"
        }
      ],
      "name": "getReceivedFiles",
      "outputs": [],
      "stateMutability": "view",
      "type": "function"
    },
    {
      "inputs": [],
      "name": "getChannelUsers",
      "outputs": [
        {
          "internalType": "address",
          "name": "",
          "type": "address"
        },
        {
          "internalType": "address",
          "name": "",
          "type": "address"
        }
      ],
      "stateMutability": "view",
      "type": "function"
    }
  ],
  "bytecode": "0x60806040523480156200001157600080fd5b5060405162001c2338038062001c2383398181016040528101906200003791906200012a565b816000806101000a81548173ffffffffffffffffffffffffffffffffffffffff021916908373ffffffffffffffffffffffffffffffffffffffff16021790555080600160006101000a81548173ffffffffffffffffffffffffffffffffffffffff021916908373ffffffffffffffffffffffffffffffffffffffff160217905550505062000171565b600080fd5b600073ffffffffffffffffffffffffffffffffffffffff82169050919050565b6000620000f282620000c5565b9050919050565b6200010481620000e5565b81146200011057600080fd5b50565b6000815190506200012481620000f9565b92915050565b60008060408385031215620001445762000143620000c0565b5b6000620001548582860162000113565b9250506020620001678582860162000113565b9150509250929050565b611aa280620001816000396000f3fe608060405234801561001057600080fd5b506004361061007d5760003560e01c8063a73e75711161005b578063a73e7571146100d6578063cb1a295f146100f2578063deb22e9a14610110578063e9ad32391461012e5761007d565b80634266f8c51461008257806393b0394c1461009e578063a6aeff57146100ba575b600080fd5b61009c600480360381019061009791906116a9565b61014d565b005b6100b860048036038101906100b391906116a9565b610211565b005b6100d460048036038101906100cf919061181c565b6102d5565b005b6100f060048036038101906100eb919061181c565b61039a565b005b6100fa61045f565b6040516101079190611916565b60405180910390f35b610118610485565b6040516101259190611916565b60405180910390f35b6101366104a9565b604051610144929190611931565b60405180910390f35b60008054906101000a900473ffffffffffffffffffffffffffffffffffffffff1673ffffffffffffffffffffffffffffffffffffffff163373ffffffffffffffffffffffffffffffffffffffff1614806101f45750600160009054906101000a900473ffffffffffffffffffffffffffffffffffffffff1673ffffffffffffffffffffffffffffffffffffffff163373ffffffffffffffffffffffffffffffffffffffff16145b6101fd57600080fd5b6102088160016104f8565b50505050505050565b60008054906101000a900473ffffffffffffffffffffffffffffffffffffffff1673ffffffffffffffffffffffffffffffffffffffff163373ffffffffffffffffffffffffffffffffffffffff1614806102b85750600160009054906101000a900473ffffffffffffffffffffffffffffffffffffffff1673ffffffffffffffffffffffffffffffffffffffff163373ffffffffffffffffffffffffffffffffffffffff16145b6102c157600080fd5b6102cc8160006104f8565b50505050505050565b60008054906101000a900473ffffffffffffffffffffffffffffffffffffffff1673ffffffffffffffffffffffffffffffffffffffff163373ffffffffffffffffffffffffffffffffffffffff16148061037c5750600160009054906101000a900473ffffffffffffffffffffffffffffffffffffffff1673ffffffffffffffffffffffffffffffffffffffff163373ffffffffffffffffffffffffffffffffffffffff16145b61038557600080fd5b61039385858585338661054d565b5050505050565b60008054906101000a900473ffffffffffffffffffffffffffffffffffffffff1673ffffffffffffffffffffffffffffffffffffffff163373ffffffffffffffffffffffffffffffffffffffff1614806104415750600160009054906101000a900473ffffffffffffffffffffffffffffffffffffffff1673ffffffffffffffffffffffffffffffffffffffff163373ffffffffffffffffffffffffffffffffffffffff16145b61044a57600080fd5b61045885858585853361054d565b5050505050565b600160009054906101000a900473ffffffffffffffffffffffffffffffffffffffff1681565b60008054906101000a900473ffffffffffffffffffffffffffffffffffffffff1681565b60008060008054906101000a900473ffffffffffffffffffffffffffffffffffffffff16600160009054906101000a900473ffffffffffffffffffffffffffffffffffffffff16915091509091565b60608060608060608060008060006105108b8b6106e3565b92509250925060008060006105258e8e610e0a565b9250925092508585858585859b509b509b509b509b509b505050505050509295509295509295565b60006040518060c001604052808881526020018781526020018681526020018581526020018473ffffffffffffffffffffffffffffffffffffffff1681526020018373ffffffffffffffffffffffffffffffffffffffff168152509050600281908060018154018082558091505060019003906000526020600020906006020160009091909190915060008201518160000190805190602001906105f2929190611594565b50602082015181600101908051906020019061060f929190611594565b50604082015181600201908051906020019061062c929190611594565b506060820151816003019080519060200190610649929190611594565b5060808201518160040160006101000a81548173ffffffffffffffffffffffffffffffffffffffff021916908373ffffffffffffffffffffffffffffffffffffffff16021790555060a08201518160050160006101000a81548173ffffffffffffffffffffffffffffffffffffffff021916908373ffffffffffffffffffffffffffffffffffffffff160217905550505050505050505050565b606080606060006106f48686611443565b905060008167ffffffffffffffff811115610712576107116116f1565b5b60405190808252806020026020018201604052801561074557816020015b60608152602001906001900390816107305790505b50905060008267ffffffffffffffff811115610764576107636116f1565b5b60405190808252806020026020018201604052801561079757816020015b60608152602001906001900390816107825790505b50905060008367ffffffffffffffff8111156107b6576107b56116f1565b5b6040519080825280602002602001820160405280156107e957816020015b60608152602001906001900390816107d45790505b5090506000805b600280549050811015610df4578915610af4578a73ffffffffffffffffffffffffffffffffffffffff166002828154811061082e5761082d61195a565b5b906000526020600020906006020160040160009054906101000a900473ffffffffffffffffffffffffffffffffffffffff1673ffffffffffffffffffffffffffffffffffffffff161415610aef57600281815481106108905761088f61195a565b5b906000526020600020906006020160000180546108ac906119b8565b80601f01602080910402602001604051908101604052809291908181526020018280546108d8906119b8565b80156109255780601f106108fa57610100808354040283529160200191610925565b820191906000526020600020905b81548152906001019060200180831161090857829003601f168201915b505050505085838151811061093d5761093c61195a565b5b60200260200101819052506002818154811061095c5761095b61195a565b5b90600052602060002090600602016001018054610978906119b8565b80601f01602080910402602001604051908101604052809291908181526020018280546109a4906119b8565b80156109f15780601f106109c6576101008083540402835291602001916109f1565b820191906000526020600020905b8154815290600101906020018083116109d457829003601f168201915b5050505050848381518110610a0957610a0861195a565b5b602002602001018190525060028181548110610a2857610a2761195a565b5b90600052602060002090600602016002018054610a44906119b8565b80601f0160208091040260200160405190810160405280929190818152602001828054610a70906119b8565b8015610abd5780601f10610a9257610100808354040283529160200191610abd565b820191906000526020600020905b815481529060010190602001808311610aa057829003601f168201915b5050505050838381518110610ad557610ad461195a565b5b60200260200101819052508180610aeb90611a23565b9250505b610de1565b8a73ffffffffffffffffffffffffffffffffffffffff1660028281548110610b1f57610b1e61195a565b5b906000526020600020906006020160050160009054906101000a900473ffffffffffffffffffffffffffffffffffffffff1673ffffffffffffffffffffffffffffffffffffffff161415610de05760028181548110610b8157610b8061195a565b5b90600052602060002090600602016000018054610b9d906119b8565b80601f0160208091040260200160405190810160405280929190818152602001828054610bc9906119b8565b8015610c165780601f10610beb57610100808354040283529160200191610c16565b820191906000526020600020905b815481529060010190602001808311610bf957829003601f168201915b5050505050858381518110610c2e57610c2d61195a565b5b602002602001018190525060028181548110610c4d57610c4c61195a565b5b90600052602060002090600602016001018054610c69906119b8565b80601f0160208091040260200160405190810160405280929190818152602001828054610c95906119b8565b8015610ce25780601f10610cb757610100808354040283529160200191610ce2565b820191906000526020600020905b815481529060010190602001808311610cc557829003601f168201915b5050505050848381518110610cfa57610cf961195a565b5b602002602001018190525060028181548110610d1957610d1861195a565b5b90600052602060002090600602016002018054610d35906119b8565b80601f0160208091040260200160405190810160405280929190818152602001828054610d61906119b8565b8015610dae5780601f10610d8357610100808354040283529160200191610dae565b820191906000526020600020905b815481529060010190602001808311610d9157829003601f168201915b5050505050838381518110610dc657610dc561195a565b5b60200260200101819052508180610ddc90611a23565b9250505b5b8080610dec90611a23565b9150506107f0565b5083838397509750975050505050509250925092565b60608060606000610e1b8686611443565b905060008167ffffffffffffffff811115610e3957610e386116f1565b5b604051908082528060200260200182016040528015610e6c57816020015b6060815260200190600190039081610e575790505b50905060008267ffffffffffffffff811115610e8b57610e8a6116f1565b5b604051908082528060200260200182016040528015610eb95781602001602082028036833780820191505090505b50905060008367ffffffffffffffff811115610ed857610ed76116f1565b5b604051908082528060200260200182016040528015610f065781602001602082028036833780820191505090505b5090506000805b60028054905081101561142d57891561119f578a73ffffffffffffffffffffffffffffffffffffffff1660028281548110610f4b57610f4a61195a565b5b906000526020600020906006020160040160009054906101000a900473ffffffffffffffffffffffffffffffffffffffff1673ffffffffffffffffffffffffffffffffffffffff16141561119a5760028181548110610fad57610fac61195a565b5b90600052602060002090600602016003018054610fc9906119b8565b80601f0160208091040260200160405190810160405280929190818152602001828054610ff5906119b8565b80156110425780601f1061101757610100808354040283529160200191611042565b820191906000526020600020905b81548152906001019060200180831161102557829003601f168201915b505050505085838151811061105a5761105961195a565b5b6020026020010181905250600281815481106110795761107861195a565b5b906000526020600020906006020160040160009054906101000a900473ffffffffffffffffffffffffffffffffffffffff168483815181106110be576110bd61195a565b5b602002602001019073ffffffffffffffffffffffffffffffffffffffff16908173ffffffffffffffffffffffffffffffffffffffff16815250506002818154811061110c5761110b61195a565b5b906000526020600020906006020160050160009054906101000a900473ffffffffffffffffffffffffffffffffffffffff168383815181106111515761115061195a565b5b602002602001019073ffffffffffffffffffffffffffffffffffffffff16908173ffffffffffffffffffffffffffffffffffffffff1681525050818061119690611a23565b9250505b61141a565b8a73ffffffffffffffffffffffffffffffffffffffff16600282815481106111ca576111c961195a565b5b906000526020600020906006020160050160009054906101000a900473ffffffffffffffffffffffffffffffffffffffff1673ffffffffffffffffffffffffffffffffffffffff161415611419576002818154811061122c5761122b61195a565b5b90600052602060002090600602016003018054611248906119b8565b80601f0160208091040260200160405190810160405280929190818152602001828054611274906119b8565b80156112c15780601f10611296576101008083540402835291602001916112c1565b820191906000526020600020905b8154815290600101906020018083116112a457829003601f168201915b50505050508583815181106112d9576112d861195a565b5b6020026020010181905250600281815481106112f8576112f761195a565b5b906000526020600020906006020160040160009054906101000a900473ffffffffffffffffffffffffffffffffffffffff1684838151811061133d5761133c61195a565b5b602002602001019073ffffffffffffffffffffffffffffffffffffffff16908173ffffffffffffffffffffffffffffffffffffffff16815250506002818154811061138b5761138a61195a565b5b906000526020600020906006020160050160009054906101000a900473ffffffffffffffffffffffffffffffffffffffff168383815181106113d0576113cf61195a565b5b602002602001019073ffffffffffffffffffffffffffffffffffffffff16908173ffffffffffffffffffffffffffffffffffffffff1681525050818061141590611a23565b9250505b5b808061142590611a23565b915050610f0d565b5083838397509750975050505050509250925092565b6000806000905060005b6002805490508110156115895783156114ed578473ffffffffffffffffffffffffffffffffffffffff166002828154811061148b5761148a61195a565b5b906000526020600020906006020160040160009054906101000a900473ffffffffffffffffffffffffffffffffffffffff1673ffffffffffffffffffffffffffffffffffffffff1614156114e85781806114e490611a23565b9250505b611576565b8473ffffffffffffffffffffffffffffffffffffffff16600282815481106115185761151761195a565b5b906000526020600020906006020160050160009054906101000a900473ffffffffffffffffffffffffffffffffffffffff1673ffffffffffffffffffffffffffffffffffffffff16141561157557818061157190611a23565b9250505b5b808061158190611a23565b91505061144d565b508091505092915050565b8280546115a0906119b8565b90600052602060002090601f0160209004810192826115c25760008555611609565b82601f106115db57805160ff1916838001178555611609565b82800160010185558215611609579182015b828111156116085782518255916020019190600101906115ed565b5b509050611616919061161a565b5090565b5b8082111561163357600081600090555060010161161b565b5090565b6000604051905090565b600080fd5b600080fd5b600073ffffffffffffffffffffffffffffffffffffffff82169050919050565b60006116768261164b565b9050919050565b6116868161166b565b811461169157600080fd5b50565b6000813590506116a38161167d565b92915050565b6000602082840312156116bf576116be611641565b5b60006116cd84828501611694565b91505092915050565b600080fd5b600080fd5b6000601f19601f8301169050919050565b7f4e487b7100000000000000000000000000000000000000000000000000000000600052604160045260246000fd5b611729826116e0565b810181811067ffffffffffffffff82111715611748576117476116f1565b5b80604052505050565b600061175b611637565b90506117678282611720565b919050565b600067ffffffffffffffff821115611787576117866116f1565b5b611790826116e0565b9050602081019050919050565b82818337600083830152505050565b60006117bf6117ba8461176c565b611751565b9050828152602081018484840111156117db576117da6116db565b5b6117e684828561179d565b509392505050565b600082601f830112611803576118026116d6565b5b81356118138482602086016117ac565b91505092915050565b600080600080600060a0868803121561183857611837611641565b5b600086013567ffffffffffffffff81111561185657611855611646565b5b611862888289016117ee565b955050602086013567ffffffffffffffff81111561188357611882611646565b5b61188f888289016117ee565b945050604086013567ffffffffffffffff8111156118b0576118af611646565b5b6118bc888289016117ee565b935050606086013567ffffffffffffffff8111156118dd576118dc611646565b5b6118e9888289016117ee565b92505060806118fa88828901611694565b9150509295509295909350565b6119108161166b565b82525050565b600060208201905061192b6000830184611907565b92915050565b60006040820190506119466000830185611907565b6119536020830184611907565b9392505050565b7f4e487b7100000000000000000000000000000000000000000000000000000000600052603260045260246000fd5b7f4e487b7100000000000000000000000000000000000000000000000000000000600052602260045260246000fd5b600060028204905060018216806119d057607f821691505b602082108114156119e4576119e3611989565b5b50919050565b7f4e487b7100000000000000000000000000000000000000000000000000000000600052601160045260246000fd5b6000819050919050565b6000611a2e82611a19565b91507fffffffffffffffffffffffffffffffffffffffffffffffffffffffffffffffff821415611a6157611a606119ea565b5b60018201905091905056fea26469706673582212204d60e9856f1d5981edcd1b6174303f9b433f83b062d8349c95ed39a4aef2d02d64736f6c634300080a0033",
  "immutableReferences": {},
  "source": "// SPDX-License-Identifier: MIT\r\npragma solidity >=0.4.21 <=0.8.13;\r\n\r\ncontract ShareChannel {\r\n\r\n  address public userA;\r\n  address public userB;\r\n  file[] sharedFiles;\r\n\r\n  struct file {\r\n    string fileName;\r\n    string ipfsHash;\r\n    string senderEncryptedAESKey;\r\n    string receiverEncryptedAESKey;\r\n    address sender;\r\n    address receiver;\r\n  }\r\n\r\n  constructor(address _userA, address _userB) {\r\n    userA = _userA;\r\n    userB = _userB;\r\n  }\r\n\r\n  modifier isPartOfChannel() {\r\n    require((msg.sender == userA) || (msg.sender == userB));\r\n    _;\r\n  }\r\n\r\n  function sendFile(\r\n    string memory _fileName,\r\n    string memory _ipfsHash,\r\n    string memory _senderEncryptedAESKey,\r\n    string memory _receiverEncryptedAESKey,\r\n    address _receiver\r\n  ) public isPartOfChannel {\r\n    _addFile(_fileName, _ipfsHash, _senderEncryptedAESKey, _receiverEncryptedAESKey, msg.sender, _receiver);\r\n  }\r\n  function receiveFile(\r\n    string memory _fileName,\r\n    string memory _ipfsHash,\r\n    string memory _senderEncryptedAESKey,\r\n    string memory _receiverEncryptedAESKey,\r\n    address _sender\r\n  ) public isPartOfChannel {\r\n    _addFile(_fileName, _ipfsHash, _senderEncryptedAESKey, _receiverEncryptedAESKey, _sender, msg.sender);\r\n  }\r\n\r\n  function getSentFiles(address _user) public view isPartOfChannel {\r\n    _findFiles(_user, true);\r\n  }\r\n\r\n  function getReceivedFiles(address _user) public view isPartOfChannel {\r\n    _findFiles(_user, false);\r\n  }\r\n\r\n  function getChannelUsers() public view returns(address, address){\r\n    return (userA, userB);\r\n  }\r\n\r\n  function _addFile(\r\n    string memory _fileName,\r\n    string memory _ipfsHash,\r\n    string memory _senderEncryptedAESKey,\r\n    string memory _receiverEncryptedAESKey,\r\n    address _sender,\r\n    address _receiver\r\n  ) private {\r\n    file memory newFile = file({\r\n      fileName: _fileName,\r\n      ipfsHash: _ipfsHash,\r\n      senderEncryptedAESKey: _senderEncryptedAESKey,\r\n      receiverEncryptedAESKey: _receiverEncryptedAESKey,\r\n      sender: _sender,\r\n      receiver: _receiver\r\n    });\r\n    sharedFiles.push(newFile);\r\n  }\r\n\r\n  function _findFiles(\r\n    address _user, \r\n    bool _getSent\r\n  ) private view returns (\r\n    string[] memory,\r\n    string[] memory,\r\n    string[] memory,\r\n    string[] memory,\r\n    address[] memory,\r\n    address[] memory\r\n  ){\r\n    //Destructure the return values.\r\n    (\r\n      string[] memory fileName,\r\n      string[] memory ipfsHash,\r\n      string[] memory senderEncryptedAESKey\r\n    ) = _findFiles1(_user, _getSent);\r\n\r\n    (\r\n      string[] memory receiverEncryptedAESKey,\r\n      address[] memory sender,\r\n      address[] memory receiver\r\n    ) = _findFiles2(_user, _getSent);\r\n\r\n    return (\r\n      fileName,\r\n      ipfsHash,\r\n      senderEncryptedAESKey,\r\n      receiverEncryptedAESKey,\r\n      sender,\r\n      receiver\r\n    );\r\n  }\r\n\r\n  //Divide the function into two to avoid 'stack too deep' errors.\r\n\r\n  function _findFiles1(\r\n    address _user, \r\n    bool _getSent\r\n  ) private view returns (\r\n    string[] memory,\r\n    string[] memory,\r\n    string[] memory\r\n  ) {\r\n\r\n    uint arraySize = _calcArraySize(_user, _getSent);\r\n\r\n    string[] memory fileName = new string[](arraySize);\r\n    string[] memory ipfsHash = new string[](arraySize);\r\n    string[] memory senderEncryptedAESKey = new string[](arraySize);\r\n\r\n    uint j = 0;\r\n    for(uint i = 0; i < sharedFiles.length; i++){\r\n      if(_getSent){\r\n        if(sharedFiles[i].sender == _user){\r\n          fileName[j] = sharedFiles[i].fileName;\r\n          ipfsHash[j] = sharedFiles[i].ipfsHash;\r\n          senderEncryptedAESKey[j] = sharedFiles[i].senderEncryptedAESKey;\r\n          j++;\r\n        }\r\n      }\r\n      else {\r\n        if(sharedFiles[i].receiver == _user){\r\n          fileName[j] = sharedFiles[i].fileName;\r\n          ipfsHash[j] = sharedFiles[i].ipfsHash;\r\n          senderEncryptedAESKey[j] = sharedFiles[i].senderEncryptedAESKey;\r\n          j++;\r\n        }\r\n      }\r\n    }\r\n  \r\n    return (\r\n      fileName, \r\n      ipfsHash, \r\n      senderEncryptedAESKey\r\n    );\r\n  }\r\n\r\n  function _findFiles2(\r\n    address _user, \r\n    bool _getSent\r\n  ) private view returns (\r\n    string[] memory,\r\n    address[] memory,\r\n    address[] memory\r\n  ) {\r\n    uint arraySize = _calcArraySize(_user, _getSent);\r\n\r\n    string[] memory receiverEncryptedAESKey = new string[](arraySize);\r\n    address[] memory sender = new address[](arraySize);\r\n    address[] memory receiver = new address[](arraySize);\r\n\r\n    uint j = 0;\r\n    for(uint i = 0; i < sharedFiles.length; i++){\r\n      if(_getSent){\r\n        if(sharedFiles[i].sender == _user){\r\n          receiverEncryptedAESKey[j] = sharedFiles[i].receiverEncryptedAESKey;\r\n          sender[j] = sharedFiles[i].sender;\r\n          receiver[j] = sharedFiles[i].receiver;\r\n          j++;\r\n        }\r\n      }\r\n      else {\r\n        if(sharedFiles[i].receiver == _user){\r\n          receiverEncryptedAESKey[j] = sharedFiles[i].receiverEncryptedAESKey;\r\n          sender[j] = sharedFiles[i].sender;\r\n          receiver[j] = sharedFiles[i].receiver;\r\n          j++;\r\n        }\r\n      }\r\n    }\r\n\r\n    return (\r\n      receiverEncryptedAESKey,\r\n      sender,\r\n      receiver\r\n    );\r\n  }\r\n\r\n  function _calcArraySize(address _user, bool _getSent) private view returns(uint){\r\n    uint size = 0;\r\n    for(uint i = 0; i < sharedFiles.length; i++){\r\n      if(_getSent){\r\n        if(sharedFiles[i].sender == _user){\r\n          size++;\r\n        }\r\n      }\r\n      else {\r\n        if(sharedFiles[i].receiver == _user){\r\n          size++;\r\n        }\r\n      }\r\n    }\r\n    return size;\r\n  }\r\n\r\n}",
  "sourcePath": "D:\\SK\\ShareConnect\\contracts\\ShareChannel.sol",
  "compiler": {
    "name": "solc",
    "version": "0.8.10+commit.fc410830.Emscripten.clang"
  },
  "schemaVersion": "3.4.7",
  "updatedAt": "2022-04-13T18:57:12.281Z",
  "devdoc": {
    "kind": "dev",
    "methods": {},
    "version": 1
  },
  "userdoc": {
    "kind": "user",
    "methods": {},
    "version": 1
  }
}