{
  "contractName": "ShareChannel",
  "abi": [
    {
      "inputs": [
        {
          "internalType": "address",
          "name": "_userA",
          "type": "address"
        },
        {
          "internalType": "address",
          "name": "_userB",
          "type": "address"
        }
      ],
      "stateMutability": "nonpayable",
      "type": "constructor"
    },
    {
      "inputs": [],
      "name": "userA",
      "outputs": [
        {
          "internalType": "address",
          "name": "",
          "type": "address"
        }
      ],
      "stateMutability": "view",
      "type": "function"
    },
    {
      "inputs": [],
      "name": "userB",
      "outputs": [
        {
          "internalType": "address",
          "name": "",
          "type": "address"
        }
      ],
      "stateMutability": "view",
      "type": "function"
    },
    {
      "inputs": [
        {
          "internalType": "string",
          "name": "_fileName",
          "type": "string"
        },
        {
          "internalType": "string",
          "name": "_ipfsHash",
          "type": "string"
        },
        {
          "internalType": "string",
          "name": "_senderEncryptedAESKey",
          "type": "string"
        },
        {
          "internalType": "string",
          "name": "_receiverEncryptedAESKey",
          "type": "string"
        },
        {
          "internalType": "address",
          "name": "_receiver",
          "type": "address"
        }
      ],
      "name": "sendFile",
      "outputs": [],
      "stateMutability": "nonpayable",
      "type": "function"
    },
    {
      "inputs": [
        {
          "internalType": "string",
          "name": "_fileName",
          "type": "string"
        },
        {
          "internalType": "string",
          "name": "_ipfsHash",
          "type": "string"
        },
        {
          "internalType": "string",
          "name": "_senderEncryptedAESKey",
          "type": "string"
        },
        {
          "internalType": "string",
          "name": "_receiverEncryptedAESKey",
          "type": "string"
        },
        {
          "internalType": "address",
          "name": "_sender",
          "type": "address"
        }
      ],
      "name": "receiveFile",
      "outputs": [],
      "stateMutability": "nonpayable",
      "type": "function"
    },
    {
      "inputs": [
        {
          "internalType": "address",
          "name": "_user1",
          "type": "address"
        },
        {
          "internalType": "address",
          "name": "_user2",
          "type": "address"
        }
      ],
      "name": "getSentFiles",
      "outputs": [],
      "stateMutability": "view",
      "type": "function"
    },
    {
      "inputs": [
        {
          "internalType": "address",
          "name": "_user1",
          "type": "address"
        },
        {
          "internalType": "address",
          "name": "_user2",
          "type": "address"
        }
      ],
      "name": "getReceivedFiles",
      "outputs": [],
      "stateMutability": "view",
      "type": "function"
    },
    {
      "inputs": [],
      "name": "getChannelUsers",
      "outputs": [
        {
          "internalType": "address",
          "name": "",
          "type": "address"
        },
        {
          "internalType": "address",
          "name": "",
          "type": "address"
        }
      ],
      "stateMutability": "view",
      "type": "function"
    },
    {
      "inputs": [],
      "name": "getSharedFiles",
      "outputs": [
        {
          "internalType": "string[]",
          "name": "",
          "type": "string[]"
        },
        {
          "internalType": "string[]",
          "name": "",
          "type": "string[]"
        },
        {
          "internalType": "string[]",
          "name": "",
          "type": "string[]"
        },
        {
          "internalType": "string[]",
          "name": "",
          "type": "string[]"
        },
        {
          "internalType": "address[]",
          "name": "",
          "type": "address[]"
        },
        {
          "internalType": "address[]",
          "name": "",
          "type": "address[]"
        }
      ],
      "stateMutability": "view",
      "type": "function"
    },
    {
      "inputs": [
        {
          "internalType": "address",
          "name": "_user1",
          "type": "address"
        },
        {
          "internalType": "address",
          "name": "_user2",
          "type": "address"
        },
        {
          "internalType": "bool",
          "name": "_getSent",
          "type": "bool"
        }
      ],
      "name": "_calcArraySize",
      "outputs": [
        {
          "internalType": "uint256",
          "name": "",
          "type": "uint256"
        }
      ],
      "stateMutability": "view",
      "type": "function"
    }
  ],
  "bytecode": "0x60806040523480156200001157600080fd5b50604051620021443803806200214483398181016040528101906200003791906200012a565b816000806101000a81548173ffffffffffffffffffffffffffffffffffffffff021916908373ffffffffffffffffffffffffffffffffffffffff16021790555080600160006101000a81548173ffffffffffffffffffffffffffffffffffffffff021916908373ffffffffffffffffffffffffffffffffffffffff160217905550505062000171565b600080fd5b600073ffffffffffffffffffffffffffffffffffffffff82169050919050565b6000620000f282620000c5565b9050919050565b6200010481620000e5565b81146200011057600080fd5b50565b6000815190506200012481620000f9565b92915050565b60008060408385031215620001445762000143620000c0565b5b6000620001548582860162000113565b9250506020620001678582860162000113565b9150509250929050565b611fc380620001816000396000f3fe608060405234801561001057600080fd5b50600436106100925760003560e01c8063a6aeff5711610066578063a6aeff5714610122578063a73e75711461013e578063cb1a295f1461015a578063deb22e9a14610178578063e9ad32391461019657610092565b8062c8517c146100975780637c021b01146100c7578063914e3144146100e357806399c352e814610106575b600080fd5b6100b160048036038101906100ac91906118a7565b6101b5565b6040516100be9190611913565b60405180910390f35b6100e160048036038101906100dc919061192e565b6103ff565b005b6100eb6104c2565b6040516100fd96959493929190611b87565b60405180910390f35b610120600480360381019061011b919061192e565b610b65565b005b61013c60048036038101906101379190611d47565b610b78565b005b61015860048036038101906101539190611d47565b610c3d565b005b610162610d02565b60405161016f9190611e41565b60405180910390f35b610180610d28565b60405161018d9190611e41565b60405180910390f35b61019e610d4c565b6040516101ac929190611e5c565b60405180910390f35b6000806000905060005b6002805490508110156103f35783156102db578573ffffffffffffffffffffffffffffffffffffffff16600282815481106101fd576101fc611e85565b5b906000526020600020906006020160040160009054906101000a900473ffffffffffffffffffffffffffffffffffffffff1673ffffffffffffffffffffffffffffffffffffffff161480156102c257508473ffffffffffffffffffffffffffffffffffffffff166002828154811061027857610277611e85565b5b906000526020600020906006020160050160009054906101000a900473ffffffffffffffffffffffffffffffffffffffff1673ffffffffffffffffffffffffffffffffffffffff16145b156102d65781806102d290611ee3565b9250505b6103e0565b8573ffffffffffffffffffffffffffffffffffffffff166002828154811061030657610305611e85565b5b906000526020600020906006020160050160009054906101000a900473ffffffffffffffffffffffffffffffffffffffff1673ffffffffffffffffffffffffffffffffffffffff161480156103cb57508473ffffffffffffffffffffffffffffffffffffffff166002828154811061038157610380611e85565b5b906000526020600020906006020160040160009054906101000a900473ffffffffffffffffffffffffffffffffffffffff1673ffffffffffffffffffffffffffffffffffffffff16145b156103df5781806103db90611ee3565b9250505b5b80806103eb90611ee3565b9150506101bf565b50809150509392505050565b60008054906101000a900473ffffffffffffffffffffffffffffffffffffffff1673ffffffffffffffffffffffffffffffffffffffff163373ffffffffffffffffffffffffffffffffffffffff1614806104a65750600160009054906101000a900473ffffffffffffffffffffffffffffffffffffffff1673ffffffffffffffffffffffffffffffffffffffff163373ffffffffffffffffffffffffffffffffffffffff16145b6104af57600080fd5b6104bb82826000610d9b565b5050505050565b606080606080606080600060028054905067ffffffffffffffff8111156104ec576104eb611c1c565b5b60405190808252806020026020018201604052801561051f57816020015b606081526020019060019003908161050a5790505b509050600060028054905067ffffffffffffffff81111561054357610542611c1c565b5b60405190808252806020026020018201604052801561057657816020015b60608152602001906001900390816105615790505b509050600060028054905067ffffffffffffffff81111561059a57610599611c1c565b5b6040519080825280602002602001820160405280156105cd57816020015b60608152602001906001900390816105b85790505b509050600060028054905067ffffffffffffffff8111156105f1576105f0611c1c565b5b60405190808252806020026020018201604052801561062457816020015b606081526020019060019003908161060f5790505b509050600060028054905067ffffffffffffffff81111561064857610647611c1c565b5b6040519080825280602002602001820160405280156106765781602001602082028036833780820191505090505b509050600060028054905067ffffffffffffffff81111561069a57610699611c1c565b5b6040519080825280602002602001820160405280156106c85781602001602082028036833780820191505090505b50905060005b600280549050811015610b4457600281815481106106ef576106ee611e85565b5b9060005260206000209060060201600001805461070b90611f5b565b80601f016020809104026020016040519081016040528092919081815260200182805461073790611f5b565b80156107845780601f1061075957610100808354040283529160200191610784565b820191906000526020600020905b81548152906001019060200180831161076757829003601f168201915b505050505087828151811061079c5761079b611e85565b5b6020026020010181905250600281815481106107bb576107ba611e85565b5b906000526020600020906006020160010180546107d790611f5b565b80601f016020809104026020016040519081016040528092919081815260200182805461080390611f5b565b80156108505780601f1061082557610100808354040283529160200191610850565b820191906000526020600020905b81548152906001019060200180831161083357829003601f168201915b505050505086828151811061086857610867611e85565b5b60200260200101819052506002818154811061088757610886611e85565b5b906000526020600020906006020160020180546108a390611f5b565b80601f01602080910402602001604051908101604052809291908181526020018280546108cf90611f5b565b801561091c5780601f106108f15761010080835404028352916020019161091c565b820191906000526020600020905b8154815290600101906020018083116108ff57829003601f168201915b505050505085828151811061093457610933611e85565b5b60200260200101819052506002818154811061095357610952611e85565b5b9060005260206000209060060201600301805461096f90611f5b565b80601f016020809104026020016040519081016040528092919081815260200182805461099b90611f5b565b80156109e85780601f106109bd576101008083540402835291602001916109e8565b820191906000526020600020905b8154815290600101906020018083116109cb57829003601f168201915b5050505050848281518110610a00576109ff611e85565b5b602002602001018190525060028181548110610a1f57610a1e611e85565b5b906000526020600020906006020160040160009054906101000a900473ffffffffffffffffffffffffffffffffffffffff16838281518110610a6457610a63611e85565b5b602002602001019073ffffffffffffffffffffffffffffffffffffffff16908173ffffffffffffffffffffffffffffffffffffffff168152505060028181548110610ab257610ab1611e85565b5b906000526020600020906006020160050160009054906101000a900473ffffffffffffffffffffffffffffffffffffffff16828281518110610af757610af6611e85565b5b602002602001019073ffffffffffffffffffffffffffffffffffffffff16908173ffffffffffffffffffffffffffffffffffffffff16815250508080610b3c90611ee3565b9150506106ce565b508585858585859b509b509b509b509b509b50505050505050909192939495565b610b7182826001610d9b565b5050505050565b60008054906101000a900473ffffffffffffffffffffffffffffffffffffffff1673ffffffffffffffffffffffffffffffffffffffff163373ffffffffffffffffffffffffffffffffffffffff161480610c1f5750600160009054906101000a900473ffffffffffffffffffffffffffffffffffffffff1673ffffffffffffffffffffffffffffffffffffffff163373ffffffffffffffffffffffffffffffffffffffff16145b610c2857600080fd5b610c368585858533866115c4565b5050505050565b60008054906101000a900473ffffffffffffffffffffffffffffffffffffffff1673ffffffffffffffffffffffffffffffffffffffff163373ffffffffffffffffffffffffffffffffffffffff161480610ce45750600160009054906101000a900473ffffffffffffffffffffffffffffffffffffffff1673ffffffffffffffffffffffffffffffffffffffff163373ffffffffffffffffffffffffffffffffffffffff16145b610ced57600080fd5b610cfb8585858585336115c4565b5050505050565b600160009054906101000a900473ffffffffffffffffffffffffffffffffffffffff1681565b60008054906101000a900473ffffffffffffffffffffffffffffffffffffffff1681565b60008060008054906101000a900473ffffffffffffffffffffffffffffffffffffffff16600160009054906101000a900473ffffffffffffffffffffffffffffffffffffffff16915091509091565b60608060606000610dad8787876101b5565b905060008167ffffffffffffffff811115610dcb57610dca611c1c565b5b604051908082528060200260200182016040528015610dfe57816020015b6060815260200190600190039081610de95790505b50905060008267ffffffffffffffff811115610e1d57610e1c611c1c565b5b604051908082528060200260200182016040528015610e5057816020015b6060815260200190600190039081610e3b5790505b50905060008367ffffffffffffffff811115610e6f57610e6e611c1c565b5b604051908082528060200260200182016040528015610ea257816020015b6060815260200190600190039081610e8d5790505b5090506000805b6002805490508110156115ac57600115158a15151415611230578b73ffffffffffffffffffffffffffffffffffffffff1660028281548110610eee57610eed611e85565b5b906000526020600020906006020160040160009054906101000a900473ffffffffffffffffffffffffffffffffffffffff1673ffffffffffffffffffffffffffffffffffffffff16148015610fb357508a73ffffffffffffffffffffffffffffffffffffffff1660028281548110610f6957610f68611e85565b5b906000526020600020906006020160050160009054906101000a900473ffffffffffffffffffffffffffffffffffffffff1673ffffffffffffffffffffffffffffffffffffffff16145b1561122b5760028181548110610fcc57610fcb611e85565b5b90600052602060002090600602016000018054610fe890611f5b565b80601f016020809104026020016040519081016040528092919081815260200182805461101490611f5b565b80156110615780601f1061103657610100808354040283529160200191611061565b820191906000526020600020905b81548152906001019060200180831161104457829003601f168201915b505050505085838151811061107957611078611e85565b5b60200260200101819052506002818154811061109857611097611e85565b5b906000526020600020906006020160010180546110b490611f5b565b80601f01602080910402602001604051908101604052809291908181526020018280546110e090611f5b565b801561112d5780601f106111025761010080835404028352916020019161112d565b820191906000526020600020905b81548152906001019060200180831161111057829003601f168201915b505050505084838151811061114557611144611e85565b5b60200260200101819052506002818154811061116457611163611e85565b5b9060005260206000209060060201600201805461118090611f5b565b80601f01602080910402602001604051908101604052809291908181526020018280546111ac90611f5b565b80156111f95780601f106111ce576101008083540402835291602001916111f9565b820191906000526020600020905b8154815290600101906020018083116111dc57829003601f168201915b505050505083838151811061121157611210611e85565b5b6020026020010181905250818061122790611ee3565b9250505b611599565b8b73ffffffffffffffffffffffffffffffffffffffff166002828154811061125b5761125a611e85565b5b906000526020600020906006020160050160009054906101000a900473ffffffffffffffffffffffffffffffffffffffff1673ffffffffffffffffffffffffffffffffffffffff1614801561132057508a73ffffffffffffffffffffffffffffffffffffffff16600282815481106112d6576112d5611e85565b5b906000526020600020906006020160040160009054906101000a900473ffffffffffffffffffffffffffffffffffffffff1673ffffffffffffffffffffffffffffffffffffffff16145b15611598576002818154811061133957611338611e85565b5b9060005260206000209060060201600001805461135590611f5b565b80601f016020809104026020016040519081016040528092919081815260200182805461138190611f5b565b80156113ce5780601f106113a3576101008083540402835291602001916113ce565b820191906000526020600020905b8154815290600101906020018083116113b157829003601f168201915b50505050508583815181106113e6576113e5611e85565b5b60200260200101819052506002818154811061140557611404611e85565b5b9060005260206000209060060201600101805461142190611f5b565b80601f016020809104026020016040519081016040528092919081815260200182805461144d90611f5b565b801561149a5780601f1061146f5761010080835404028352916020019161149a565b820191906000526020600020905b81548152906001019060200180831161147d57829003601f168201915b50505050508483815181106114b2576114b1611e85565b5b6020026020010181905250600281815481106114d1576114d0611e85565b5b906000526020600020906006020160020180546114ed90611f5b565b80601f016020809104026020016040519081016040528092919081815260200182805461151990611f5b565b80156115665780601f1061153b57610100808354040283529160200191611566565b820191906000526020600020905b81548152906001019060200180831161154957829003601f168201915b505050505083838151811061157e5761157d611e85565b5b6020026020010181905250818061159490611ee3565b9250505b5b80806115a490611ee3565b915050610ea9565b50838383975097509750505050505093509350939050565b60006040518060c001604052808881526020018781526020018681526020018581526020018473ffffffffffffffffffffffffffffffffffffffff1681526020018373ffffffffffffffffffffffffffffffffffffffff1681525090506002819080600181540180825580915050600190039060005260206000209060060201600090919091909150600082015181600001908051906020019061166992919061175a565b50602082015181600101908051906020019061168692919061175a565b5060408201518160020190805190602001906116a392919061175a565b5060608201518160030190805190602001906116c092919061175a565b5060808201518160040160006101000a81548173ffffffffffffffffffffffffffffffffffffffff021916908373ffffffffffffffffffffffffffffffffffffffff16021790555060a08201518160050160006101000a81548173ffffffffffffffffffffffffffffffffffffffff021916908373ffffffffffffffffffffffffffffffffffffffff160217905550505050505050505050565b82805461176690611f5b565b90600052602060002090601f01602090048101928261178857600085556117cf565b82601f106117a157805160ff19168380011785556117cf565b828001600101855582156117cf579182015b828111156117ce5782518255916020019190600101906117b3565b5b5090506117dc91906117e0565b5090565b5b808211156117f95760008160009055506001016117e1565b5090565b6000604051905090565b600080fd5b600080fd5b600073ffffffffffffffffffffffffffffffffffffffff82169050919050565b600061183c82611811565b9050919050565b61184c81611831565b811461185757600080fd5b50565b60008135905061186981611843565b92915050565b60008115159050919050565b6118848161186f565b811461188f57600080fd5b50565b6000813590506118a18161187b565b92915050565b6000806000606084860312156118c0576118bf611807565b5b60006118ce8682870161185a565b93505060206118df8682870161185a565b92505060406118f086828701611892565b9150509250925092565b6000819050919050565b61190d816118fa565b82525050565b60006020820190506119286000830184611904565b92915050565b6000806040838503121561194557611944611807565b5b60006119538582860161185a565b92505060206119648582860161185a565b9150509250929050565b600081519050919050565b600082825260208201905092915050565b6000819050602082019050919050565b600081519050919050565b600082825260208201905092915050565b60005b838110156119d45780820151818401526020810190506119b9565b838111156119e3576000848401525b50505050565b6000601f19601f8301169050919050565b6000611a058261199a565b611a0f81856119a5565b9350611a1f8185602086016119b6565b611a28816119e9565b840191505092915050565b6000611a3f83836119fa565b905092915050565b6000602082019050919050565b6000611a5f8261196e565b611a698185611979565b935083602082028501611a7b8561198a565b8060005b85811015611ab75784840389528151611a988582611a33565b9450611aa383611a47565b925060208a01995050600181019050611a7f565b50829750879550505050505092915050565b600081519050919050565b600082825260208201905092915050565b6000819050602082019050919050565b611afe81611831565b82525050565b6000611b108383611af5565b60208301905092915050565b6000602082019050919050565b6000611b3482611ac9565b611b3e8185611ad4565b9350611b4983611ae5565b8060005b83811015611b7a578151611b618882611b04565b9750611b6c83611b1c565b925050600181019050611b4d565b5085935050505092915050565b600060c0820190508181036000830152611ba18189611a54565b90508181036020830152611bb58188611a54565b90508181036040830152611bc98187611a54565b90508181036060830152611bdd8186611a54565b90508181036080830152611bf18185611b29565b905081810360a0830152611c058184611b29565b9050979650505050505050565b600080fd5b600080fd5b7f4e487b7100000000000000000000000000000000000000000000000000000000600052604160045260246000fd5b611c54826119e9565b810181811067ffffffffffffffff82111715611c7357611c72611c1c565b5b80604052505050565b6000611c866117fd565b9050611c928282611c4b565b919050565b600067ffffffffffffffff821115611cb257611cb1611c1c565b5b611cbb826119e9565b9050602081019050919050565b82818337600083830152505050565b6000611cea611ce584611c97565b611c7c565b905082815260208101848484011115611d0657611d05611c17565b5b611d11848285611cc8565b509392505050565b600082601f830112611d2e57611d2d611c12565b5b8135611d3e848260208601611cd7565b91505092915050565b600080600080600060a08688031215611d6357611d62611807565b5b600086013567ffffffffffffffff811115611d8157611d8061180c565b5b611d8d88828901611d19565b955050602086013567ffffffffffffffff811115611dae57611dad61180c565b5b611dba88828901611d19565b945050604086013567ffffffffffffffff811115611ddb57611dda61180c565b5b611de788828901611d19565b935050606086013567ffffffffffffffff811115611e0857611e0761180c565b5b611e1488828901611d19565b9250506080611e258882890161185a565b9150509295509295909350565b611e3b81611831565b82525050565b6000602082019050611e566000830184611e32565b92915050565b6000604082019050611e716000830185611e32565b611e7e6020830184611e32565b9392505050565b7f4e487b7100000000000000000000000000000000000000000000000000000000600052603260045260246000fd5b7f4e487b7100000000000000000000000000000000000000000000000000000000600052601160045260246000fd5b6000611eee826118fa565b91507fffffffffffffffffffffffffffffffffffffffffffffffffffffffffffffffff821415611f2157611f20611eb4565b5b600182019050919050565b7f4e487b7100000000000000000000000000000000000000000000000000000000600052602260045260246000fd5b60006002820490506001821680611f7357607f821691505b60208210811415611f8757611f86611f2c565b5b5091905056fea2646970667358221220edfa53837282516cfaa1502d3e9fdfb332cac8e9a6e9ed3b77c502a660e7f32464736f6c634300080a0033",
  "immutableReferences": {},
  "source": "// SPDX-License-Identifier: MIT\npragma solidity >=0.4.21 <=0.8.13;\n\ncontract ShareChannel {\n\n  address public userA;\n  address public userB;\n  file[] sharedFiles;\n\n  struct file {\n    string fileName;\n    string ipfsHash;\n    string senderEncryptedAESKey;\n    string receiverEncryptedAESKey;\n    address sender;\n    address receiver;\n  }\n\n  constructor(address _userA, address _userB) {\n    userA = _userA;\n    userB = _userB;\n  }\n\n  modifier isPartOfChannel() {\n    require((msg.sender == userA) || (msg.sender == userB));\n    _;\n  }\n\n  function sendFile(\n    string memory _fileName,\n    string memory _ipfsHash,\n    string memory _senderEncryptedAESKey,\n    string memory _receiverEncryptedAESKey,\n    address _receiver\n  ) public isPartOfChannel {\n    _addFile(_fileName, _ipfsHash, _senderEncryptedAESKey, _receiverEncryptedAESKey, msg.sender, _receiver);\n  }\n  function receiveFile(\n    string memory _fileName,\n    string memory _ipfsHash,\n    string memory _senderEncryptedAESKey,\n    string memory _receiverEncryptedAESKey,\n    address _sender\n  ) public isPartOfChannel {\n    _addFile(_fileName, _ipfsHash, _senderEncryptedAESKey, _receiverEncryptedAESKey, _sender, msg.sender);\n  }\n\n  function getSentFiles(address _user1, address _user2) public view {\n    _findFiles(_user1, _user2, true);\n  }\n\n  function getReceivedFiles(address _user1, address _user2) public view isPartOfChannel {\n    _findFiles(_user1, _user2, false);\n  }\n\n  function getChannelUsers() public view returns(address, address){\n    return (userA, userB);\n  }\n\n  function getSharedFiles() public view returns (string[] memory,\n    string[] memory,\n    string[] memory,\n    string[] memory,\n    address[] memory,\n    address[] memory\n  ){\n    string[] memory fileName = new string[](sharedFiles.length);\n    string[] memory ipfsHash = new string[](sharedFiles.length);\n    string[] memory senderEncryptedAESKey = new string[](sharedFiles.length);\n    string[] memory receiverEncryptedAESKey = new string[](sharedFiles.length);\n    address[] memory sender = new address[](sharedFiles.length);\n    address[] memory receiver = new address[](sharedFiles.length);\n    for (uint i = 0; i < sharedFiles.length; i++) {\n        fileName[i] = sharedFiles[i].fileName;\n        ipfsHash[i] = sharedFiles[i].ipfsHash;\n        senderEncryptedAESKey[i] = sharedFiles[i].senderEncryptedAESKey;\n        receiverEncryptedAESKey[i] = sharedFiles[i].receiverEncryptedAESKey;\n        sender[i] = sharedFiles[i].sender;\n        receiver[i] = sharedFiles[i].receiver;\n    }\n    return (fileName, ipfsHash,senderEncryptedAESKey, receiverEncryptedAESKey,sender, receiver);\n  }\n\n  function _addFile(\n    string memory _fileName,\n    string memory _ipfsHash,\n    string memory _senderEncryptedAESKey,\n    string memory _receiverEncryptedAESKey,\n    address _sender,\n    address _receiver\n  ) private {\n    file memory newFile = file({\n      fileName: _fileName,\n      ipfsHash: _ipfsHash,\n      senderEncryptedAESKey: _senderEncryptedAESKey,\n      receiverEncryptedAESKey: _receiverEncryptedAESKey,\n      sender: _sender,\n      receiver: _receiver\n    });\n    sharedFiles.push(newFile);\n  }\n\n  function _findFiles(\n    address _user1, \n    address _user2,\n    bool _getSent\n  ) private view returns (\n    string[] memory,\n    string[] memory,\n    string[] memory\n    // string[] memory,\n    // address[] memory,\n    // address[] memory\n  ){\n    //Destructure the return values.\n    // (\n    //   string[] memory fileName,\n    //   string[] memory ipfsHash,\n    //   string[] memory senderEncryptedAESKey\n    // ) = _findFiles1(_user1, _user2, _getSent);\n\n    // (\n    //   string[] memory receiverEncryptedAESKey,\n    //   address[] memory sender,\n    //   address[] memory receiver\n    // ) = _findFiles2(_user1, _user2, _getSent);\n\n    uint arraySize = _calcArraySize(_user1, _user2, _getSent);\n\n    string[] memory fileName = new string[](arraySize);\n    string[] memory ipfsHash = new string[](arraySize);\n    string[] memory senderEncryptedAESKey = new string[](arraySize);\n\n    uint j = 0;\n    for(uint i = 0; i < sharedFiles.length; i++){\n      if(_getSent == true){\n        if(sharedFiles[i].sender == _user1 && sharedFiles[i].receiver == _user2){\n          fileName[j] = sharedFiles[i].fileName;\n          ipfsHash[j] = sharedFiles[i].ipfsHash;\n          senderEncryptedAESKey[j] = sharedFiles[i].senderEncryptedAESKey;\n          j++;\n        }\n      }\n      else {\n        if(sharedFiles[i].receiver == _user1 && sharedFiles[i].sender == _user2){\n          fileName[j] = sharedFiles[i].fileName;\n          ipfsHash[j] = sharedFiles[i].ipfsHash;\n          senderEncryptedAESKey[j] = sharedFiles[i].senderEncryptedAESKey;\n          j++;\n        }\n      }\n    }\n\n    return (\n      fileName,\n      ipfsHash,\n      senderEncryptedAESKey\n      // receiverEncryptedAESKey,\n      // sender,\n      // receiver\n    );\n  }\n\n  //Divide the function into two to avoid 'stack too deep' errors.\n\n  function _findFiles1(\n    address _user1,\n    address _user2, \n    bool _getSent\n  ) private view returns (\n    string[] memory,\n    string[] memory,\n    string[] memory\n  ) {\n\n    uint arraySize = _calcArraySize(_user1, _user2, _getSent);\n\n    string[] memory fileName = new string[](arraySize);\n    string[] memory ipfsHash = new string[](arraySize);\n    string[] memory senderEncryptedAESKey = new string[](arraySize);\n\n    uint j = 0;\n    for(uint i = 0; i < sharedFiles.length; i++){\n      if(_getSent){\n        if(sharedFiles[i].sender == _user1 && sharedFiles[i].receiver == _user2){\n          fileName[j] = sharedFiles[i].fileName;\n          ipfsHash[j] = sharedFiles[i].ipfsHash;\n          senderEncryptedAESKey[j] = sharedFiles[i].senderEncryptedAESKey;\n          j++;\n        }\n      }\n      else {\n        if(sharedFiles[i].receiver == _user1 && sharedFiles[i].sender == _user2){\n          fileName[j] = sharedFiles[i].fileName;\n          ipfsHash[j] = sharedFiles[i].ipfsHash;\n          senderEncryptedAESKey[j] = sharedFiles[i].senderEncryptedAESKey;\n          j++;\n        }\n      }\n    }\n  \n    return (\n      fileName, \n      ipfsHash, \n      senderEncryptedAESKey\n    );\n  }\n\n  function _findFiles2(\n    address _user1, \n    address _user2,\n    bool _getSent\n  ) private view returns (\n    string[] memory,\n    address[] memory,\n    address[] memory\n  ) {\n    uint arraySize = _calcArraySize(_user1, _user2, _getSent);\n\n    string[] memory receiverEncryptedAESKey = new string[](arraySize);\n    address[] memory sender = new address[](arraySize);\n    address[] memory receiver = new address[](arraySize);\n\n    uint j = 0;\n    for(uint i = 0; i < sharedFiles.length; i++){\n      if(_getSent){\n        if(sharedFiles[i].sender == _user1 && sharedFiles[i].receiver == _user2){\n          receiverEncryptedAESKey[j] = sharedFiles[i].receiverEncryptedAESKey;\n          sender[j] = sharedFiles[i].sender;\n          receiver[j] = sharedFiles[i].receiver;\n          j++;\n        }\n      }\n      else {\n        if(sharedFiles[i].receiver == _user1 && sharedFiles[i].sender == _user2){\n          receiverEncryptedAESKey[j] = sharedFiles[i].receiverEncryptedAESKey;\n          sender[j] = sharedFiles[i].sender;\n          receiver[j] = sharedFiles[i].receiver;\n          j++;\n        }\n      }\n    }\n\n    return (\n      receiverEncryptedAESKey,\n      sender,\n      receiver\n    );\n  }\n\n  function _calcArraySize(address _user1, address _user2, bool _getSent) public view returns(uint){\n    uint size = 0;\n    for(uint i = 0; i < sharedFiles.length; i++){\n      if(_getSent){\n        if(sharedFiles[i].sender == _user1 && sharedFiles[i].receiver == _user2){\n          size++;\n        }\n      }\n      else {\n        if(sharedFiles[i].receiver == _user1 && sharedFiles[i].sender == _user2){\n          size++;\n        }\n      }\n    }\n    return size;\n  }\n\n}",
  "sourcePath": "/home/ranasiddharth/ShareConnect/contracts/ShareChannel.sol",
  "compiler": {
    "name": "solc",
    "version": "0.8.10+commit.fc410830.Emscripten.clang"
  },
  "schemaVersion": "3.4.6",
  "updatedAt": "2022-04-15T13:11:47.116Z",
  "devdoc": {
    "kind": "dev",
    "methods": {},
    "version": 1
  },
  "userdoc": {
    "kind": "user",
    "methods": {},
    "version": 1
  }
}