{
  "contractName": "ShareChannel",
  "abi": [
    {
      "inputs": [
        {
          "internalType": "address",
          "name": "_userA",
          "type": "address"
        },
        {
          "internalType": "address",
          "name": "_userB",
          "type": "address"
        }
      ],
      "stateMutability": "nonpayable",
      "type": "constructor"
    },
    {
      "inputs": [
        {
          "internalType": "string",
          "name": "_fileName",
          "type": "string"
        },
        {
          "internalType": "string",
          "name": "_ipfsHash",
          "type": "string"
        },
        {
          "internalType": "string",
          "name": "_senderEncryptedAESKey",
          "type": "string"
        },
        {
          "internalType": "string",
          "name": "_receiverEncryptedAESKey",
          "type": "string"
        },
        {
          "internalType": "address",
          "name": "_receiver",
          "type": "address"
        }
      ],
      "name": "sendFile",
      "outputs": [],
      "stateMutability": "nonpayable",
      "type": "function"
    },
    {
      "inputs": [
        {
          "internalType": "string",
          "name": "_fileName",
          "type": "string"
        },
        {
          "internalType": "string",
          "name": "_ipfsHash",
          "type": "string"
        },
        {
          "internalType": "string",
          "name": "_senderEncryptedAESKey",
          "type": "string"
        },
        {
          "internalType": "string",
          "name": "_receiverEncryptedAESKey",
          "type": "string"
        },
        {
          "internalType": "address",
          "name": "_sender",
          "type": "address"
        }
      ],
      "name": "receiveFile",
      "outputs": [],
      "stateMutability": "nonpayable",
      "type": "function"
    },
    {
      "inputs": [
        {
          "internalType": "address",
          "name": "_user",
          "type": "address"
        }
      ],
      "name": "getSentFiles",
      "outputs": [],
      "stateMutability": "view",
      "type": "function"
    },
    {
      "inputs": [
        {
          "internalType": "address",
          "name": "_user",
          "type": "address"
        }
      ],
      "name": "getReceivedFiles",
      "outputs": [],
      "stateMutability": "view",
      "type": "function"
    }
  ],
  "bytecode": "0x60806040523480156200001157600080fd5b50604051620015673803806200156783398181016040528101906200003791906200012a565b816000806101000a81548173ffffffffffffffffffffffffffffffffffffffff021916908373ffffffffffffffffffffffffffffffffffffffff16021790555080600160006101000a81548173ffffffffffffffffffffffffffffffffffffffff021916908373ffffffffffffffffffffffffffffffffffffffff160217905550505062000171565b600080fd5b600073ffffffffffffffffffffffffffffffffffffffff82169050919050565b6000620000f282620000c5565b9050919050565b6200010481620000e5565b81146200011057600080fd5b50565b6000815190506200012481620000f9565b92915050565b60008060408385031215620001445762000143620000c0565b5b6000620001548582860162000113565b9250506020620001678582860162000113565b9150509250929050565b6113e680620001816000396000f3fe608060405234801561001057600080fd5b506004361061004c5760003560e01c80634266f8c51461005157806393b0394c1461006d578063a6aeff5714610089578063a73e7571146100a5575b600080fd5b61006b60048036038101906100669190611040565b6100c1565b005b61008760048036038101906100829190611040565b610180565b005b6100a3600480360381019061009e91906111b3565b61023f565b005b6100bf60048036038101906100ba91906111b3565b610304565b005b60008054906101000a900473ffffffffffffffffffffffffffffffffffffffff1673ffffffffffffffffffffffffffffffffffffffff163373ffffffffffffffffffffffffffffffffffffffff1614806101685750600160009054906101000a900473ffffffffffffffffffffffffffffffffffffffff1673ffffffffffffffffffffffffffffffffffffffff163373ffffffffffffffffffffffffffffffffffffffff16145b61017157600080fd5b61017c8160016103c9565b5050565b60008054906101000a900473ffffffffffffffffffffffffffffffffffffffff1673ffffffffffffffffffffffffffffffffffffffff163373ffffffffffffffffffffffffffffffffffffffff1614806102275750600160009054906101000a900473ffffffffffffffffffffffffffffffffffffffff1673ffffffffffffffffffffffffffffffffffffffff163373ffffffffffffffffffffffffffffffffffffffff16145b61023057600080fd5b61023b8160006103c9565b5050565b60008054906101000a900473ffffffffffffffffffffffffffffffffffffffff1673ffffffffffffffffffffffffffffffffffffffff163373ffffffffffffffffffffffffffffffffffffffff1614806102e65750600160009054906101000a900473ffffffffffffffffffffffffffffffffffffffff1673ffffffffffffffffffffffffffffffffffffffff163373ffffffffffffffffffffffffffffffffffffffff16145b6102ef57600080fd5b6102fd858585853386610d33565b5050505050565b60008054906101000a900473ffffffffffffffffffffffffffffffffffffffff1673ffffffffffffffffffffffffffffffffffffffff163373ffffffffffffffffffffffffffffffffffffffff1614806103ab5750600160009054906101000a900473ffffffffffffffffffffffffffffffffffffffff1673ffffffffffffffffffffffffffffffffffffffff163373ffffffffffffffffffffffffffffffffffffffff16145b6103b457600080fd5b6103c2858585858533610d33565b5050505050565b6060600080600090505b60028054905081101561050f578315610473578473ffffffffffffffffffffffffffffffffffffffff16600282815481106104115761041061129e565b5b906000526020600020906006020160040160009054906101000a900473ffffffffffffffffffffffffffffffffffffffff1673ffffffffffffffffffffffffffffffffffffffff16141561046e57818061046a90611306565b9250505b6104fc565b8473ffffffffffffffffffffffffffffffffffffffff166002828154811061049e5761049d61129e565b5b906000526020600020906006020160050160009054906101000a900473ffffffffffffffffffffffffffffffffffffffff1673ffffffffffffffffffffffffffffffffffffffff1614156104fb5781806104f790611306565b9250505b5b808061050790611306565b9150506103d3565b5060008167ffffffffffffffff81111561052c5761052b611088565b5b60405190808252806020026020018201604052801561056557816020015b610552610ec9565b81526020019060019003908161054a5790505b5090506000805b600280549050811015610d2657851561094b578673ffffffffffffffffffffffffffffffffffffffff16600282815481106105aa576105a961129e565b5b906000526020600020906006020160040160009054906101000a900473ffffffffffffffffffffffffffffffffffffffff1673ffffffffffffffffffffffffffffffffffffffff161415610946576002818154811061060c5761060b61129e565b5b90600052602060002090600602016040518060c00160405290816000820180546106359061137e565b80601f01602080910402602001604051908101604052809291908181526020018280546106619061137e565b80156106ae5780601f10610683576101008083540402835291602001916106ae565b820191906000526020600020905b81548152906001019060200180831161069157829003601f168201915b505050505081526020016001820180546106c79061137e565b80601f01602080910402602001604051908101604052809291908181526020018280546106f39061137e565b80156107405780601f1061071557610100808354040283529160200191610740565b820191906000526020600020905b81548152906001019060200180831161072357829003601f168201915b505050505081526020016002820180546107599061137e565b80601f01602080910402602001604051908101604052809291908181526020018280546107859061137e565b80156107d25780601f106107a7576101008083540402835291602001916107d2565b820191906000526020600020905b8154815290600101906020018083116107b557829003601f168201915b505050505081526020016003820180546107eb9061137e565b80601f01602080910402602001604051908101604052809291908181526020018280546108179061137e565b80156108645780601f1061083957610100808354040283529160200191610864565b820191906000526020600020905b81548152906001019060200180831161084757829003601f168201915b505050505081526020016004820160009054906101000a900473ffffffffffffffffffffffffffffffffffffffff1673ffffffffffffffffffffffffffffffffffffffff1673ffffffffffffffffffffffffffffffffffffffff1681526020016005820160009054906101000a900473ffffffffffffffffffffffffffffffffffffffff1673ffffffffffffffffffffffffffffffffffffffff1673ffffffffffffffffffffffffffffffffffffffff168152505083838151811061092c5761092b61129e565b5b6020026020010181905250818061094290611306565b9250505b610d13565b8673ffffffffffffffffffffffffffffffffffffffff16600282815481106109765761097561129e565b5b906000526020600020906006020160050160009054906101000a900473ffffffffffffffffffffffffffffffffffffffff1673ffffffffffffffffffffffffffffffffffffffff161415610d1257600281815481106109d8576109d761129e565b5b90600052602060002090600602016040518060c0016040529081600082018054610a019061137e565b80601f0160208091040260200160405190810160405280929190818152602001828054610a2d9061137e565b8015610a7a5780601f10610a4f57610100808354040283529160200191610a7a565b820191906000526020600020905b815481529060010190602001808311610a5d57829003601f168201915b50505050508152602001600182018054610a939061137e565b80601f0160208091040260200160405190810160405280929190818152602001828054610abf9061137e565b8015610b0c5780601f10610ae157610100808354040283529160200191610b0c565b820191906000526020600020905b815481529060010190602001808311610aef57829003601f168201915b50505050508152602001600282018054610b259061137e565b80601f0160208091040260200160405190810160405280929190818152602001828054610b519061137e565b8015610b9e5780601f10610b7357610100808354040283529160200191610b9e565b820191906000526020600020905b815481529060010190602001808311610b8157829003601f168201915b50505050508152602001600382018054610bb79061137e565b80601f0160208091040260200160405190810160405280929190818152602001828054610be39061137e565b8015610c305780601f10610c0557610100808354040283529160200191610c30565b820191906000526020600020905b815481529060010190602001808311610c1357829003601f168201915b505050505081526020016004820160009054906101000a900473ffffffffffffffffffffffffffffffffffffffff1673ffffffffffffffffffffffffffffffffffffffff1673ffffffffffffffffffffffffffffffffffffffff1681526020016005820160009054906101000a900473ffffffffffffffffffffffffffffffffffffffff1673ffffffffffffffffffffffffffffffffffffffff1673ffffffffffffffffffffffffffffffffffffffff1681525050838381518110610cf857610cf761129e565b5b60200260200101819052508180610d0e90611306565b9250505b5b8080610d1e90611306565b91505061056c565b5081935050505092915050565b60006040518060c001604052808881526020018781526020018681526020018581526020018473ffffffffffffffffffffffffffffffffffffffff1681526020018373ffffffffffffffffffffffffffffffffffffffff16815250905060028190806001815401808255809150506001900390600052602060002090600602016000909190919091506000820151816000019080519060200190610dd8929190610f2b565b506020820151816001019080519060200190610df5929190610f2b565b506040820151816002019080519060200190610e12929190610f2b565b506060820151816003019080519060200190610e2f929190610f2b565b5060808201518160040160006101000a81548173ffffffffffffffffffffffffffffffffffffffff021916908373ffffffffffffffffffffffffffffffffffffffff16021790555060a08201518160050160006101000a81548173ffffffffffffffffffffffffffffffffffffffff021916908373ffffffffffffffffffffffffffffffffffffffff160217905550505050505050505050565b6040518060c0016040528060608152602001606081526020016060815260200160608152602001600073ffffffffffffffffffffffffffffffffffffffff168152602001600073ffffffffffffffffffffffffffffffffffffffff1681525090565b828054610f379061137e565b90600052602060002090601f016020900481019282610f595760008555610fa0565b82601f10610f7257805160ff1916838001178555610fa0565b82800160010185558215610fa0579182015b82811115610f9f578251825591602001919060010190610f84565b5b509050610fad9190610fb1565b5090565b5b80821115610fca576000816000905550600101610fb2565b5090565b6000604051905090565b600080fd5b600080fd5b600073ffffffffffffffffffffffffffffffffffffffff82169050919050565b600061100d82610fe2565b9050919050565b61101d81611002565b811461102857600080fd5b50565b60008135905061103a81611014565b92915050565b60006020828403121561105657611055610fd8565b5b60006110648482850161102b565b91505092915050565b600080fd5b600080fd5b6000601f19601f8301169050919050565b7f4e487b7100000000000000000000000000000000000000000000000000000000600052604160045260246000fd5b6110c082611077565b810181811067ffffffffffffffff821117156110df576110de611088565b5b80604052505050565b60006110f2610fce565b90506110fe82826110b7565b919050565b600067ffffffffffffffff82111561111e5761111d611088565b5b61112782611077565b9050602081019050919050565b82818337600083830152505050565b600061115661115184611103565b6110e8565b90508281526020810184848401111561117257611171611072565b5b61117d848285611134565b509392505050565b600082601f83011261119a5761119961106d565b5b81356111aa848260208601611143565b91505092915050565b600080600080600060a086880312156111cf576111ce610fd8565b5b600086013567ffffffffffffffff8111156111ed576111ec610fdd565b5b6111f988828901611185565b955050602086013567ffffffffffffffff81111561121a57611219610fdd565b5b61122688828901611185565b945050604086013567ffffffffffffffff81111561124757611246610fdd565b5b61125388828901611185565b935050606086013567ffffffffffffffff81111561127457611273610fdd565b5b61128088828901611185565b92505060806112918882890161102b565b9150509295509295909350565b7f4e487b7100000000000000000000000000000000000000000000000000000000600052603260045260246000fd5b7f4e487b7100000000000000000000000000000000000000000000000000000000600052601160045260246000fd5b6000819050919050565b6000611311826112fc565b91507fffffffffffffffffffffffffffffffffffffffffffffffffffffffffffffffff821415611344576113436112cd565b5b600182019050919050565b7f4e487b7100000000000000000000000000000000000000000000000000000000600052602260045260246000fd5b6000600282049050600182168061139657607f821691505b602082108114156113aa576113a961134f565b5b5091905056fea2646970667358221220cdc2fec2fb5907a9ba1638854c8c2043669d20976ad71473aa2b395f54e3e56c64736f6c634300080a0033",
  "immutableReferences": {},
  "source": "// SPDX-License-Identifier: MIT\npragma solidity >=0.4.21 <=0.8.13;\n\ncontract ShareChannel {\n\n  address userA;\n  address userB;\n  file[] sharedFiles;\n\n  struct file {\n    string fileName;\n    string ipfsHash;\n    string senderEncryptedAESKey;\n    string receiverEncryptedAESKey;\n    address sender;\n    address receiver;\n  }\n\n  constructor(address _userA, address _userB) {\n    userA = _userA;\n    userB = _userB;\n  }\n\n  modifier isPartOfChannel() {\n    require((msg.sender == userA) || (msg.sender == userB));\n    _;\n  }\n\n  function sendFile(\n    string memory _fileName,\n    string memory _ipfsHash,\n    string memory _senderEncryptedAESKey,\n    string memory _receiverEncryptedAESKey,\n    address _receiver\n  ) public isPartOfChannel {\n    _addFile(_fileName, _ipfsHash, _senderEncryptedAESKey, _receiverEncryptedAESKey, msg.sender, _receiver);\n  }\n  function receiveFile(\n    string memory _fileName,\n    string memory _ipfsHash,\n    string memory _senderEncryptedAESKey,\n    string memory _receiverEncryptedAESKey,\n    address _sender\n  ) public isPartOfChannel {\n    _addFile(_fileName, _ipfsHash, _senderEncryptedAESKey, _receiverEncryptedAESKey, _sender, msg.sender);\n  }\n\n  function getSentFiles(address _user) public view isPartOfChannel {\n    _findFiles(_user, true);\n  }\n\n  function getReceivedFiles(address _user) public view isPartOfChannel {\n    _findFiles(_user, false);\n  }\n\n  function _addFile(\n    string memory _fileName,\n    string memory _ipfsHash,\n    string memory _senderEncryptedAESKey,\n    string memory _receiverEncryptedAESKey,\n    address _sender,\n    address _receiver\n  ) private {\n    file memory newFile = file({\n      fileName: _fileName,\n      ipfsHash: _ipfsHash,\n      senderEncryptedAESKey: _senderEncryptedAESKey,\n      receiverEncryptedAESKey: _receiverEncryptedAESKey,\n      sender: _sender,\n      receiver: _receiver\n    });\n    sharedFiles.push(newFile);\n  }\n\n  function _findFiles(address _user, bool _getSent) private view returns (file[] memory) {\n    uint arraySize;\n    for(uint i = 0; i < sharedFiles.length; i++){\n      if(_getSent){\n        if(sharedFiles[i].sender == _user){\n          arraySize++;\n        }\n      }\n      else {\n        if(sharedFiles[i].receiver == _user){\n          arraySize++;\n        }\n      }\n    }\n\n    file[] memory files = new file[](arraySize);\n    uint j = 0;\n\n    for(uint i = 0; i < sharedFiles.length; i++){\n      if(_getSent){\n        if(sharedFiles[i].sender == _user){\n          files[j] = sharedFiles[i];\n          j++;\n        }\n      }\n      else {\n        if(sharedFiles[i].receiver == _user){\n          files[j] = sharedFiles[i];\n          j++;\n        }\n      }\n    }\n    return files;\n  }\n\n}\n",
  "sourcePath": "/home/ranasiddharth/ShareConnect/contracts/ShareChannel.sol",
  "compiler": {
    "name": "solc",
    "version": "0.8.10+commit.fc410830.Emscripten.clang"
  },
  "schemaVersion": "3.4.6",
  "updatedAt": "2022-04-07T19:18:09.943Z",
  "devdoc": {
    "kind": "dev",
    "methods": {},
    "version": 1
  },
  "userdoc": {
    "kind": "user",
    "methods": {},
    "version": 1
  }
}