{
  "contractName": "ShareChannel",
  "abi": [
    {
      "inputs": [
        {
          "internalType": "address",
          "name": "_userA",
          "type": "address"
        },
        {
          "internalType": "address",
          "name": "_userB",
          "type": "address"
        }
      ],
      "stateMutability": "nonpayable",
      "type": "constructor"
    },
    {
      "inputs": [],
      "name": "userA",
      "outputs": [
        {
          "internalType": "address",
          "name": "",
          "type": "address"
        }
      ],
      "stateMutability": "view",
      "type": "function"
    },
    {
      "inputs": [],
      "name": "userB",
      "outputs": [
        {
          "internalType": "address",
          "name": "",
          "type": "address"
        }
      ],
      "stateMutability": "view",
      "type": "function"
    },
    {
      "inputs": [
        {
          "internalType": "string",
          "name": "_fileName",
          "type": "string"
        },
        {
          "internalType": "string",
          "name": "_ipfsHash",
          "type": "string"
        },
        {
          "internalType": "string",
          "name": "_senderEncryptedAESKey",
          "type": "string"
        },
        {
          "internalType": "string",
          "name": "_receiverEncryptedAESKey",
          "type": "string"
        },
        {
          "internalType": "address",
          "name": "_receiver",
          "type": "address"
        }
      ],
      "name": "sendFile",
      "outputs": [],
      "stateMutability": "nonpayable",
      "type": "function"
    },
    {
      "inputs": [
        {
          "internalType": "string",
          "name": "_fileName",
          "type": "string"
        },
        {
          "internalType": "string",
          "name": "_ipfsHash",
          "type": "string"
        },
        {
          "internalType": "string",
          "name": "_senderEncryptedAESKey",
          "type": "string"
        },
        {
          "internalType": "string",
          "name": "_receiverEncryptedAESKey",
          "type": "string"
        },
        {
          "internalType": "address",
          "name": "_sender",
          "type": "address"
        }
      ],
      "name": "receiveFile",
      "outputs": [],
      "stateMutability": "nonpayable",
      "type": "function"
    },
    {
      "inputs": [
        {
          "internalType": "address",
          "name": "_user1",
          "type": "address"
        },
        {
          "internalType": "address",
          "name": "_user2",
          "type": "address"
        }
      ],
      "name": "getSentFiles1",
      "outputs": [
        {
          "internalType": "string[]",
          "name": "",
          "type": "string[]"
        },
        {
          "internalType": "string[]",
          "name": "",
          "type": "string[]"
        },
        {
          "internalType": "string[]",
          "name": "",
          "type": "string[]"
        }
      ],
      "stateMutability": "view",
      "type": "function"
    },
    {
      "inputs": [
        {
          "internalType": "address",
          "name": "_user1",
          "type": "address"
        },
        {
          "internalType": "address",
          "name": "_user2",
          "type": "address"
        }
      ],
      "name": "getSentFiles2",
      "outputs": [
        {
          "internalType": "string[]",
          "name": "",
          "type": "string[]"
        },
        {
          "internalType": "address[]",
          "name": "",
          "type": "address[]"
        },
        {
          "internalType": "address[]",
          "name": "",
          "type": "address[]"
        }
      ],
      "stateMutability": "view",
      "type": "function"
    },
    {
      "inputs": [
        {
          "internalType": "address",
          "name": "_user1",
          "type": "address"
        },
        {
          "internalType": "address",
          "name": "_user2",
          "type": "address"
        }
      ],
      "name": "getReceivedFiles",
      "outputs": [],
      "stateMutability": "view",
      "type": "function"
    },
    {
      "inputs": [],
      "name": "getChannelUsers",
      "outputs": [
        {
          "internalType": "address",
          "name": "",
          "type": "address"
        },
        {
          "internalType": "address",
          "name": "",
          "type": "address"
        }
      ],
      "stateMutability": "view",
      "type": "function"
    },
    {
      "inputs": [],
      "name": "getSharedFiles",
      "outputs": [
        {
          "internalType": "string[]",
          "name": "",
          "type": "string[]"
        },
        {
          "internalType": "string[]",
          "name": "",
          "type": "string[]"
        },
        {
          "internalType": "string[]",
          "name": "",
          "type": "string[]"
        },
        {
          "internalType": "string[]",
          "name": "",
          "type": "string[]"
        },
        {
          "internalType": "address[]",
          "name": "",
          "type": "address[]"
        },
        {
          "internalType": "address[]",
          "name": "",
          "type": "address[]"
        }
      ],
      "stateMutability": "view",
      "type": "function"
    },
    {
      "inputs": [
        {
          "internalType": "address",
          "name": "_user1",
          "type": "address"
        },
        {
          "internalType": "address",
          "name": "_user2",
          "type": "address"
        },
        {
          "internalType": "bool",
          "name": "_getSent",
          "type": "bool"
        }
      ],
      "name": "_calcArraySize",
      "outputs": [
        {
          "internalType": "uint256",
          "name": "",
          "type": "uint256"
        }
      ],
      "stateMutability": "view",
      "type": "function"
    }
  ],
  "bytecode": "0x60806040523480156200001157600080fd5b5060405162002d8438038062002d8483398181016040528101906200003791906200012a565b816000806101000a81548173ffffffffffffffffffffffffffffffffffffffff021916908373ffffffffffffffffffffffffffffffffffffffff16021790555080600160006101000a81548173ffffffffffffffffffffffffffffffffffffffff021916908373ffffffffffffffffffffffffffffffffffffffff160217905550505062000171565b600080fd5b600073ffffffffffffffffffffffffffffffffffffffff82169050919050565b6000620000f282620000c5565b9050919050565b6200010481620000e5565b81146200011057600080fd5b50565b6000815190506200012481620000f9565b92915050565b60008060408385031215620001445762000143620000c0565b5b6000620001548582860162000113565b9250506020620001678582860162000113565b9150509250929050565b612c0380620001816000396000f3fe608060405234801561001057600080fd5b506004361061009d5760003560e01c8063a6aeff5711610066578063a6aeff5714610175578063a73e757114610191578063cb1a295f146101ad578063deb22e9a146101cb578063e9ad3239146101e95761009d565b8062c8517c146100a25780631a936e9e146100d257806377e371e6146101045780637c021b0114610136578063914e314414610152575b600080fd5b6100bc60048036038101906100b791906123f9565b610208565b6040516100c99190612465565b60405180910390f35b6100ec60048036038101906100e79190612480565b610452565b6040516100fb9392919061261b565b60405180910390f35b61011e60048036038101906101199190612480565b610a19565b60405161012d93929190612725565b60405180910390f35b610150600480360381019061014b9190612480565b610f64565b005b61015a611027565b60405161016c96959493929190612771565b60405180910390f35b61018f600480360381019061018a9190612931565b6116ca565b005b6101ab60048036038101906101a69190612931565b61178f565b005b6101b5611854565b6040516101c29190612a2b565b60405180910390f35b6101d361187a565b6040516101e09190612a2b565b60405180910390f35b6101f161189e565b6040516101ff929190612a46565b60405180910390f35b6000806000905060005b60028054905081101561044657831561032e578573ffffffffffffffffffffffffffffffffffffffff16600282815481106102505761024f612a6f565b5b906000526020600020906006020160040160009054906101000a900473ffffffffffffffffffffffffffffffffffffffff1673ffffffffffffffffffffffffffffffffffffffff1614801561031557508473ffffffffffffffffffffffffffffffffffffffff16600282815481106102cb576102ca612a6f565b5b906000526020600020906006020160050160009054906101000a900473ffffffffffffffffffffffffffffffffffffffff1673ffffffffffffffffffffffffffffffffffffffff16145b1561032957818061032590612acd565b9250505b610433565b8573ffffffffffffffffffffffffffffffffffffffff166002828154811061035957610358612a6f565b5b906000526020600020906006020160050160009054906101000a900473ffffffffffffffffffffffffffffffffffffffff1673ffffffffffffffffffffffffffffffffffffffff1614801561041e57508473ffffffffffffffffffffffffffffffffffffffff16600282815481106103d4576103d3612a6f565b5b906000526020600020906006020160040160009054906101000a900473ffffffffffffffffffffffffffffffffffffffff1673ffffffffffffffffffffffffffffffffffffffff16145b1561043257818061042e90612acd565b9250505b5b808061043e90612acd565b915050610212565b50809150509392505050565b60608060606000805b60028054905081101561057f578673ffffffffffffffffffffffffffffffffffffffff166002828154811061049357610492612a6f565b5b906000526020600020906006020160040160009054906101000a900473ffffffffffffffffffffffffffffffffffffffff1673ffffffffffffffffffffffffffffffffffffffff1614801561055857508573ffffffffffffffffffffffffffffffffffffffff166002828154811061050e5761050d612a6f565b5b906000526020600020906006020160050160009054906101000a900473ffffffffffffffffffffffffffffffffffffffff1673ffffffffffffffffffffffffffffffffffffffff16145b1561056c57818061056890612acd565b9250505b808061057790612acd565b91505061045b565b5060008167ffffffffffffffff81111561059c5761059b612806565b5b6040519080825280602002602001820160405280156105cf57816020015b60608152602001906001900390816105ba5790505b50905060008267ffffffffffffffff8111156105ee576105ed612806565b5b60405190808252806020026020018201604052801561062157816020015b606081526020019060019003908161060c5790505b50905060008367ffffffffffffffff8111156106405761063f612806565b5b60405190808252806020026020018201604052801561067357816020015b606081526020019060019003908161065e5790505b5090506000805b600280549050811015610a03578a73ffffffffffffffffffffffffffffffffffffffff16600282815481106106b2576106b1612a6f565b5b906000526020600020906006020160040160009054906101000a900473ffffffffffffffffffffffffffffffffffffffff1673ffffffffffffffffffffffffffffffffffffffff1614801561077757508973ffffffffffffffffffffffffffffffffffffffff166002828154811061072d5761072c612a6f565b5b906000526020600020906006020160050160009054906101000a900473ffffffffffffffffffffffffffffffffffffffff1673ffffffffffffffffffffffffffffffffffffffff16145b156109f057600281815481106107905761078f612a6f565b5b906000526020600020906006020160000180546107ac90612b45565b80601f01602080910402602001604051908101604052809291908181526020018280546107d890612b45565b80156108255780601f106107fa57610100808354040283529160200191610825565b820191906000526020600020905b81548152906001019060200180831161080857829003601f168201915b505050505085838151811061083d5761083c612a6f565b5b60200260200101819052506002818154811061085c5761085b612a6f565b5b9060005260206000209060060201600101805461087890612b45565b80601f01602080910402602001604051908101604052809291908181526020018280546108a490612b45565b80156108f15780601f106108c6576101008083540402835291602001916108f1565b820191906000526020600020905b8154815290600101906020018083116108d457829003601f168201915b505050505084838151811061090957610908612a6f565b5b60200260200101819052506002818154811061092857610927612a6f565b5b9060005260206000209060060201600201805461094490612b45565b80601f016020809104026020016040519081016040528092919081815260200182805461097090612b45565b80156109bd5780601f10610992576101008083540402835291602001916109bd565b820191906000526020600020905b8154815290600101906020018083116109a057829003601f168201915b50505050508383815181106109d5576109d4612a6f565b5b60200260200101819052506001826109ed9190612b77565b91505b80806109fb90612acd565b91505061067a565b5083838397509750975050505050509250925092565b60608060606000805b600280549050811015610b46578673ffffffffffffffffffffffffffffffffffffffff1660028281548110610a5a57610a59612a6f565b5b906000526020600020906006020160040160009054906101000a900473ffffffffffffffffffffffffffffffffffffffff1673ffffffffffffffffffffffffffffffffffffffff16148015610b1f57508573ffffffffffffffffffffffffffffffffffffffff1660028281548110610ad557610ad4612a6f565b5b906000526020600020906006020160050160009054906101000a900473ffffffffffffffffffffffffffffffffffffffff1673ffffffffffffffffffffffffffffffffffffffff16145b15610b33578180610b2f90612acd565b9250505b8080610b3e90612acd565b915050610a22565b5060008167ffffffffffffffff811115610b6357610b62612806565b5b604051908082528060200260200182016040528015610b9657816020015b6060815260200190600190039081610b815790505b50905060008267ffffffffffffffff811115610bb557610bb4612806565b5b604051908082528060200260200182016040528015610be35781602001602082028036833780820191505090505b50905060008367ffffffffffffffff811115610c0257610c01612806565b5b604051908082528060200260200182016040528015610c305781602001602082028036833780820191505090505b5090506000805b600280549050811015610f4e578a73ffffffffffffffffffffffffffffffffffffffff1660028281548110610c6f57610c6e612a6f565b5b906000526020600020906006020160040160009054906101000a900473ffffffffffffffffffffffffffffffffffffffff1673ffffffffffffffffffffffffffffffffffffffff16148015610d3457508973ffffffffffffffffffffffffffffffffffffffff1660028281548110610cea57610ce9612a6f565b5b906000526020600020906006020160050160009054906101000a900473ffffffffffffffffffffffffffffffffffffffff1673ffffffffffffffffffffffffffffffffffffffff16145b15610f3b5760028181548110610d4d57610d4c612a6f565b5b90600052602060002090600602016003018054610d6990612b45565b80601f0160208091040260200160405190810160405280929190818152602001828054610d9590612b45565b8015610de25780601f10610db757610100808354040283529160200191610de2565b820191906000526020600020905b815481529060010190602001808311610dc557829003601f168201915b5050505050858381518110610dfa57610df9612a6f565b5b602002602001018190525060028181548110610e1957610e18612a6f565b5b906000526020600020906006020160040160009054906101000a900473ffffffffffffffffffffffffffffffffffffffff16848381518110610e5e57610e5d612a6f565b5b602002602001019073ffffffffffffffffffffffffffffffffffffffff16908173ffffffffffffffffffffffffffffffffffffffff168152505060028181548110610eac57610eab612a6f565b5b906000526020600020906006020160050160009054906101000a900473ffffffffffffffffffffffffffffffffffffffff16838381518110610ef157610ef0612a6f565b5b602002602001019073ffffffffffffffffffffffffffffffffffffffff16908173ffffffffffffffffffffffffffffffffffffffff1681525050600182610f389190612b77565b91505b8080610f4690612acd565b915050610c37565b5083838397509750975050505050509250925092565b60008054906101000a900473ffffffffffffffffffffffffffffffffffffffff1673ffffffffffffffffffffffffffffffffffffffff163373ffffffffffffffffffffffffffffffffffffffff16148061100b5750600160009054906101000a900473ffffffffffffffffffffffffffffffffffffffff1673ffffffffffffffffffffffffffffffffffffffff163373ffffffffffffffffffffffffffffffffffffffff16145b61101457600080fd5b611020828260006118ed565b5050505050565b606080606080606080600060028054905067ffffffffffffffff81111561105157611050612806565b5b60405190808252806020026020018201604052801561108457816020015b606081526020019060019003908161106f5790505b509050600060028054905067ffffffffffffffff8111156110a8576110a7612806565b5b6040519080825280602002602001820160405280156110db57816020015b60608152602001906001900390816110c65790505b509050600060028054905067ffffffffffffffff8111156110ff576110fe612806565b5b60405190808252806020026020018201604052801561113257816020015b606081526020019060019003908161111d5790505b509050600060028054905067ffffffffffffffff81111561115657611155612806565b5b60405190808252806020026020018201604052801561118957816020015b60608152602001906001900390816111745790505b509050600060028054905067ffffffffffffffff8111156111ad576111ac612806565b5b6040519080825280602002602001820160405280156111db5781602001602082028036833780820191505090505b509050600060028054905067ffffffffffffffff8111156111ff576111fe612806565b5b60405190808252806020026020018201604052801561122d5781602001602082028036833780820191505090505b50905060005b6002805490508110156116a9576002818154811061125457611253612a6f565b5b9060005260206000209060060201600001805461127090612b45565b80601f016020809104026020016040519081016040528092919081815260200182805461129c90612b45565b80156112e95780601f106112be576101008083540402835291602001916112e9565b820191906000526020600020905b8154815290600101906020018083116112cc57829003601f168201915b505050505087828151811061130157611300612a6f565b5b6020026020010181905250600281815481106113205761131f612a6f565b5b9060005260206000209060060201600101805461133c90612b45565b80601f016020809104026020016040519081016040528092919081815260200182805461136890612b45565b80156113b55780601f1061138a576101008083540402835291602001916113b5565b820191906000526020600020905b81548152906001019060200180831161139857829003601f168201915b50505050508682815181106113cd576113cc612a6f565b5b6020026020010181905250600281815481106113ec576113eb612a6f565b5b9060005260206000209060060201600201805461140890612b45565b80601f016020809104026020016040519081016040528092919081815260200182805461143490612b45565b80156114815780601f1061145657610100808354040283529160200191611481565b820191906000526020600020905b81548152906001019060200180831161146457829003601f168201915b505050505085828151811061149957611498612a6f565b5b6020026020010181905250600281815481106114b8576114b7612a6f565b5b906000526020600020906006020160030180546114d490612b45565b80601f016020809104026020016040519081016040528092919081815260200182805461150090612b45565b801561154d5780601f106115225761010080835404028352916020019161154d565b820191906000526020600020905b81548152906001019060200180831161153057829003601f168201915b505050505084828151811061156557611564612a6f565b5b60200260200101819052506002818154811061158457611583612a6f565b5b906000526020600020906006020160040160009054906101000a900473ffffffffffffffffffffffffffffffffffffffff168382815181106115c9576115c8612a6f565b5b602002602001019073ffffffffffffffffffffffffffffffffffffffff16908173ffffffffffffffffffffffffffffffffffffffff16815250506002818154811061161757611616612a6f565b5b906000526020600020906006020160050160009054906101000a900473ffffffffffffffffffffffffffffffffffffffff1682828151811061165c5761165b612a6f565b5b602002602001019073ffffffffffffffffffffffffffffffffffffffff16908173ffffffffffffffffffffffffffffffffffffffff168152505080806116a190612acd565b915050611233565b508585858585859b509b509b509b509b509b50505050505050909192939495565b60008054906101000a900473ffffffffffffffffffffffffffffffffffffffff1673ffffffffffffffffffffffffffffffffffffffff163373ffffffffffffffffffffffffffffffffffffffff1614806117715750600160009054906101000a900473ffffffffffffffffffffffffffffffffffffffff1673ffffffffffffffffffffffffffffffffffffffff163373ffffffffffffffffffffffffffffffffffffffff16145b61177a57600080fd5b611788858585853386612116565b5050505050565b60008054906101000a900473ffffffffffffffffffffffffffffffffffffffff1673ffffffffffffffffffffffffffffffffffffffff163373ffffffffffffffffffffffffffffffffffffffff1614806118365750600160009054906101000a900473ffffffffffffffffffffffffffffffffffffffff1673ffffffffffffffffffffffffffffffffffffffff163373ffffffffffffffffffffffffffffffffffffffff16145b61183f57600080fd5b61184d858585858533612116565b5050505050565b600160009054906101000a900473ffffffffffffffffffffffffffffffffffffffff1681565b60008054906101000a900473ffffffffffffffffffffffffffffffffffffffff1681565b60008060008054906101000a900473ffffffffffffffffffffffffffffffffffffffff16600160009054906101000a900473ffffffffffffffffffffffffffffffffffffffff16915091509091565b606080606060006118ff878787610208565b905060008167ffffffffffffffff81111561191d5761191c612806565b5b60405190808252806020026020018201604052801561195057816020015b606081526020019060019003908161193b5790505b50905060008267ffffffffffffffff81111561196f5761196e612806565b5b6040519080825280602002602001820160405280156119a257816020015b606081526020019060019003908161198d5790505b50905060008367ffffffffffffffff8111156119c1576119c0612806565b5b6040519080825280602002602001820160405280156119f457816020015b60608152602001906001900390816119df5790505b5090506000805b6002805490508110156120fe57600115158a15151415611d82578b73ffffffffffffffffffffffffffffffffffffffff1660028281548110611a4057611a3f612a6f565b5b906000526020600020906006020160040160009054906101000a900473ffffffffffffffffffffffffffffffffffffffff1673ffffffffffffffffffffffffffffffffffffffff16148015611b0557508a73ffffffffffffffffffffffffffffffffffffffff1660028281548110611abb57611aba612a6f565b5b906000526020600020906006020160050160009054906101000a900473ffffffffffffffffffffffffffffffffffffffff1673ffffffffffffffffffffffffffffffffffffffff16145b15611d7d5760028181548110611b1e57611b1d612a6f565b5b90600052602060002090600602016000018054611b3a90612b45565b80601f0160208091040260200160405190810160405280929190818152602001828054611b6690612b45565b8015611bb35780601f10611b8857610100808354040283529160200191611bb3565b820191906000526020600020905b815481529060010190602001808311611b9657829003601f168201915b5050505050858381518110611bcb57611bca612a6f565b5b602002602001018190525060028181548110611bea57611be9612a6f565b5b90600052602060002090600602016001018054611c0690612b45565b80601f0160208091040260200160405190810160405280929190818152602001828054611c3290612b45565b8015611c7f5780601f10611c5457610100808354040283529160200191611c7f565b820191906000526020600020905b815481529060010190602001808311611c6257829003601f168201915b5050505050848381518110611c9757611c96612a6f565b5b602002602001018190525060028181548110611cb657611cb5612a6f565b5b90600052602060002090600602016002018054611cd290612b45565b80601f0160208091040260200160405190810160405280929190818152602001828054611cfe90612b45565b8015611d4b5780601f10611d2057610100808354040283529160200191611d4b565b820191906000526020600020905b815481529060010190602001808311611d2e57829003601f168201915b5050505050838381518110611d6357611d62612a6f565b5b60200260200101819052508180611d7990612acd565b9250505b6120eb565b8b73ffffffffffffffffffffffffffffffffffffffff1660028281548110611dad57611dac612a6f565b5b906000526020600020906006020160050160009054906101000a900473ffffffffffffffffffffffffffffffffffffffff1673ffffffffffffffffffffffffffffffffffffffff16148015611e7257508a73ffffffffffffffffffffffffffffffffffffffff1660028281548110611e2857611e27612a6f565b5b906000526020600020906006020160040160009054906101000a900473ffffffffffffffffffffffffffffffffffffffff1673ffffffffffffffffffffffffffffffffffffffff16145b156120ea5760028181548110611e8b57611e8a612a6f565b5b90600052602060002090600602016000018054611ea790612b45565b80601f0160208091040260200160405190810160405280929190818152602001828054611ed390612b45565b8015611f205780601f10611ef557610100808354040283529160200191611f20565b820191906000526020600020905b815481529060010190602001808311611f0357829003601f168201915b5050505050858381518110611f3857611f37612a6f565b5b602002602001018190525060028181548110611f5757611f56612a6f565b5b90600052602060002090600602016001018054611f7390612b45565b80601f0160208091040260200160405190810160405280929190818152602001828054611f9f90612b45565b8015611fec5780601f10611fc157610100808354040283529160200191611fec565b820191906000526020600020905b815481529060010190602001808311611fcf57829003601f168201915b505050505084838151811061200457612003612a6f565b5b60200260200101819052506002818154811061202357612022612a6f565b5b9060005260206000209060060201600201805461203f90612b45565b80601f016020809104026020016040519081016040528092919081815260200182805461206b90612b45565b80156120b85780601f1061208d576101008083540402835291602001916120b8565b820191906000526020600020905b81548152906001019060200180831161209b57829003601f168201915b50505050508383815181106120d0576120cf612a6f565b5b602002602001018190525081806120e690612acd565b9250505b5b80806120f690612acd565b9150506119fb565b50838383975097509750505050505093509350939050565b60006040518060c001604052808881526020018781526020018681526020018581526020018473ffffffffffffffffffffffffffffffffffffffff1681526020018373ffffffffffffffffffffffffffffffffffffffff168152509050600281908060018154018082558091505060019003906000526020600020906006020160009091909190915060008201518160000190805190602001906121bb9291906122ac565b5060208201518160010190805190602001906121d89291906122ac565b5060408201518160020190805190602001906121f59291906122ac565b5060608201518160030190805190602001906122129291906122ac565b5060808201518160040160006101000a81548173ffffffffffffffffffffffffffffffffffffffff021916908373ffffffffffffffffffffffffffffffffffffffff16021790555060a08201518160050160006101000a81548173ffffffffffffffffffffffffffffffffffffffff021916908373ffffffffffffffffffffffffffffffffffffffff160217905550505050505050505050565b8280546122b890612b45565b90600052602060002090601f0160209004810192826122da5760008555612321565b82601f106122f357805160ff1916838001178555612321565b82800160010185558215612321579182015b82811115612320578251825591602001919060010190612305565b5b50905061232e9190612332565b5090565b5b8082111561234b576000816000905550600101612333565b5090565b6000604051905090565b600080fd5b600080fd5b600073ffffffffffffffffffffffffffffffffffffffff82169050919050565b600061238e82612363565b9050919050565b61239e81612383565b81146123a957600080fd5b50565b6000813590506123bb81612395565b92915050565b60008115159050919050565b6123d6816123c1565b81146123e157600080fd5b50565b6000813590506123f3816123cd565b92915050565b60008060006060848603121561241257612411612359565b5b6000612420868287016123ac565b9350506020612431868287016123ac565b9250506040612442868287016123e4565b9150509250925092565b6000819050919050565b61245f8161244c565b82525050565b600060208201905061247a6000830184612456565b92915050565b6000806040838503121561249757612496612359565b5b60006124a5858286016123ac565b92505060206124b6858286016123ac565b9150509250929050565b600081519050919050565b600082825260208201905092915050565b6000819050602082019050919050565b600081519050919050565b600082825260208201905092915050565b60005b8381101561252657808201518184015260208101905061250b565b83811115612535576000848401525b50505050565b6000601f19601f8301169050919050565b6000612557826124ec565b61256181856124f7565b9350612571818560208601612508565b61257a8161253b565b840191505092915050565b6000612591838361254c565b905092915050565b6000602082019050919050565b60006125b1826124c0565b6125bb81856124cb565b9350836020820285016125cd856124dc565b8060005b8581101561260957848403895281516125ea8582612585565b94506125f583612599565b925060208a019950506001810190506125d1565b50829750879550505050505092915050565b6000606082019050818103600083015261263581866125a6565b9050818103602083015261264981856125a6565b9050818103604083015261265d81846125a6565b9050949350505050565b600081519050919050565b600082825260208201905092915050565b6000819050602082019050919050565b61269c81612383565b82525050565b60006126ae8383612693565b60208301905092915050565b6000602082019050919050565b60006126d282612667565b6126dc8185612672565b93506126e783612683565b8060005b838110156127185781516126ff88826126a2565b975061270a836126ba565b9250506001810190506126eb565b5085935050505092915050565b6000606082019050818103600083015261273f81866125a6565b9050818103602083015261275381856126c7565b9050818103604083015261276781846126c7565b9050949350505050565b600060c082019050818103600083015261278b81896125a6565b9050818103602083015261279f81886125a6565b905081810360408301526127b381876125a6565b905081810360608301526127c781866125a6565b905081810360808301526127db81856126c7565b905081810360a08301526127ef81846126c7565b9050979650505050505050565b600080fd5b600080fd5b7f4e487b7100000000000000000000000000000000000000000000000000000000600052604160045260246000fd5b61283e8261253b565b810181811067ffffffffffffffff8211171561285d5761285c612806565b5b80604052505050565b600061287061234f565b905061287c8282612835565b919050565b600067ffffffffffffffff82111561289c5761289b612806565b5b6128a58261253b565b9050602081019050919050565b82818337600083830152505050565b60006128d46128cf84612881565b612866565b9050828152602081018484840111156128f0576128ef612801565b5b6128fb8482856128b2565b509392505050565b600082601f830112612918576129176127fc565b5b81356129288482602086016128c1565b91505092915050565b600080600080600060a0868803121561294d5761294c612359565b5b600086013567ffffffffffffffff81111561296b5761296a61235e565b5b61297788828901612903565b955050602086013567ffffffffffffffff8111156129985761299761235e565b5b6129a488828901612903565b945050604086013567ffffffffffffffff8111156129c5576129c461235e565b5b6129d188828901612903565b935050606086013567ffffffffffffffff8111156129f2576129f161235e565b5b6129fe88828901612903565b9250506080612a0f888289016123ac565b9150509295509295909350565b612a2581612383565b82525050565b6000602082019050612a406000830184612a1c565b92915050565b6000604082019050612a5b6000830185612a1c565b612a686020830184612a1c565b9392505050565b7f4e487b7100000000000000000000000000000000000000000000000000000000600052603260045260246000fd5b7f4e487b7100000000000000000000000000000000000000000000000000000000600052601160045260246000fd5b6000612ad88261244c565b91507fffffffffffffffffffffffffffffffffffffffffffffffffffffffffffffffff821415612b0b57612b0a612a9e565b5b600182019050919050565b7f4e487b7100000000000000000000000000000000000000000000000000000000600052602260045260246000fd5b60006002820490506001821680612b5d57607f821691505b60208210811415612b7157612b70612b16565b5b50919050565b6000612b828261244c565b9150612b8d8361244c565b9250827fffffffffffffffffffffffffffffffffffffffffffffffffffffffffffffffff03821115612bc257612bc1612a9e565b5b82820190509291505056fea2646970667358221220b21c61d85d284c3af47a7b1c7a1709271417a9b3a239ed3e5c6025ac6a52d2ad64736f6c634300080a0033",
  "immutableReferences": {},
  "source": "// SPDX-License-Identifier: MIT\npragma solidity >=0.4.21 <=0.8.13;\n\ncontract ShareChannel {\n\n  address public userA;\n  address public userB;\n\n  struct file {\n    string fileName;\n    string ipfsHash;\n    string senderEncryptedAESKey;\n    string receiverEncryptedAESKey;\n    address sender;\n    address receiver;\n  }\n\n  file[] sharedFiles;\n\n  constructor(address _userA, address _userB) {\n    userA = _userA;\n    userB = _userB;\n  }\n\n  modifier isPartOfChannel() {\n    require((msg.sender == userA) || (msg.sender == userB));\n    _;\n  }\n\n  function sendFile(\n    string memory _fileName,\n    string memory _ipfsHash,\n    string memory _senderEncryptedAESKey,\n    string memory _receiverEncryptedAESKey,\n    address _receiver\n  ) public isPartOfChannel {\n    _addFile(_fileName, _ipfsHash, _senderEncryptedAESKey, _receiverEncryptedAESKey, msg.sender, _receiver);\n  }\n  function receiveFile(\n    string memory _fileName,\n    string memory _ipfsHash,\n    string memory _senderEncryptedAESKey,\n    string memory _receiverEncryptedAESKey,\n    address _sender\n  ) public isPartOfChannel {\n    _addFile(_fileName, _ipfsHash, _senderEncryptedAESKey, _receiverEncryptedAESKey, _sender, msg.sender);\n  }\n\n  function getSentFiles1(address _user1, address _user2) public view returns (\n    string[] memory,\n    string[] memory,\n    string[] memory\n   ) {\n    uint arraySize = 0;\n    for(uint i = 0; i < sharedFiles.length; i++){\n        if(sharedFiles[i].sender == _user1 && sharedFiles[i].receiver == _user2){\n          arraySize++;\n        }\n    }\n\n    string[] memory fileName = new string[](arraySize);\n    string[] memory ipfsHash = new string[](arraySize);\n    string[] memory senderEncryptedAESKey = new string[](arraySize);\n\n    uint j = 0;\n    for(uint i = 0; i < sharedFiles.length; i++){\n        if(sharedFiles[i].sender == _user1 && sharedFiles[i].receiver == _user2){\n          fileName[j] = sharedFiles[i].fileName;\n          ipfsHash[j] = sharedFiles[i].ipfsHash;\n          senderEncryptedAESKey[j] = sharedFiles[i].senderEncryptedAESKey;\n          j += 1;\n        }\n    }\n\n    return (\n      fileName,\n      ipfsHash,\n      senderEncryptedAESKey\n    );\n  }\n\nfunction getSentFiles2(address _user1, address _user2) public view returns (\n    string[] memory,\n    address[] memory,\n    address[] memory\n   ) {\n    uint arraySize = 0;\n    for(uint i = 0; i < sharedFiles.length; i++){\n        if(sharedFiles[i].sender == _user1 && sharedFiles[i].receiver == _user2){\n          arraySize++;\n        }\n    }\n\n    string[] memory receiverEncryptedAESKey = new string[](arraySize);\n    address[] memory sender = new address[](arraySize);\n    address[] memory receiver = new address[](arraySize);\n\n    uint j = 0;\n    for(uint i = 0; i < sharedFiles.length; i++){\n        if(sharedFiles[i].sender == _user1 && sharedFiles[i].receiver == _user2){\n          receiverEncryptedAESKey[j] = sharedFiles[i].receiverEncryptedAESKey;\n          sender[j] = sharedFiles[i].sender;\n          receiver[j] = sharedFiles[i].receiver;\n          j += 1;\n        }\n    }\n\n    return (\n      receiverEncryptedAESKey,\n      sender,\n      receiver\n    );\n  }\n\n  function getReceivedFiles(address _user1, address _user2) public view isPartOfChannel {\n    _findFiles(_user1, _user2, false);\n  }\n\n  function getChannelUsers() public view returns(address, address){\n    return (userA, userB);\n  }\n\n  function getSharedFiles() public view returns (string[] memory,\n    string[] memory,\n    string[] memory,\n    string[] memory,\n    address[] memory,\n    address[] memory\n  ){\n    string[] memory fileName = new string[](sharedFiles.length);\n    string[] memory ipfsHash = new string[](sharedFiles.length);\n    string[] memory senderEncryptedAESKey = new string[](sharedFiles.length);\n    string[] memory receiverEncryptedAESKey = new string[](sharedFiles.length);\n    address[] memory sender = new address[](sharedFiles.length);\n    address[] memory receiver = new address[](sharedFiles.length);\n    for (uint i = 0; i < sharedFiles.length; i++) {\n        fileName[i] = sharedFiles[i].fileName;\n        ipfsHash[i] = sharedFiles[i].ipfsHash;\n        senderEncryptedAESKey[i] = sharedFiles[i].senderEncryptedAESKey;\n        receiverEncryptedAESKey[i] = sharedFiles[i].receiverEncryptedAESKey;\n        sender[i] = sharedFiles[i].sender;\n        receiver[i] = sharedFiles[i].receiver;\n    }\n    return (fileName, ipfsHash,senderEncryptedAESKey, receiverEncryptedAESKey,sender, receiver);\n  }\n\n  function _addFile(\n    string memory _fileName,\n    string memory _ipfsHash,\n    string memory _senderEncryptedAESKey,\n    string memory _receiverEncryptedAESKey,\n    address _sender,\n    address _receiver\n  ) private {\n    file memory newFile = file({\n      fileName: _fileName,\n      ipfsHash: _ipfsHash,\n      senderEncryptedAESKey: _senderEncryptedAESKey,\n      receiverEncryptedAESKey: _receiverEncryptedAESKey,\n      sender: _sender,\n      receiver: _receiver\n    });\n    sharedFiles.push(newFile);\n  }\n\n  function _findFiles(\n    address _user1, \n    address _user2,\n    bool _getSent\n  ) private view returns (\n    string[] memory,\n    string[] memory,\n    string[] memory\n    // string[] memory,\n    // address[] memory,\n    // address[] memory\n  ){\n    //Destructure the return values.\n    // (\n    //   string[] memory fileName,\n    //   string[] memory ipfsHash,\n    //   string[] memory senderEncryptedAESKey\n    // ) = _findFiles1(_user1, _user2, _getSent);\n\n    // (\n    //   string[] memory receiverEncryptedAESKey,\n    //   address[] memory sender,\n    //   address[] memory receiver\n    // ) = _findFiles2(_user1, _user2, _getSent);\n\n    uint arraySize = _calcArraySize(_user1, _user2, _getSent);\n\n    string[] memory fileName = new string[](arraySize);\n    string[] memory ipfsHash = new string[](arraySize);\n    string[] memory senderEncryptedAESKey = new string[](arraySize);\n\n    uint j = 0;\n    for(uint i = 0; i < sharedFiles.length; i++){\n      if(_getSent == true){\n        if(sharedFiles[i].sender == _user1 && sharedFiles[i].receiver == _user2){\n          fileName[j] = sharedFiles[i].fileName;\n          ipfsHash[j] = sharedFiles[i].ipfsHash;\n          senderEncryptedAESKey[j] = sharedFiles[i].senderEncryptedAESKey;\n          j++;\n        }\n      }\n      else {\n        if(sharedFiles[i].receiver == _user1 && sharedFiles[i].sender == _user2){\n          fileName[j] = sharedFiles[i].fileName;\n          ipfsHash[j] = sharedFiles[i].ipfsHash;\n          senderEncryptedAESKey[j] = sharedFiles[i].senderEncryptedAESKey;\n          j++;\n        }\n      }\n    }\n\n    return (\n      fileName,\n      ipfsHash,\n      senderEncryptedAESKey\n      // receiverEncryptedAESKey,\n      // sender,\n      // receiver\n    );\n  }\n\n  //Divide the function into two to avoid 'stack too deep' errors.\n\n  function _findFiles1(\n    address _user1,\n    address _user2, \n    bool _getSent\n  ) private view returns (\n    string[] memory,\n    string[] memory,\n    string[] memory\n  ) {\n\n    uint arraySize = _calcArraySize(_user1, _user2, _getSent);\n\n    string[] memory fileName = new string[](arraySize);\n    string[] memory ipfsHash = new string[](arraySize);\n    string[] memory senderEncryptedAESKey = new string[](arraySize);\n\n    uint j = 0;\n    for(uint i = 0; i < sharedFiles.length; i++){\n      if(_getSent){\n        if(sharedFiles[i].sender == _user1 && sharedFiles[i].receiver == _user2){\n          fileName[j] = sharedFiles[i].fileName;\n          ipfsHash[j] = sharedFiles[i].ipfsHash;\n          senderEncryptedAESKey[j] = sharedFiles[i].senderEncryptedAESKey;\n          j++;\n        }\n      }\n      else {\n        if(sharedFiles[i].receiver == _user1 && sharedFiles[i].sender == _user2){\n          fileName[j] = sharedFiles[i].fileName;\n          ipfsHash[j] = sharedFiles[i].ipfsHash;\n          senderEncryptedAESKey[j] = sharedFiles[i].senderEncryptedAESKey;\n          j++;\n        }\n      }\n    }\n  \n    return (\n      fileName, \n      ipfsHash, \n      senderEncryptedAESKey\n    );\n  }\n\n  function _findFiles2(\n    address _user1, \n    address _user2,\n    bool _getSent\n  ) private view returns (\n    string[] memory,\n    address[] memory,\n    address[] memory\n  ) {\n    uint arraySize = _calcArraySize(_user1, _user2, _getSent);\n\n    string[] memory receiverEncryptedAESKey = new string[](arraySize);\n    address[] memory sender = new address[](arraySize);\n    address[] memory receiver = new address[](arraySize);\n\n    uint j = 0;\n    for(uint i = 0; i < sharedFiles.length; i++){\n      if(_getSent){\n        if(sharedFiles[i].sender == _user1 && sharedFiles[i].receiver == _user2){\n          receiverEncryptedAESKey[j] = sharedFiles[i].receiverEncryptedAESKey;\n          sender[j] = sharedFiles[i].sender;\n          receiver[j] = sharedFiles[i].receiver;\n          j++;\n        }\n      }\n      else {\n        if(sharedFiles[i].receiver == _user1 && sharedFiles[i].sender == _user2){\n          receiverEncryptedAESKey[j] = sharedFiles[i].receiverEncryptedAESKey;\n          sender[j] = sharedFiles[i].sender;\n          receiver[j] = sharedFiles[i].receiver;\n          j++;\n        }\n      }\n    }\n\n    return (\n      receiverEncryptedAESKey,\n      sender,\n      receiver\n    );\n  }\n\n  function _calcArraySize(address _user1, address _user2, bool _getSent) public view returns(uint){\n    uint size = 0;\n    for(uint i = 0; i < sharedFiles.length; i++){\n      if(_getSent){\n        if(sharedFiles[i].sender == _user1 && sharedFiles[i].receiver == _user2){\n          size++;\n        }\n      }\n      else {\n        if(sharedFiles[i].receiver == _user1 && sharedFiles[i].sender == _user2){\n          size++;\n        }\n      }\n    }\n    return size;\n  }\n\n}",
  "sourcePath": "/home/vishwa/Desktop/ShareConnect/contracts/ShareChannel.sol",
  "compiler": {
    "name": "solc",
    "version": "0.8.10+commit.fc410830.Emscripten.clang"
  },
  "schemaVersion": "3.4.6",
  "updatedAt": "2022-04-15T14:42:12.331Z",
  "devdoc": {
    "kind": "dev",
    "methods": {},
    "version": 1
  },
  "userdoc": {
    "kind": "user",
    "methods": {},
    "version": 1
  }
}