{
  "contractName": "UserStorage",
  "abi": [
    {
      "inputs": [
        {
          "internalType": "address",
          "name": "",
          "type": "address"
        }
      ],
      "name": "userData",
      "outputs": [
        {
          "internalType": "address",
          "name": "",
          "type": "address"
        }
      ],
      "stateMutability": "view",
      "type": "function"
    },
    {
      "inputs": [
        {
          "internalType": "string",
          "name": "_name",
          "type": "string"
        },
        {
          "internalType": "string",
          "name": "_publicKey",
          "type": "string"
        },
        {
          "internalType": "string",
          "name": "_privateKey",
          "type": "string"
        }
      ],
      "name": "createUser",
      "outputs": [],
      "stateMutability": "nonpayable",
      "type": "function"
    },
    {
      "inputs": [],
      "name": "getUser",
      "outputs": [
        {
          "internalType": "address",
          "name": "",
          "type": "address"
        }
      ],
      "stateMutability": "view",
      "type": "function"
    }
  ],
  "bytecode": "0x608060405234801561001057600080fd5b506110c4806100206000396000f3fe60806040523480156200001157600080fd5b5060043610620000465760003560e01c806359ae069b146200004b578063832880e7146200006b578063c8910913146200008d575b600080fd5b620000696004803603810190620000639190620004b8565b620000c3565b005b620000756200016f565b604051620000849190620005b6565b60405180910390f35b620000ab6004803603810190620000a5919062000604565b620001d6565b604051620000ba9190620005b6565b60405180910390f35b600073ffffffffffffffffffffffffffffffffffffffff16600160003373ffffffffffffffffffffffffffffffffffffffff1673ffffffffffffffffffffffffffffffffffffffff16815260200190815260200160002060009054906101000a900473ffffffffffffffffffffffffffffffffffffffff1673ffffffffffffffffffffffffffffffffffffffff16146200015c57600080fd5b6200016a3384848462000209565b505050565b6000600160003373ffffffffffffffffffffffffffffffffffffffff1673ffffffffffffffffffffffffffffffffffffffff16815260200190815260200160002060009054906101000a900473ffffffffffffffffffffffffffffffffffffffff16905090565b60016020528060005260406000206000915054906101000a900473ffffffffffffffffffffffffffffffffffffffff1681565b6000848484846040516200021d9062000334565b6200022c9493929190620006c9565b604051809103906000f08015801562000249573d6000803e3d6000fd5b5090506000339080600181540180825580915050600190039060005260206000200160009091909190916101000a81548173ffffffffffffffffffffffffffffffffffffffff021916908373ffffffffffffffffffffffffffffffffffffffff16021790555080600160003373ffffffffffffffffffffffffffffffffffffffff1673ffffffffffffffffffffffffffffffffffffffff16815260200190815260200160002060006101000a81548173ffffffffffffffffffffffffffffffffffffffff021916908373ffffffffffffffffffffffffffffffffffffffff1602179055505050505050565b610963806200072c83390190565b6000604051905090565b600080fd5b600080fd5b600080fd5b600080fd5b6000601f19601f8301169050919050565b7f4e487b7100000000000000000000000000000000000000000000000000000000600052604160045260246000fd5b620003ab8262000360565b810181811067ffffffffffffffff82111715620003cd57620003cc62000371565b5b80604052505050565b6000620003e262000342565b9050620003f08282620003a0565b919050565b600067ffffffffffffffff82111562000413576200041262000371565b5b6200041e8262000360565b9050602081019050919050565b82818337600083830152505050565b6000620004516200044b84620003f5565b620003d6565b90508281526020810184848401111562000470576200046f6200035b565b5b6200047d8482856200042b565b509392505050565b600082601f8301126200049d576200049c62000356565b5b8135620004af8482602086016200043a565b91505092915050565b600080600060608486031215620004d457620004d36200034c565b5b600084013567ffffffffffffffff811115620004f557620004f462000351565b5b620005038682870162000485565b935050602084013567ffffffffffffffff81111562000527576200052662000351565b5b620005358682870162000485565b925050604084013567ffffffffffffffff81111562000559576200055862000351565b5b620005678682870162000485565b9150509250925092565b600073ffffffffffffffffffffffffffffffffffffffff82169050919050565b60006200059e8262000571565b9050919050565b620005b08162000591565b82525050565b6000602082019050620005cd6000830184620005a5565b92915050565b620005de8162000591565b8114620005ea57600080fd5b50565b600081359050620005fe81620005d3565b92915050565b6000602082840312156200061d576200061c6200034c565b5b60006200062d84828501620005ed565b91505092915050565b600081519050919050565b600082825260208201905092915050565b60005b838110156200067257808201518184015260208101905062000655565b8381111562000682576000848401525b50505050565b6000620006958262000636565b620006a1818562000641565b9350620006b381856020860162000652565b620006be8162000360565b840191505092915050565b6000608082019050620006e06000830187620005a5565b8181036020830152620006f4818662000688565b905081810360408301526200070a818562000688565b9050818103606083015262000720818462000688565b90509594505050505056fe60806040523480156200001157600080fd5b50604051620009633803806200096383398181016040528101906200003791906200037e565b836000806101000a81548173ffffffffffffffffffffffffffffffffffffffff021916908373ffffffffffffffffffffffffffffffffffffffff16021790555082600190805190602001906200008f929190620000cc565b508160039080519060200190620000a8929190620000cc565b508060029080519060200190620000c1929190620000cc565b5050505050620004b2565b828054620000da906200047c565b90600052602060002090601f016020900481019282620000fe57600085556200014a565b82601f106200011957805160ff19168380011785556200014a565b828001600101855582156200014a579182015b82811115620001495782518255916020019190600101906200012c565b5b5090506200015991906200015d565b5090565b5b80821115620001785760008160009055506001016200015e565b5090565b6000604051905090565b600080fd5b600080fd5b600073ffffffffffffffffffffffffffffffffffffffff82169050919050565b6000620001bd8262000190565b9050919050565b620001cf81620001b0565b8114620001db57600080fd5b50565b600081519050620001ef81620001c4565b92915050565b600080fd5b600080fd5b6000601f19601f8301169050919050565b7f4e487b7100000000000000000000000000000000000000000000000000000000600052604160045260246000fd5b6200024a82620001ff565b810181811067ffffffffffffffff821117156200026c576200026b62000210565b5b80604052505050565b6000620002816200017c565b90506200028f82826200023f565b919050565b600067ffffffffffffffff821115620002b257620002b162000210565b5b620002bd82620001ff565b9050602081019050919050565b60005b83811015620002ea578082015181840152602081019050620002cd565b83811115620002fa576000848401525b50505050565b600062000317620003118462000294565b62000275565b905082815260208101848484011115620003365762000335620001fa565b5b62000343848285620002ca565b509392505050565b600082601f830112620003635762000362620001f5565b5b81516200037584826020860162000300565b91505092915050565b600080600080608085870312156200039b576200039a62000186565b5b6000620003ab87828801620001de565b945050602085015167ffffffffffffffff811115620003cf57620003ce6200018b565b5b620003dd878288016200034b565b935050604085015167ffffffffffffffff8111156200040157620004006200018b565b5b6200040f878288016200034b565b925050606085015167ffffffffffffffff8111156200043357620004326200018b565b5b62000441878288016200034b565b91505092959194509250565b7f4e487b7100000000000000000000000000000000000000000000000000000000600052602260045260246000fd5b600060028204905060018216806200049557607f821691505b60208210811415620004ac57620004ab6200044d565b5b50919050565b6104a180620004c26000396000f3fe608060405234801561001057600080fd5b506004361061004c5760003560e01c806306fdde031461005157806361f0b25f1461006f57806363ffab311461008d578063e4128fb3146100ab575b600080fd5b6100596100c9565b604051610066919061038c565b60405180910390f35b610077610157565b604051610084919061038c565b60405180910390f35b610095610241565b6040516100a2919061038c565b60405180910390f35b6100b36102cf565b6040516100c091906103ef565b60405180910390f35b600180546100d690610439565b80601f016020809104026020016040519081016040528092919081815260200182805461010290610439565b801561014f5780601f106101245761010080835404028352916020019161014f565b820191906000526020600020905b81548152906001019060200180831161013257829003601f168201915b505050505081565b60603373ffffffffffffffffffffffffffffffffffffffff1660008054906101000a900473ffffffffffffffffffffffffffffffffffffffff1673ffffffffffffffffffffffffffffffffffffffff16146101b157600080fd5b600280546101be90610439565b80601f01602080910402602001604051908101604052809291908181526020018280546101ea90610439565b80156102375780601f1061020c57610100808354040283529160200191610237565b820191906000526020600020905b81548152906001019060200180831161021a57829003601f168201915b5050505050905090565b6003805461024e90610439565b80601f016020809104026020016040519081016040528092919081815260200182805461027a90610439565b80156102c75780601f1061029c576101008083540402835291602001916102c7565b820191906000526020600020905b8154815290600101906020018083116102aa57829003601f168201915b505050505081565b60008054906101000a900473ffffffffffffffffffffffffffffffffffffffff1681565b600081519050919050565b600082825260208201905092915050565b60005b8381101561032d578082015181840152602081019050610312565b8381111561033c576000848401525b50505050565b6000601f19601f8301169050919050565b600061035e826102f3565b61036881856102fe565b935061037881856020860161030f565b61038181610342565b840191505092915050565b600060208201905081810360008301526103a68184610353565b905092915050565b600073ffffffffffffffffffffffffffffffffffffffff82169050919050565b60006103d9826103ae565b9050919050565b6103e9816103ce565b82525050565b600060208201905061040460008301846103e0565b92915050565b7f4e487b7100000000000000000000000000000000000000000000000000000000600052602260045260246000fd5b6000600282049050600182168061045157607f821691505b602082108114156104655761046461040a565b5b5091905056fea2646970667358221220d6f5438d1799fa6b4bfe611ccbf4e9c805e9749b6bba1f4ae9664d9f8f57de9064736f6c634300080a0033a264697066735822122016519401498847012b2e938d83939b2fe24c04afbeabbc3e8c244d351d06c6b164736f6c634300080a0033",
  "immutableReferences": {},
  "source": "// SPDX-License-Identifier: MIT\npragma solidity >=0.4.21 <8.13.0;\n\nimport './UserAccount.sol';\n\ncontract UserStorage {\n\n  address[] userAddresses;\n  //mapping from user's address to deployed address of a UserAccount contract.\n  mapping(address => address) public userData;\n\n  function createUser( \n    string memory _name,\n    string memory _publicKey,\n    string memory _privateKey\n  ) public {\n    require(userData[msg.sender] == address(0));\n    _makeUser(msg.sender, _name, _publicKey, _privateKey);\n  }\n\n  function getUser() public view returns(address) {\n    return userData[msg.sender];\n  }\n\n  function _makeUser(\n    address _userAddress,\n    string memory _name,\n    string memory _publicKey,\n    string memory _privateKey\n  ) private {\n    UserAccount newUser = new UserAccount(\n      _userAddress, \n      _name,\n      _publicKey, \n      _privateKey\n    );\n    userAddresses.push(msg.sender);\n    userData[msg.sender] = address(newUser);\n  }\n\n}\n",
  "sourcePath": "/home/vishwa/Desktop/ShareConnect/contracts/UserStorage.sol",
  "compiler": {
    "name": "solc",
    "version": "0.8.10+commit.fc410830.Emscripten.clang"
  },
  "schemaVersion": "3.4.6",
  "updatedAt": "2022-03-31T13:09:33.521Z",
  "devdoc": {
    "kind": "dev",
    "methods": {},
    "version": 1
  },
  "userdoc": {
    "kind": "user",
    "methods": {},
    "version": 1
  }
}