{
  "contractName": "UserStorage",
  "abi": [
    {
      "inputs": [
        {
          "internalType": "address",
          "name": "",
          "type": "address"
        }
      ],
      "name": "userData",
      "outputs": [
        {
          "internalType": "address",
          "name": "",
          "type": "address"
        }
      ],
      "stateMutability": "view",
      "type": "function"
    },
    {
      "inputs": [
        {
          "internalType": "string",
          "name": "_name",
          "type": "string"
        },
        {
          "internalType": "string",
          "name": "_publicKey",
          "type": "string"
        },
        {
          "internalType": "string",
          "name": "_privateKey",
          "type": "string"
        }
      ],
      "name": "createUser",
      "outputs": [],
      "stateMutability": "nonpayable",
      "type": "function"
    },
    {
      "inputs": [],
      "name": "getUser",
      "outputs": [
        {
          "internalType": "address",
          "name": "",
          "type": "address"
        }
      ],
      "stateMutability": "view",
      "type": "function"
    },
    {
      "inputs": [
        {
          "internalType": "address",
          "name": "_metaAddress",
          "type": "address"
        }
      ],
      "name": "checkUser",
      "outputs": [
        {
          "internalType": "address",
          "name": "",
          "type": "address"
        }
      ],
      "stateMutability": "view",
      "type": "function"
    },
    {
      "inputs": [],
      "name": "getUsers",
      "outputs": [
        {
          "internalType": "address[]",
          "name": "",
          "type": "address[]"
        }
      ],
      "stateMutability": "view",
      "type": "function"
    }
  ],
  "bytecode": "0x608060405234801561001057600080fd5b506113b8806100206000396000f3fe60806040523480156200001157600080fd5b50600436106200005d5760003560e01c8062ce8e3e14620000625780631e9d48cf146200008457806359ae069b14620000ba578063832880e714620000da578063c891091314620000fc575b600080fd5b6200006c62000132565b6040516200007b919062000646565b60405180910390f35b620000a260048036038101906200009c9190620006af565b6200025c565b604051620000b19190620006f2565b60405180910390f35b620000d86004803603810190620000d2919062000871565b620002c5565b005b620000e462000371565b604051620000f39190620006f2565b60405180910390f35b6200011a6004803603810190620001149190620006af565b620003d8565b604051620001299190620006f2565b60405180910390f35b6060600073ffffffffffffffffffffffffffffffffffffffff16600160003373ffffffffffffffffffffffffffffffffffffffff1673ffffffffffffffffffffffffffffffffffffffff16815260200190815260200160002060009054906101000a900473ffffffffffffffffffffffffffffffffffffffff1673ffffffffffffffffffffffffffffffffffffffff161415620001ce57600080fd5b60008054806020026020016040519081016040528092919081815260200182805480156200025257602002820191906000526020600020905b8160009054906101000a900473ffffffffffffffffffffffffffffffffffffffff1673ffffffffffffffffffffffffffffffffffffffff168152602001906001019080831162000207575b5050505050905090565b6000600160008373ffffffffffffffffffffffffffffffffffffffff1673ffffffffffffffffffffffffffffffffffffffff16815260200190815260200160002060009054906101000a900473ffffffffffffffffffffffffffffffffffffffff169050919050565b600073ffffffffffffffffffffffffffffffffffffffff16600160003373ffffffffffffffffffffffffffffffffffffffff1673ffffffffffffffffffffffffffffffffffffffff16815260200190815260200160002060009054906101000a900473ffffffffffffffffffffffffffffffffffffffff1673ffffffffffffffffffffffffffffffffffffffff16146200035e57600080fd5b6200036c338484846200040b565b505050565b6000600160003373ffffffffffffffffffffffffffffffffffffffff1673ffffffffffffffffffffffffffffffffffffffff16815260200190815260200160002060009054906101000a900473ffffffffffffffffffffffffffffffffffffffff16905090565b60016020528060005260406000206000915054906101000a900473ffffffffffffffffffffffffffffffffffffffff1681565b6000848484846040516200041f9062000536565b6200042e9493929190620009bd565b604051809103906000f0801580156200044b573d6000803e3d6000fd5b5090506000339080600181540180825580915050600190039060005260206000200160009091909190916101000a81548173ffffffffffffffffffffffffffffffffffffffff021916908373ffffffffffffffffffffffffffffffffffffffff16021790555080600160003373ffffffffffffffffffffffffffffffffffffffff1673ffffffffffffffffffffffffffffffffffffffff16815260200190815260200160002060006101000a81548173ffffffffffffffffffffffffffffffffffffffff021916908373ffffffffffffffffffffffffffffffffffffffff1602179055505050505050565b6109638062000a2083390190565b600081519050919050565b600082825260208201905092915050565b6000819050602082019050919050565b600073ffffffffffffffffffffffffffffffffffffffff82169050919050565b60006200059d8262000570565b9050919050565b620005af8162000590565b82525050565b6000620005c38383620005a4565b60208301905092915050565b6000602082019050919050565b6000620005e98262000544565b620005f581856200054f565b9350620006028362000560565b8060005b83811015620006395781516200061d8882620005b5565b97506200062a83620005cf565b92505060018101905062000606565b5085935050505092915050565b60006020820190508181036000830152620006628184620005dc565b905092915050565b6000604051905090565b600080fd5b600080fd5b620006898162000590565b81146200069557600080fd5b50565b600081359050620006a9816200067e565b92915050565b600060208284031215620006c857620006c762000674565b5b6000620006d88482850162000698565b91505092915050565b620006ec8162000590565b82525050565b6000602082019050620007096000830184620006e1565b92915050565b600080fd5b600080fd5b6000601f19601f8301169050919050565b7f4e487b7100000000000000000000000000000000000000000000000000000000600052604160045260246000fd5b620007648262000719565b810181811067ffffffffffffffff821117156200078657620007856200072a565b5b80604052505050565b60006200079b6200066a565b9050620007a9828262000759565b919050565b600067ffffffffffffffff821115620007cc57620007cb6200072a565b5b620007d78262000719565b9050602081019050919050565b82818337600083830152505050565b60006200080a6200080484620007ae565b6200078f565b90508281526020810184848401111562000829576200082862000714565b5b62000836848285620007e4565b509392505050565b600082601f8301126200085657620008556200070f565b5b813562000868848260208601620007f3565b91505092915050565b6000806000606084860312156200088d576200088c62000674565b5b600084013567ffffffffffffffff811115620008ae57620008ad62000679565b5b620008bc868287016200083e565b935050602084013567ffffffffffffffff811115620008e057620008df62000679565b5b620008ee868287016200083e565b925050604084013567ffffffffffffffff81111562000912576200091162000679565b5b62000920868287016200083e565b9150509250925092565b600081519050919050565b600082825260208201905092915050565b60005b838110156200096657808201518184015260208101905062000949565b8381111562000976576000848401525b50505050565b600062000989826200092a565b62000995818562000935565b9350620009a781856020860162000946565b620009b28162000719565b840191505092915050565b6000608082019050620009d46000830187620006e1565b8181036020830152620009e881866200097c565b90508181036040830152620009fe81856200097c565b9050818103606083015262000a1481846200097c565b90509594505050505056fe60806040523480156200001157600080fd5b50604051620009633803806200096383398181016040528101906200003791906200037e565b836000806101000a81548173ffffffffffffffffffffffffffffffffffffffff021916908373ffffffffffffffffffffffffffffffffffffffff16021790555082600190805190602001906200008f929190620000cc565b508160039080519060200190620000a8929190620000cc565b508060029080519060200190620000c1929190620000cc565b5050505050620004b2565b828054620000da906200047c565b90600052602060002090601f016020900481019282620000fe57600085556200014a565b82601f106200011957805160ff19168380011785556200014a565b828001600101855582156200014a579182015b82811115620001495782518255916020019190600101906200012c565b5b5090506200015991906200015d565b5090565b5b80821115620001785760008160009055506001016200015e565b5090565b6000604051905090565b600080fd5b600080fd5b600073ffffffffffffffffffffffffffffffffffffffff82169050919050565b6000620001bd8262000190565b9050919050565b620001cf81620001b0565b8114620001db57600080fd5b50565b600081519050620001ef81620001c4565b92915050565b600080fd5b600080fd5b6000601f19601f8301169050919050565b7f4e487b7100000000000000000000000000000000000000000000000000000000600052604160045260246000fd5b6200024a82620001ff565b810181811067ffffffffffffffff821117156200026c576200026b62000210565b5b80604052505050565b6000620002816200017c565b90506200028f82826200023f565b919050565b600067ffffffffffffffff821115620002b257620002b162000210565b5b620002bd82620001ff565b9050602081019050919050565b60005b83811015620002ea578082015181840152602081019050620002cd565b83811115620002fa576000848401525b50505050565b600062000317620003118462000294565b62000275565b905082815260208101848484011115620003365762000335620001fa565b5b62000343848285620002ca565b509392505050565b600082601f830112620003635762000362620001f5565b5b81516200037584826020860162000300565b91505092915050565b600080600080608085870312156200039b576200039a62000186565b5b6000620003ab87828801620001de565b945050602085015167ffffffffffffffff811115620003cf57620003ce6200018b565b5b620003dd878288016200034b565b935050604085015167ffffffffffffffff8111156200040157620004006200018b565b5b6200040f878288016200034b565b925050606085015167ffffffffffffffff8111156200043357620004326200018b565b5b62000441878288016200034b565b91505092959194509250565b7f4e487b7100000000000000000000000000000000000000000000000000000000600052602260045260246000fd5b600060028204905060018216806200049557607f821691505b60208210811415620004ac57620004ab6200044d565b5b50919050565b6104a180620004c26000396000f3fe608060405234801561001057600080fd5b506004361061004c5760003560e01c806306fdde031461005157806361f0b25f1461006f57806363ffab311461008d578063e4128fb3146100ab575b600080fd5b6100596100c9565b604051610066919061038c565b60405180910390f35b610077610157565b604051610084919061038c565b60405180910390f35b610095610241565b6040516100a2919061038c565b60405180910390f35b6100b36102cf565b6040516100c091906103ef565b60405180910390f35b600180546100d690610439565b80601f016020809104026020016040519081016040528092919081815260200182805461010290610439565b801561014f5780601f106101245761010080835404028352916020019161014f565b820191906000526020600020905b81548152906001019060200180831161013257829003601f168201915b505050505081565b60603373ffffffffffffffffffffffffffffffffffffffff1660008054906101000a900473ffffffffffffffffffffffffffffffffffffffff1673ffffffffffffffffffffffffffffffffffffffff16146101b157600080fd5b600280546101be90610439565b80601f01602080910402602001604051908101604052809291908181526020018280546101ea90610439565b80156102375780601f1061020c57610100808354040283529160200191610237565b820191906000526020600020905b81548152906001019060200180831161021a57829003601f168201915b5050505050905090565b6003805461024e90610439565b80601f016020809104026020016040519081016040528092919081815260200182805461027a90610439565b80156102c75780601f1061029c576101008083540402835291602001916102c7565b820191906000526020600020905b8154815290600101906020018083116102aa57829003601f168201915b505050505081565b60008054906101000a900473ffffffffffffffffffffffffffffffffffffffff1681565b600081519050919050565b600082825260208201905092915050565b60005b8381101561032d578082015181840152602081019050610312565b8381111561033c576000848401525b50505050565b6000601f19601f8301169050919050565b600061035e826102f3565b61036881856102fe565b935061037881856020860161030f565b61038181610342565b840191505092915050565b600060208201905081810360008301526103a68184610353565b905092915050565b600073ffffffffffffffffffffffffffffffffffffffff82169050919050565b60006103d9826103ae565b9050919050565b6103e9816103ce565b82525050565b600060208201905061040460008301846103e0565b92915050565b7f4e487b7100000000000000000000000000000000000000000000000000000000600052602260045260246000fd5b6000600282049050600182168061045157607f821691505b602082108114156104655761046461040a565b5b5091905056fea26469706673582212202e0e6f2c4f3556f14d73126f4dd10056d0362ace291157cbb3641ca663eac05b64736f6c634300080a0033a26469706673582212206b1e3e52c7a91e38af4f1996a31a3559a9d28c60d924fd0e7ec6cc76cc3b5ceb64736f6c634300080a0033",
  "immutableReferences": {},
  "source": "// SPDX-License-Identifier: MIT\npragma solidity >=0.4.21 <=0.8.13;\n\nimport './UserAccount.sol';\n\ncontract UserStorage {\n\n  address[] userAddresses;\n  //mapping from user's address to deployed address of a UserAccount contract.\n  mapping(address => address) public userData;\n\n  modifier isRegistered() {\n    require(userData[msg.sender] != address(0));\n    _;\n  }\n\n  function createUser( \n    string memory _name,\n    string memory _publicKey,\n    string memory _privateKey\n  ) public {\n    require(userData[msg.sender] == address(0));\n    _makeUser(msg.sender, _name, _publicKey, _privateKey);\n  }\n\n  function getUser() public view returns(address) {\n    return userData[msg.sender];\n  }\n\n  function checkUser(address _metaAddress) public view returns(address) {\n    return userData[_metaAddress];\n  }\n  function getUsers() public view isRegistered returns(address[] memory) {\n    return userAddresses;\n  }\n\n  function _makeUser(\n    address _userAddress,\n    string memory _name,\n    string memory _publicKey,\n    string memory _privateKey\n  ) private {\n    UserAccount newUser = new UserAccount(\n      _userAddress, \n      _name,\n      _publicKey, \n      _privateKey\n    );\n    userAddresses.push(msg.sender);\n    userData[msg.sender] = address(newUser);\n  }\n\n}\n",
  "sourcePath": "/home/divyesh/workspace/ShareConnect/contracts/UserStorage.sol",
  "compiler": {
    "name": "solc",
    "version": "0.8.10+commit.fc410830.Emscripten.clang"
  },
  "schemaVersion": "3.4.6",
  "updatedAt": "2022-04-10T13:23:04.774Z",
  "devdoc": {
    "kind": "dev",
    "methods": {},
    "version": 1
  },
  "userdoc": {
    "kind": "user",
    "methods": {},
    "version": 1
  }
}