{
  "contractName": "UserStorage",
  "abi": [
    {
      "inputs": [
        {
          "internalType": "address",
          "name": "",
          "type": "address"
        }
      ],
      "name": "userData",
      "outputs": [
        {
          "internalType": "address",
          "name": "",
          "type": "address"
        }
      ],
      "stateMutability": "view",
      "type": "function",
      "constant": true
    },
    {
      "inputs": [
        {
          "internalType": "string",
          "name": "_name",
          "type": "string"
        },
        {
          "internalType": "string",
          "name": "_publicKey",
          "type": "string"
        },
        {
          "internalType": "string",
          "name": "_privateKey",
          "type": "string"
        }
      ],
      "name": "createUser",
      "outputs": [],
      "stateMutability": "nonpayable",
      "type": "function"
    },
    {
      "inputs": [],
      "name": "getUser",
      "outputs": [
        {
          "internalType": "address",
          "name": "",
          "type": "address"
        }
      ],
      "stateMutability": "view",
      "type": "function",
      "constant": true
    },
    {
      "inputs": [
        {
          "internalType": "address",
          "name": "_address",
          "type": "address"
        }
      ],
      "name": "getUserFromAddress",
      "outputs": [
        {
          "internalType": "address",
          "name": "",
          "type": "address"
        }
      ],
      "stateMutability": "view",
      "type": "function",
      "constant": true
    }
  ],
  "bytecode": "0x608060405234801561001057600080fd5b506112a7806100206000396000f3fe60806040523480156200001157600080fd5b5060043610620000525760003560e01c806359ae069b1462000057578063832880e71462000077578063c89109131462000099578063e14f50d414620000cf575b600080fd5b6200007560048036038101906200006f91906200069b565b62000105565b005b62000081620001b1565b60405162000090919062000799565b60405180910390f35b620000b76004803603810190620000b19190620007e7565b62000218565b604051620000c6919062000799565b60405180910390f35b620000ed6004803603810190620000e79190620007e7565b6200024b565b604051620000fc919062000799565b60405180910390f35b600073ffffffffffffffffffffffffffffffffffffffff16600160003373ffffffffffffffffffffffffffffffffffffffff1673ffffffffffffffffffffffffffffffffffffffff16815260200190815260200160002060009054906101000a900473ffffffffffffffffffffffffffffffffffffffff1673ffffffffffffffffffffffffffffffffffffffff16146200019e57600080fd5b620001ac33848484620003ec565b505050565b6000600160003373ffffffffffffffffffffffffffffffffffffffff1673ffffffffffffffffffffffffffffffffffffffff16815260200190815260200160002060009054906101000a900473ffffffffffffffffffffffffffffffffffffffff16905090565b60016020528060005260406000206000915054906101000a900473ffffffffffffffffffffffffffffffffffffffff1681565b60008073ffffffffffffffffffffffffffffffffffffffff16600160003373ffffffffffffffffffffffffffffffffffffffff1673ffffffffffffffffffffffffffffffffffffffff16815260200190815260200160002060009054906101000a900473ffffffffffffffffffffffffffffffffffffffff1673ffffffffffffffffffffffffffffffffffffffff161415620002e657600080fd5b600073ffffffffffffffffffffffffffffffffffffffff16600160008473ffffffffffffffffffffffffffffffffffffffff1673ffffffffffffffffffffffffffffffffffffffff16815260200190815260200160002060009054906101000a900473ffffffffffffffffffffffffffffffffffffffff1673ffffffffffffffffffffffffffffffffffffffff1614620003e257600160008373ffffffffffffffffffffffffffffffffffffffff1673ffffffffffffffffffffffffffffffffffffffff16815260200190815260200160002060009054906101000a900473ffffffffffffffffffffffffffffffffffffffff169050620003e7565b600090505b919050565b600084848484604051620004009062000517565b6200040f9493929190620008ac565b604051809103906000f0801580156200042c573d6000803e3d6000fd5b5090506000859080600181540180825580915050600190039060005260206000200160009091909190916101000a81548173ffffffffffffffffffffffffffffffffffffffff021916908373ffffffffffffffffffffffffffffffffffffffff16021790555080600160008773ffffffffffffffffffffffffffffffffffffffff1673ffffffffffffffffffffffffffffffffffffffff16815260200190815260200160002060006101000a81548173ffffffffffffffffffffffffffffffffffffffff021916908373ffffffffffffffffffffffffffffffffffffffff1602179055505050505050565b610963806200090f83390190565b6000604051905090565b600080fd5b600080fd5b600080fd5b600080fd5b6000601f19601f8301169050919050565b7f4e487b7100000000000000000000000000000000000000000000000000000000600052604160045260246000fd5b6200058e8262000543565b810181811067ffffffffffffffff82111715620005b057620005af62000554565b5b80604052505050565b6000620005c562000525565b9050620005d3828262000583565b919050565b600067ffffffffffffffff821115620005f657620005f562000554565b5b620006018262000543565b9050602081019050919050565b82818337600083830152505050565b6000620006346200062e84620005d8565b620005b9565b9050828152602081018484840111156200065357620006526200053e565b5b620006608482856200060e565b509392505050565b600082601f83011262000680576200067f62000539565b5b8135620006928482602086016200061d565b91505092915050565b600080600060608486031215620006b757620006b66200052f565b5b600084013567ffffffffffffffff811115620006d857620006d762000534565b5b620006e68682870162000668565b935050602084013567ffffffffffffffff8111156200070a576200070962000534565b5b620007188682870162000668565b925050604084013567ffffffffffffffff8111156200073c576200073b62000534565b5b6200074a8682870162000668565b9150509250925092565b600073ffffffffffffffffffffffffffffffffffffffff82169050919050565b6000620007818262000754565b9050919050565b620007938162000774565b82525050565b6000602082019050620007b0600083018462000788565b92915050565b620007c18162000774565b8114620007cd57600080fd5b50565b600081359050620007e181620007b6565b92915050565b6000602082840312156200080057620007ff6200052f565b5b60006200081084828501620007d0565b91505092915050565b600081519050919050565b600082825260208201905092915050565b60005b838110156200085557808201518184015260208101905062000838565b8381111562000865576000848401525b50505050565b6000620008788262000819565b62000884818562000824565b93506200089681856020860162000835565b620008a18162000543565b840191505092915050565b6000608082019050620008c3600083018762000788565b8181036020830152620008d781866200086b565b90508181036040830152620008ed81856200086b565b905081810360608301526200090381846200086b565b90509594505050505056fe60806040523480156200001157600080fd5b50604051620009633803806200096383398181016040528101906200003791906200037e565b836000806101000a81548173ffffffffffffffffffffffffffffffffffffffff021916908373ffffffffffffffffffffffffffffffffffffffff16021790555082600190805190602001906200008f929190620000cc565b508160039080519060200190620000a8929190620000cc565b508060029080519060200190620000c1929190620000cc565b5050505050620004b2565b828054620000da906200047c565b90600052602060002090601f016020900481019282620000fe57600085556200014a565b82601f106200011957805160ff19168380011785556200014a565b828001600101855582156200014a579182015b82811115620001495782518255916020019190600101906200012c565b5b5090506200015991906200015d565b5090565b5b80821115620001785760008160009055506001016200015e565b5090565b6000604051905090565b600080fd5b600080fd5b600073ffffffffffffffffffffffffffffffffffffffff82169050919050565b6000620001bd8262000190565b9050919050565b620001cf81620001b0565b8114620001db57600080fd5b50565b600081519050620001ef81620001c4565b92915050565b600080fd5b600080fd5b6000601f19601f8301169050919050565b7f4e487b7100000000000000000000000000000000000000000000000000000000600052604160045260246000fd5b6200024a82620001ff565b810181811067ffffffffffffffff821117156200026c576200026b62000210565b5b80604052505050565b6000620002816200017c565b90506200028f82826200023f565b919050565b600067ffffffffffffffff821115620002b257620002b162000210565b5b620002bd82620001ff565b9050602081019050919050565b60005b83811015620002ea578082015181840152602081019050620002cd565b83811115620002fa576000848401525b50505050565b600062000317620003118462000294565b62000275565b905082815260208101848484011115620003365762000335620001fa565b5b62000343848285620002ca565b509392505050565b600082601f830112620003635762000362620001f5565b5b81516200037584826020860162000300565b91505092915050565b600080600080608085870312156200039b576200039a62000186565b5b6000620003ab87828801620001de565b945050602085015167ffffffffffffffff811115620003cf57620003ce6200018b565b5b620003dd878288016200034b565b935050604085015167ffffffffffffffff8111156200040157620004006200018b565b5b6200040f878288016200034b565b925050606085015167ffffffffffffffff8111156200043357620004326200018b565b5b62000441878288016200034b565b91505092959194509250565b7f4e487b7100000000000000000000000000000000000000000000000000000000600052602260045260246000fd5b600060028204905060018216806200049557607f821691505b60208210811415620004ac57620004ab6200044d565b5b50919050565b6104a180620004c26000396000f3fe608060405234801561001057600080fd5b506004361061004c5760003560e01c806306fdde031461005157806361f0b25f1461006f57806363ffab311461008d578063e4128fb3146100ab575b600080fd5b6100596100c9565b604051610066919061038c565b60405180910390f35b610077610157565b604051610084919061038c565b60405180910390f35b610095610241565b6040516100a2919061038c565b60405180910390f35b6100b36102cf565b6040516100c091906103ef565b60405180910390f35b600180546100d690610439565b80601f016020809104026020016040519081016040528092919081815260200182805461010290610439565b801561014f5780601f106101245761010080835404028352916020019161014f565b820191906000526020600020905b81548152906001019060200180831161013257829003601f168201915b505050505081565b60603373ffffffffffffffffffffffffffffffffffffffff1660008054906101000a900473ffffffffffffffffffffffffffffffffffffffff1673ffffffffffffffffffffffffffffffffffffffff16146101b157600080fd5b600280546101be90610439565b80601f01602080910402602001604051908101604052809291908181526020018280546101ea90610439565b80156102375780601f1061020c57610100808354040283529160200191610237565b820191906000526020600020905b81548152906001019060200180831161021a57829003601f168201915b5050505050905090565b6003805461024e90610439565b80601f016020809104026020016040519081016040528092919081815260200182805461027a90610439565b80156102c75780601f1061029c576101008083540402835291602001916102c7565b820191906000526020600020905b8154815290600101906020018083116102aa57829003601f168201915b505050505081565b60008054906101000a900473ffffffffffffffffffffffffffffffffffffffff1681565b600081519050919050565b600082825260208201905092915050565b60005b8381101561032d578082015181840152602081019050610312565b8381111561033c576000848401525b50505050565b6000601f19601f8301169050919050565b600061035e826102f3565b61036881856102fe565b935061037881856020860161030f565b61038181610342565b840191505092915050565b600060208201905081810360008301526103a68184610353565b905092915050565b600073ffffffffffffffffffffffffffffffffffffffff82169050919050565b60006103d9826103ae565b9050919050565b6103e9816103ce565b82525050565b600060208201905061040460008301846103e0565b92915050565b7f4e487b7100000000000000000000000000000000000000000000000000000000600052602260045260246000fd5b6000600282049050600182168061045157607f821691505b602082108114156104655761046461040a565b5b5091905056fea26469706673582212202e0e6f2c4f3556f14d73126f4dd10056d0362ace291157cbb3641ca663eac05b64736f6c634300080a0033a264697066735822122044945d5bcc3f7100587e9de9214e7d09bfa12f8742ce3b43958cb092e55a188a64736f6c634300080a0033",
  "immutableReferences": {},
  "source": "// SPDX-License-Identifier: MIT\npragma solidity >=0.4.21 <=0.8.13;\n\nimport './UserAccount.sol';\n\ncontract UserStorage {\n\n  address[] userAddresses;\n  //mapping from user's address to deployed address of a UserAccount contract.\n  mapping(address => address) public userData;\n\n  modifier isRegistered() {\n    require(userData[msg.sender] != address(0));\n    _;\n  }\n\n  function createUser( \n    string memory _name,\n    string memory _publicKey,\n    string memory _privateKey\n  ) public {\n    require(userData[msg.sender] == address(0));\n    _makeUser(msg.sender, _name, _publicKey, _privateKey);\n  }\n\n  function getUser() public view returns(address) {\n    return userData[msg.sender];\n  }\n\n  function getUserFromAddress(address _address) public view isRegistered returns(address) {\n    if(userData[_address] != address(0)){\n      return userData[_address];\n    }\n    else {\n      return address(0);\n    }\n  }\n\n  function _makeUser(\n    address _userAddress,\n    string memory _name,\n    string memory _publicKey,\n    string memory _privateKey\n  ) private {\n    UserAccount newUser = new UserAccount(\n      _userAddress, \n      _name,\n      _publicKey, \n      _privateKey\n    );\n    userAddresses.push(_userAddress);\n    userData[_userAddress] = address(newUser);\n  }\n\n}\n",
  "sourcePath": "/home/divyesh/workspace/ShareConnect/contracts/UserStorage.sol",
  "compiler": {
    "name": "solc",
    "version": "0.8.10+commit.fc410830.Emscripten.clang"
  },
  "schemaVersion": "3.4.6",
  "updatedAt": "2022-04-16T13:20:24.397Z",
  "networkType": "ethereum",
  "devdoc": {
    "kind": "dev",
    "methods": {},
    "version": 1
  },
  "userdoc": {
    "kind": "user",
    "methods": {},
    "version": 1
  }
}